:020000040000fa
:10000000f03f0020f5160000031300005b14000011
:1000100000000000000000000000000000000000e0
:10002000000000000000000000000000d31a0000e3
:100030000000000000000000d31a0000d31a0000e6
:10004000d31a0000d31a0000d31a0000d31a0000fc
:10005000d31a0000d31a0000d31a0000d31a0000ec
:10006000d31a0000d31a0000d31a0000d31a0000dc
:1000700071150000d31a00001d150000d31a0000ee
:10008000d31a0000d31a00008d1a0000651a000070
:10009000d31a00000000000000000000d31a000086
:1000a000d31a0000d31a0000d31a0000d31a00009c
:0800b00000000000d31a00005b
:020000040000fa
:1000b800f8b5c046f8bc08bc9e467047d516000087
:1000c800f8b5c046f8bc08bc9e467047ad1600009f
:020000040000fa
:0800d8002407000001000000f4
:020000040000fa
:1000e0000023f0b506001500b1b0079103930799fe
:1000f0000b78002b00d10ce101235b420c9310ab79
:1001000000240e9380230b940d940f930b5d002b12
:1001100001d0252b2ad1002c06d02200300001f07e
:1001200077fc079b1b190793079b1a78252a00d099
:10013000e4e0013304930793022301219c46102736
:10014000079803782b2b1ad025d8202b1ad0232bd5
:100150001dd02a2b28d001f079fb0d90079b1a782f
:10016000303a092a31d801330793f7e70134cde754
:100170000b9b05930b4301300b930790e0e704239f
:100180000b9a0fe00b9b0593059a08230ae00b9b43
:1001900005933b43efe72d2bead0302bd9d16246b4
:1001a0000b9b05931343e6e72b6801301a1d1b6870
:1001b00007902a600d93002b07da0b9a5b42059299
:1001c000012205990d934a400b920b9bda0702d549
:1001d000022293430b93079b1a782e2a0ed10022fa
:1001e000581c0c9207905a782a2a27d10233079379
:1001f0002b681a1d1b682a6005930c9307a801f051
:10020000edfb079b0700187801f0cefd692800d1af
:1002100082e034dc632800d1dbe01adc252800d141
:10022000e8e0612858d0049b012207930023524242
:100230000c920b930d9300930232e5e001f006fb64
:100240000c90079b1a78303a092ad7d801330793c4
:10025000f7e7642860d06728e5dc2a00390008a8a1
:1002600001f0ebfb002800d1afe0079b0ba95a1c63
:1002700007921b7808aa300001f0dcfd3de07028f1
:1002800000d17de016dc6e2800d197e06f28cad13e
:100290002b000022390008a800f062fc002800d1e1
:1002a00093e0079b08aa01330ba93000079301f0e4
:1002b000bffd22e0752840d078284fd07328b2d1f6
:1002c000802f00d081e0079b2a6801330793131d1c
:1002d0002b601268002388e02a00390008a801f08a
:1002e000acfb002800d170e0079b0ba95a1c0792b9
:1002f0001b7808aa300001f09dfd2418039b1c19ef
:10030000a34200dc82e04f22414b1a6001235b4292
:100310000393039831b0f0bd2b000122390008a8e7
:1003200000f01efc002850d0079b08aa01330ba93f
:100330003000079300f073fcdfe72b000022390048
:1003400008a800f00dfc00283fd0079b08aa013345
:100350000ba93000079301f06bfdcee72b000022c4
:10036000390008a800f0fcfb00282ed0079b5a1c7f
:1003700007921b7808aa0ba9300001f05bfdbce7cf
:100380002b000022f02108a800f0eafb00281cd076
:10039000079b099a01330793089b13430cd11d4f08
:1003a000380001f03dfc390002000b9b00930d9bcf
:1003b000300000f069ffa0e77823dbe7039b3900fa
:1003c0001a1908a82b0001f014f8079b01330793b2
:1003d00094e7802ff9d1079b013307932b681a1def
:1003e0001b682a6008aa137001230ba9300001f0d2
:1003f00023fd82e7802fe8d10122079b0133079379
:100400000b9b049300930d9b0349d1e703946ee685
:0c04100034040020241e00002a1e0000fe
:020000040000fa
:10041c00f0b5de4657464e464546e0b583b08046bd
:10042c0000296ed00024384f0726384b9c469b463b
:10043c009946009108e03648415549468a60621c4d
:10044c000134009991424cd97a683240012a16d075
:10045c009d68da6892466a1c19698a4289410a4089
:10046c0092453fd04146095d786830400128e2d181
:10047c006d0027484155013500214155dde76246a5
:10048c009568d26892466a1c614609698a4289411c
:10049c000a40924526d0610001204044405c000295
:1004ac0082464046415c5046014301917868304099
:1004bc00012809d0694609798a461549504648559c
:1004cc0059468a60621cbbe7690068460079104d8a
:1004dc00aa4668540d0001350199090a5046415548
:1004ec00eee7140001f0f0fa002802d0064b0122ce
:1004fc009a75200003b03cbc90469946a246ab4688
:10050c00f0bd0c00eee7c046001c0042700300205a
:04051c00a00100201a
:020000040000fa
:10052000f0b5de4657464e464546e0b583b08046b8
:1005300000296ed00024384f0726384b9c469b4636
:100540009946009108e03648415549468a60621c48
:100550000134009991424cd97a683240012a16d070
:100560009d68da6892466a1c19698a4289410a4084
:1005700092453fd04146095d786830400128e2d17c
:100580006d0027484155013500214155dde76246a0
:100590009568d26892466a1c614609698a42894117
:1005a0000a40924526d0610001204044405c000290
:1005b00082464046415c5046014301917868304094
:1005c000012809d0694609798a4615495046485597
:1005d00059468a60621cbbe7690068460079104d85
:1005e000aa4668540d0001350199090a5046415543
:1005f000eee7140001f08afa002802d0064b01222f
:100600009a75200003b03cbc90469946a246ab4682
:10061000f0bd0c00eee7c04600140042b00300201d
:04062000a002002014
:020000040000fa
:10062400f0b5d6464f464646c0b50426344da846d6
:10063400a946334b9a465be04a46126a002a42d0e6
:10064400796a3b6a01209847bb6a01333a6b93424b
:100654009241134037e05246926a5200e0b229496f
:1006640088540132240a8c543ce001f03ffa244bb4
:100674001b6a002bddd0224b596a3c23204ad35cf1
:10068400002b06d0936b9842d3d3136a002098476b
:10069400cfe71b4b9b6b9842cbd1194b1b6a0020b5
:1006a4009847c6e7184b1b7e334223d0164b1c8d4c
:1006b400a4b2ab6a01332a6b93429241134042467f
:1006c400d26a9a42b8d00e4ad26a9a42ead00e4a04
:1006d400516807220a40012abdd0094a926ae4b24d
:1006e40008498c54064a93623423d35c002bbcd152
:1006f400034fd7e71cbc90469946a246f0bdc046be
:0c0704007003002020010020001c0042b7
:020000040000fa
:10071000f0b5d6464f464646c0b50426344da846e9
:10072000a946334b9a465be04a46126a002a42d0f9
:10073000796a3b6a01209847bb6a01333a6b93425e
:100740009241134037e05246926a5200e0b2294982
:1007500088540132240a8c543ce001f0e5f9244b22
:100760001b6a002bddd0224b596a3c23204ad35c04
:10077000002b06d0936b9842d3d3136a002098477e
:10078000cfe71b4b9b6b9842cbd1194b1b6a0020c8
:100790009847c6e7184b1b7e334223d0164b1c8d5f
:1007a000a4b2ab6a01332a6b934292411340424692
:1007b000d26a9a42b8d00e4ad26a9a42ead00e4a17
:1007c000516807220a40012abdd0094a926ae4b260
:1007d00008498c54064a93623423d35c002bbcd165
:1007e000034fd7e71cbc90469946a246f0bdc046d1
:0c07f000b0030020200200200014004292
:020000040000fa
:1007fc00f0b5060085b00f0015001c008b4265d8c3
:10080c0001d1824262d82100280001f033fa39006c
:10081c000090300001f02efa009b21001b1a1a00e8
:10082c002800039301f01afa00900191019bbb423e
:10083c0046d802d1009bb34242d8009b019c039a3c
:10084c0001200021f61aa74101f008fa039b002ba6
:10085c002fd0019b009adb0754081c43019b5d08b9
:10086c00039b9c46bd422ed801d1b4422bd83200fa
:10087c003b00121bab41012692185b410027b618b6
:10088c005f4101235b429c446346002bead18019f3
:10089c007941039a04000d003000390001f0d2f9bf
:1008ac00039a06000f0001f0d9f9241a8d4120009b
:1008bc0029000a9b002b01d01e605f6005b0f0bdc3
:1008cc0000200021c2e7b6197f41dae700200021a1
:0208dc00efe744
:020000040000fa
:0208de00704761
:020000040000fa
:1008e000f0b5ce46474680b583b00125314ca046d1
:1008f000314a304eff23994616e058002f4f3f5c97
:10090000bc466f466146b97101302c49085cf871ec
:1009100001331ae06b4606331b8849460b401385aa
:10092000244b1b7d002b20d1137e2b423dd0a06891
:10093000e368984236d05768072038400128dcd059
:100940001e48c75c68468771013330698342804125
:1009500003401848c360506807230340012bd9d1d6
:100960006b4606331b881385dae701f0abf9114bb0
:100970001b68002bbcd0434659681b7f002b08d056
:100980000c4b9b699842b3d30a4b1b6803209847d2
:10099000aee7084b9b699842aad1064b1b6803201f
:1009a0009847a5e7044b01221a7503b00cbc90468a
:1009b0009946f0bd70030020001c0042a0010020f9
:020000040000fa
:1009c000f0b5ce46474680b583b00125314ca046f0
:1009d000314a304eff23994616e058002f4f3f5cb6
:1009e000bc466f466146b97101302c49085cf8710c
:1009f00001331ae06b4606331b8849460b401385ca
:100a0000244b1b7d002b20d1137e2b423dd0a068b0
:100a1000e368984236d05768072038400128dcd078
:100a20001e48c75c68468771013330698342804144
:100a300003401848c360506807230340012bd9d1f5
:100a40006b4606331b881385dae701f045f9114b35
:100a50001b68002bbcd0434659681b7f002b08d075
:100a60000c4b9b699842b3d30a4b1b6803209847f1
:100a7000aee7084b9b699842aad1064b1b6803203e
:100a80009847a5e7044b01221a7503b00cbc9046a9
:100a90009946f0bdb003002000140042a0020020df
:020000040000fa
:100aa000f00300201c0000000000000020010020d6
:100ab0000001000000000000700300204000000062
:100ac00000000000200200200001000000000000e3
:100ad000b003002040000000000000000c040020d3
:100ae0001000000000000000380400200100000099
:100af000000000001c0400201000000000000000a6
:100b00000000002020010000000000003c04002044
:100b10000100000001000000010000003904002075
:100b200003000000000000002c040020040000006e
:100b30000000000020030020500000000000000022
:100b40003004002008000000000000000000000049
:100b500000000000666666666666666666666666cd
:020000040000fa
:100b600010b588293cd015dc81294dd003dc8029c3
:100b70004ad0002010bd822911d08429f9d11968ea
:100b8000002a26d00a1d1a6000228b5e0360db1744
:100b9000436011e0a02930d010dc9029e9d1196818
:100ba0000724002a2ed00919a1430a0008321a602e
:100bb0000b684c68036044600120dbe7c02901d06a
:100bc000f029d6d11a68111d19601368036000233b
:100bd000dee70c1d1c600b689bb203604260ebe714
:100be0001968002a04d00a1d1a600023cb56cde7ed
:100bf0000c1d1c600b68dbb2efe71a68111d196051
:100c00001368c3e70731cfe71968002a03d00a1d2c
:0e0c10001a600b68bae70c1d1c600b68dde76c
:020000040000fa
:100c1e00f0b54b6889b005930b6807009c460793a7
:100c2e00cb680c008e68049310685168cd0f44d0c9
:100c3e000b000200002150429941059b002b08db5e
:100c4e000222634693430793002d02d1079b5a0756
:100c5e002ad5731e07aa02920a22009301920b0054
:100c6e000200200000f083fb002d02d1079b5a07e3
:100c7e001ed501382d23002d00d1023b049a1354aa
:100c8e0023695a1e049b121a1918079b38000093e9
:100c9e00330000f0f2fa7b68db0503d563689842f7
:100cae0000da180009b0f0bd1b07db0ff31ad1e70d
:100cbe001b07e5d501382023e0e7059b002bbfdaa3
:020cce00c4e779
:020000040000fa
:100cd0001f4b00229a619a8c80218a439a841a00c1
:100ce0001023d1680b42fcd01a4b1b689b0e3f2b84
:100cf0002bd09b02802292001343154a936210234b
:100d0000d1680b42fcd0124b02229a841a001023a5
:100d1000d1680b42fcd0104b104a5a601a0053782d
:100d20005bb2002bfbdb0c4b0d4a5a800d4a5a80fc
:100d30000d4a5a800d4a5a800d4a5a800d4b0e4a70
:100d40001a62034b00221a627047203bd1e7c0466b
:100d50000008004024608000000c004000070100f3
:100d600017400000194000001b4000001c4000001c
:0c0d70001e40000000040040a01801001c
:020000040000fa
:100d7c0010b50121012000f01dff012000f0feff45
:100d8c000121012000f0acff012000f0ffff012148
:100d9c00012000f003ff012000f0e8ff144c216853
:100dac00144801f015f82168134801f00bf8134ba7
:100dbc001968134801f018f8124b1968124801f021
:100dcc000df800f0c7fe00f095ff00f017ff0f4a7a
:100ddc00137801218b4301318b4313700c4b002290
:100dec001a705a708022d2009a6000f0a1fc10bddb
:100dfc002004002041190000751900002404002073
:100e0c00191e000028040020011e00001c040020f4
:040e1c0000000020b2
:020000040000fa
:100e200030b5234b234a1a6008221a61002243215d
:100e30005a5409315a5401315a5403315a54022038
:100e4000013158540231585452395424195501343f
:100e5000195501341955053418552f301a540530d9
:100e60001a5402301a5401301a540130283c1c54d0
:100e700037380834185502341a5543348125ed00ab
:100e80001d5110340c4d1d5133341a55053419556c
:100e900002341a55013406251d550b341955253ccd
:100ea0001a5503341955b4315a54bb32985430bdd5
:0c0eb00000440041083001000808000068
:020000040000fa
:100ebc00f0b5d6464f464646c0b582461e4ad36a62
:100ecc00956a002933d0ab4234d0040001201b4a70
:100edc0094469046184e12e04246d25c91465246d9
:100eec00013a4f4617540133326b934292411340ef
:100efc00884214d2421c0234ab4211d01000104a6a
:100f0c00576807223a40012ae6d15a006746bf5c6f
:100f1c00277001326746ba5c62700133e4e71d004a
:100f2c00054bdd621cbc90469946a246f0bd1d00e7
:100f3c000800f5e70020f3e77003002020010020f3
:040f4c00001c004243
:020000040000fa
:100f5000f0b5d6464f464646c0b582461e4ad36acd
:100f6000956a002933d0ab4234d0040001201b4adb
:100f700094469046184e12e04246d25c9146524644
:100f8000013a4f4617540133326b9342924113405a
:100f9000884214d2421c0234ab4211d01000104ad5
:100fa000576807223a40012ae6d15a006746bf5cdb
:100fb000277001326746ba5c62700133e4e71d00b6
:100fc000054bdd621cbc90469946a246f0bd1d0053
:100fd0000800f5e70020f3e7b0030020200200201e
:040fe00000140042b7
:020000040000fa
:100fe40070b51e4b1b78012b0cd0002b02d0022baa
:100ff4001dd070bd00f0eefd00f0bcfd174b0122ca
:101004001a70f6e7164b1b78012bf2d1144b002211
:101014001a7000f0bbfd0028ebd000f0cbfe104ba3
:10102400988000f0a7fd0d4b02221a70e1e70d4aeb
:10103400a023d358db0a01252b40094ca2880c3489
:101044000949200000f026fe200000f0e7fd010021
:101054002000fff763fa014b1d70cae73c0400202f
:0c10640000000020004400410c1e0000b1
:020000040000fa
:101070001d4b1e4a1a601e4a9a81c02292025a6073
:101080001a00d369002bfcd1174a136802210b43c5
:101090001360d369002bfcd1164b00221a629a62ae
:1010a000da6234215a5408315a549a630021da879b
:1010b0001a609a60da60197519779a610a4b5a6852
:1010c00007231340012b09d00a4b80221a631a61af
:1010d000054b80229a757c3a9a757047054b4022e1
:1010e0001a631a61f4e7c046001c00420401204064
:0810f0002bf6ffff7003002046
:020000040000fa
:1010f8001d4b1e4a1a601e4a9a81c02292025a60eb
:101108001a00d369002bfcd1174a136802210b433c
:101118001360d369002bfcd1164b00221a629a6225
:10112800da6234215a5408315a549a630021da8712
:101138001a609a60da60197519779a610a4b5a68c9
:1011480007231340012b09d00a4b80221a631a6126
:10115800054b80229a757c3a9a757047054b402258
:101168001a631a61f4e7c0460014004204013140d2
:081178002bf6ffffb00300207d
:020000040000fa
:101180001c4b5b78012b00d070471a4b00225a7021
:10119000194b1b78012b27d0002b13d0022bf3d136
:1011a000164a13780133dbb2137015499822802058
:1011b000c0008850072be7d1104b00221a709423ef
:1011c000c850e1e70f4b1b780133dbb20a2b02d882
:1011d0000c4a1370d8e70b4b00221a70084a9c2364
:1011e0008021c900d150cfe7054a9c238021c90046
:1011f000d150c9e700000020390400203b04002042
:08120000004400413a04002003
:020000040000fa
:10120800f8b5ce46474680b5002000f079fbfff7d9
:10121800b1fd164c164f174b9946174b984606e0ea
:1012280000254b461d7000f0dffc43461d70134e31
:101238000125fff7a1ff336a5b0c2b401a002378c6
:10124800ab4313432370336adb0c2b405a002378db
:1012580002218b43134323703b70e1d0032be8d169
:10126800044b02221a70fff7b9fee0e71c040020c5
:1012780038040020390400203c04002000440041c8
:020000040000fa
:10128800f0b51d00012389b014000e9a06001a401b
:101298000391029201d1a5420ad822000399300095
:1012a80000f0b2fba54203d82500280009b0f0bd24
:1012b8002f1b01973a00102f00d91022202104a8d3
:1012c80000f042fd019b0f2b0ed80f2204a93a40d3
:1012d800300000f099fb029b002be6d12200039915
:1012e800300000f091fbe0e7102204a9300000f084
:0a12f8008bfb019b103b0193e4e720
:020000040000fa
:02130200fee704
:020000040000fa
:10130400194b01221a701a00537e5bb2002bfbdbcf
:10131400164b1a68164b1b68db0e07211140490156
:101324000b435201e021c9000a4013430e4a1385be
:101334000323d370013b53700e4b1361537e5bb296
:10134400002bfbdb084bc12292009a801a00537ecb
:101354005bb2002bfbdb044b0f221a761a00537e80
:101364005bb2002bfbdb704700400042246080002e
:08137400206080000218000057
:020000040000fa
:10137c00f7b5040019000a9fe368666800933b68a0
:10138c00100001932369013b1c00002e00da01269a
:10139c000022009dea5435000123002c03dc002bb5
:1013ac001cd02000febd02000a4309d1002d07dc31
:1013bc00089a921b5219002af1dd019a9207eed578
:1013cc00099b099adb1700f05bfa8c460099013ceb
:1013dc00130030320a55013d6146dee710233a68ae
:0613ec009a433a60dde7c0
:020000040000fa
:1013f20010b584291fd007dc812915d0822922d07b
:10140200802911d0002010bd90291cd008dc882929
:10141200f8d119680c1d1c600b6803601a7010e08b
:10142200a02901d0c029edd119680c1d1c600b68e0
:1014320003601a6005e019680c1d1c600b680360ec
:101442001a800120dfe719680c1d1c600b6803601d
:081452001a60d2175a60f4e79a
:020000040000fa
:02145a00fee7ab
:020000040000fa
:10145c0010b5bff35f8f62b6144bc32189005a5885
:10146c00ff2082433f3802435a50802252011a60b7
:10147c005a580f4c2240c020000402435a5080227c
:10148c00d2011a6004315a5822401043585080221d
:10149c00d2021a605a581202120ac02000060243e5
:1014ac005a50802212031a6010bdc04600e100e0c1
:0414bc00ffff00ff2f
:020000040000fa
:1014c00000230e4a10b513600d4a13600d4a1360d5
:1014d0000d4a13600d4a13600d4a536213610133c4
:1014e000936000f048fc00f046fc0a4c0a4b9c421a
:1014f00000d310bd08cc9847f8e7c0463004002060
:101500002c030020280300202003002024030020b7
:0c15100030030020c4000000c8000000f0
:020000040000fa
:10151c0010b5134b9b7d002b1ad0114a137edbb2f6
:10152c00927d52b2002a14db0d4a137edbb2927dff
:10153c00d20703d5db0701d5fff7ccf9084a137e98
:10154c00dbb2927d520703d55b0701d5fff764f838
:10155c0010bd5bb2002be7da00f056f8e4e7c046aa
:04156c00001c00421d
:020000040000fa
:1015700010b5134b9b7d002b1ad0114a137edbb2a2
:10158000927d52b2002a14db0d4a137edbb2927dab
:10159000d20703d5db0701d5fff712fa084a137efd
:1015a000dbb2927d520703d55b0701d5fff7b0f898
:1015b00010bd5bb2002be7da00f052f8e4e7c0465a
:0415c00000140042d1
:020000040000fa
:1015c40030b51500012289b0524201920432ff3233
:1015d4000292002800d16846002403900491a1429d
:1015e40000d04c1e0594002906da4f220120074b37
:1015f40040421a6009b030bd002207900270069084
:101604001a00290001a800f015fbf3e734040020b8
:020000040000fa
:1016140010b5104b5b8b0722134000d110bd0e4a4e
:10162400d3870c4b80221a76793a5a831b7e5b0748
:1016340005d5084b04211a8d1a7e0a42fbd1064bac
:101644001b6a002bead0044b596a1b6a0220984794
:0c165400e4e7c046001c004270030020c8
:020000040000fa
:1016600010b5104b5b8b0722134000d110bd0e4a02
:10167000d3870c4b80221a76793a5a831b7e5b07fc
:1016800005d5084b04211a8d1a7e0a42fbd1064b60
:101690001b6a002bead0044b596a1b6a0220984748
:0c16a000e4e7c04600140042b003002044
:020000040000fa
:1016ac0010b5064c2378002b07d1054b002b02d02c
:1016bc00044800e000bf0123237010bdf00300209c
:1016cc000000000000000000044b10b5002b03d0fc
:1016dc000349044800e000bf10bdc04600000000f4
:0816ec00f403002000000000df
:020000040000fa
:1016f40010b50a4b98470a4b984700f053f9094b29
:10170400ff229343084a9360084b9847084b984735
:10171400084b9847fff776fdfee7c046df08000058
:10172400df0800000000000000ed00e0c11400002c
:08173400df080000df080000df
:020000040000fa
:10173c0070b50e4c082565619423e5500a2000f025
:10174c005ff89823e550c82000f05af8a023e3581e
:10175c001b0507d40123064a9370064a1370fff742
:10176c0009fdfce7024b00229a7070bd0044004159
:08177c000000002039040020e8
:020000040000fa
:101784000d4b01221a801a00d37b5bb2002bfbdbca
:10179400094bec22d2001a80084a1a833b229a731e
:1017a400074a0021116001225a731a00d37b5bb2ed
:1017b400002bfbdb7047c04600300042ed360000d2
:0417c4000c040020f1
:020000040000fa
:1017c8000d4b01221a801a00d37b5bb2002bfbdb86
:1017d800094bec22d2001a80084a1a833b229a73da
:1017e800074a0021116001225a731a00d37b5bb2a9
:1017f800002bfbdb7047c046002c00424e12000055
:0418080014040020a4
:020000040000fa
:10180c0070b50d4b5e681b68db0714d50b4b58434a
:10181c00094b9b6800280ed00021074d06e0741c74
:10182c00a41ae318c9181300884204d9aa689a426a
:10183c00f5d89b1af6e770bd10e000e080bb000005
:020000040000fa
:10184c00030010b51a78202a0dd01100093904298b
:10185c0009d900212b2a02d02d2a01d101310133c3
:10186c0000200a2404e00133ece760430133801ac2
:10187c001a78303a092af8d9002900d1404210bd13
:020000040000fa
:10188c00002b11d1002a0fd1002900d1002802d041
:10189c000021c943081c07b4024802a14018029059
:1018ac0003bdc0468d05000003b4684601b502981f
:1018bc00fef79eff019b9e4602b00cbc7047c046d3
:020000040000fa
:1018cc001c2101231b04984201d3000c10391b0a64
:1018dc00984201d3000a08391b09984201d3000928
:1018ec00043902a2105c40187047c046040302027f
:0c18fc00010101010000000000000000dc
:020000040000fa
:1019080010b50c4b06225a60fff786fafff7dcf990
:10191800fff7eefb00f052fa00f010f9fff7a4fb16
:10192800fff7ecfcfff74cfffff728fffff792fdee
:0819380010bdc0460040004153
:020000040000fa
:1019400010b584b00a4b9b78012b01d004b010bdb8
:1019500000f0eaf8c3b2002bf8d0ff2404402100c5
:1019600001a8fff7f5fa210001a8fef757fdede702
:041970000000002053
:020000040000fa
:1019740010b584b00a4b9b78012b01d004b010bd84
:1019840000f0b4f8c3b2002bf8d0ff2404402100c7
:1019940001a8fff791fa210001a8fef7bffdede7ca
:0419a400000000201f
:020000040000fa
:1019a80010b50a480168002903d14368002b00d10b
:1019b80010bd04008368064a9bb20c349b009b58f8
:1019c80042682000984780002018ebe7a00a000032
:0419d800141d0000da
:020000040000fa
:1019dc00f0b5050000200a4a4400a65c002e02d196
:1019ec0012195078f0bd296801300f78c0b2b74297
:1019fc0003d112190131507829600a28ebd9f1e78b
:041a0c00ae1c00000c
:020000040000fa
:101a100070b505690400954200d91500002d0bd062
:101a20002a00606900f080f9226963695b19551b1f
:0a1a30000022636125611a7070bd89
:020000040000fa
:101a3a00002380290fdb812901dd83290bd10721ae
:101a4a00136807338b431900083111601a685b6801
:0a1a5a00026043600123180070478a
:020000040000fa
:101a640010b5074b987bc0b23b229a73054b1b6899
:101a7400002b03d0034b59681b68984710bdc04620
:081a8400003000420c040020b8
:020000040000fa
:101a8c0010b5074b987bc0b23b229a73054b1b6871
:101a9c00002b03d0034b59681b68984710bdc046f8
:081aac00002c0042140400208c
:020000040000fa
:101ab400002310b5934206d103201840421e9041e2
:0e1ac4009b08c01810bdc45ccc540133f2e77f
:020000040000fa
:021ad200fee72d
:020000040000fa
:101ad400054b9868db68984201d3c01a7047024ae4
:0c1ae40012691018c01af9e77003002006
:020000040000fa
:101af000054ad36a906a834201d8c01a7047024ae5
:0c1b0000126b1018c01af9e770030020e7
:020000040000fa
:101b0c00054b9868db68984201d3c01a7047024aab
:0c1b1c0012691018c01af9e7b00300208d
:020000040000fa
:101b2800054ad36a906a834201d8c01a7047024aac
:0c1b3800126b1018c01af9e7b00300206f
:020000040000fa
:101b4400044b00221a609a60034a5a6004221a6005
:0c1b54007047c04610e000e07fbb0000be
:020000040000fa
:101b6000044a137802210b431370537e5bb2002b9f
:081b7000fbdb7047004000425e
:020000040000fa
:101b7800044a137b02210b431373537e5bb2002b81
:081b8800fbdb70470040004246
:020000040000fa
:101b9000044b1b7e01221340181e01d0014b1a7604
:081ba0007047c04600400042fe
:020000040000fa
:101ba80010b5044a3424135ddbb210553c2011549f
:081bb800180010bd70030020ad
:020000040000fa
:101bc00010b5044a3424135ddbb210553c20115487
:081bd000180010bdb003002055
:020000040000fa
:101bd800044a138802210b431380d37b5bb2002b8a
:081be800fbdb704700300042f6
:020000040000fa
:101bf000044a138802218b431380d37b5bb2002bf2
:081c0000fbdb704700300042dd
:020000040000fa
:101c0800044a138802210b431380d37b5bb2002b59
:081c1800fbdb7047002c0042c9
:020000040000fa
:101c20000378002b06d0030001331a78002afbd179
:081c3000181a70470020fce7c0
:020000040000fa
:101c380013b50400019201aafef74efa6368db06a9
:081c480001d50120404216bd48
:020000040000fa
:101c5000d0400b1cd1409c46203ad34018435242fe
:081c60006346934018437047ee
:020000040000fa
:101c68009140031c90409c46203a934019435242ad
:081c78006346d3401943704795
:020000040000fa
:101c800010b5002903d1fff721fe203002e0081c27
:081c9000fff71cfe10bdc04669
:020000040000fa
:101c98000eb403b503aa02ca019200f04bf802b0d1
:061ca80008bc03b0184760
:020000040000fa
:101cae0068076c094c836a9074a07ac000806888bb
:061cbe0000846c8200812d
:020000040000fa
:101cc40010b5034b1c69fff703ff013c201a10bd3c
:041cd4007003002079
:020000040000fa
:101cd80010b5034b1c69fff715ff013c201a10bd16
:041ce800b003002025
:020000040000fa
:101cec00034a137ddbb21075117718007047c0469c
:041cfc00b003002011
:020000040000fa
:101d0000034b00229a601a6801210a431a60704747
:041d100010e000e0ff
:020000040000fa
:101d1400651d0000b51a00002d1e00002d1e0000d8
:041d24002d1e000070
:020000040000fa
:101d280010b5002a05d00023cc5cc454013393427b
:041d3800fad110bd0f
:020000040000fa
:101d3c0010b513000a000249fff73efc10bdc04667
:041d4c00ffffff7f17
:020000040000fa
:101d5000002a06d00300c9b28218197001339342d9
:041d6000fbd17047fc
:020000040000fa
:101d64008a18914201d10020704700230b70013181
:021d7400f7e78f
:020000040000fa
:021d76007047b4
:020000040000fa
:101d7800002801d0014b98637047c04670030020cb
:020000040000fa
:101d8800002801d0014b98637047c046b00300207b
:020000040000fa
:101d9800002801d0014b98617047c046b00300206d
:020000040000fa
:0e1da8000300413b192b01d82023184370473c
:020000040000fa
:0c1db800014b588b80b270470040004285
:020000040000fa
:0c1dc400014b82225a6070470040004131
:020000040000fa
:0c1dd000014b186259627047700300203c
:020000040000fa
:0c1ddc00014b186259627047b0030020f0
:020000040000fa
:0c1de800014b1860596070470c0400208b
:020000040000fa
:0c1df400014b1860596070471404002077
:020000040000fa
:0c1e0000014b01221a7070470000002006
:020000040000fa
:0c1e0c003c20256420256c643e00c0468c
:020000040000fa
:0c1e1800014b01225a70704700000020ae
:020000040000fa
:081e2400286e696c29002500fd
:020000040000fa
:041e2c0000207047db
:020000040000fa
:041e300000207047d7
:020000040000fa
:041e340000207047d3
:020000040000fa
:041e380000207047cf
:020000040000fa
:041e3c007047c046e5
:020000040000fa
:0200000400807a
:0440000077c700d8a6
:020000040000fa
:0200000400807a
:044004005c00ffff5e
:00000001FF
