:020000040000fa
:10000000f03f002045160000470d00005712000089
:1000100000000000000000000000000000000000e0
:10002000000000000000000000000000cb190000ec
:100030000000000000000000cb190000cb190000f8
:10004000cb190000cb190000cb190000cb19000020
:10005000cb190000cb190000cb190000cb19000010
:10006000cb190000cb190000cb190000cb19000000
:10007000c1140000cb1900006d140000cb19000062
:10008000cb190000cb1900006119000039190000dc
:10009000cb1900000000000000000000cb19000098
:1000a000cb190000cb190000cb190000cb190000c0
:0800b00000000000cb19000064
:020000040000fa
:1000b800f8b5c046f8bc08bc9e4670472516000037
:1000c800f8b5c046f8bc08bc9e467047fd15000050
:020000040000fa
:1000d8000023f0b506001500b1b007910393079906
:1000e8000b78002b00d10ce101235b420c9310ab81
:1000f80000240e9380230b940d940f930b5d002b1b
:1001080001d0252b2ad1002c06d02200300001f086
:10011800e5fb079b1b190793079b1a78252a00d034
:10012800e4e0013304930793022301219c4610273e
:10013800079803782b2b1ad025d8202b1ad0232bdd
:100148001dd02a2b28d001f025fb0d90079b1a788b
:10015800303a092a31d801330793f7e70134cde75c
:100168000b9b05930b4301300b930790e0e70423a7
:100178000b9a0fe00b9b0593059a08230ae00b9b4b
:1001880005933b43efe72d2bead0302bd9d16246bc
:100198000b9b05931343e6e72b6801301a1d1b6878
:1001a80007902a600d93002b07da0b9a5b420592a1
:1001b800012205990d934a400b920b9bda0702d551
:1001c800022293430b93079b1a782e2a0ed1002202
:1001d800581c0c9207905a782a2a27d10233079381
:1001e8002b681a1d1b682a6005930c9307a801f059
:1001f8005bfb079b0700187801f026fd692800d1f2
:1002080082e034dc632800d1dbe01adc252800d149
:10021800e8e0612858d0049b01220793002352424a
:100228000c920b930d9300930232e5e001f0b2fac1
:100238000c90079b1a78303a092ad7d801330793cc
:10024800f7e7642860d06728e5dc2a00390008a8a9
:1002580001f059fb002800d1afe0079b0ba95a1cfd
:1002680007921b7808aa300001f036fd3de070289f
:1002780000d17de016dc6e2800d197e06f28cad146
:100288002b000022390008a800f0fafc002800d151
:1002980093e0079b08aa01330ba93000079301f0ec
:1002a80019fd22e0752840d078284fd07328b2d1a4
:1002b800802f00d081e0079b2a6801330793131d24
:1002c8002b601268002388e02a00390008a801f092
:1002d8001afb002800d170e0079b0ba95a1c079253
:1002e8001b7808aa300001f0f7fc2418039b1c199e
:1002f800a34200dc82e04f22414b1a6001235b429b
:100308000393039831b0f0bd2b000122390008a8ef
:1003180000f0b6fc002850d0079b08aa01330ba9af
:100328003000079301f0d6fcdfe72b0000223900ec
:1003380008a800f0a5fc00283fd0079b08aa0133b5
:100348000ba93000079301f0c5fccee72b00002273
:10035800390008a800f094fc00282ed0079b5a1cee
:1003680007921b7808aa0ba9300000f04ff8bce7e9
:100378002b000022f02108a800f082fc00281cd0e5
:10038800079b099a01330793089b13430cd11d4f10
:10039800380001f0b1fb390002000b9b00930d9b64
:1003a800300000f017ffa0e77823dbe7039b390054
:1003b8001a1908a82b0000f0c1ff079b0133079307
:1003c80094e7802ff9d1079b013307932b681a1df7
:1003d8001b682a6008aa137001230ba9300001f0da
:1003e8007dfc82e7802fe8d10122079b0133079328
:1003f8000b9b049300930d9b0349d1e703946ee68e
:0c04080098030020cc1c0000d21c000057
:020000040000fa
:10041400f0b58fb00d934b680c9006938b680d006c
:100424000793cb6816000393069b0f68002b44dbed
:1004340002239f4310233b400a93079b04930a9b88
:10044400002b07d0726833681343079a02d0130055
:10045400023b049308233b400b935a1e9341049a96
:10046400d31a04933368039a0893736809932b6926
:100474005c1e00231355069b0593012c20dc0a9b6c
:10048400002b51d10b9b002b03d02023039a013c5a
:1004940013552b6900975a1e039b121b19190c98ac
:1004a400079b00f099fe0c9b5b68db0503d56b682a
:1004b400984200da18000fb0f0bd01230693b9e7a3
:1004c400089b099a13430bd1059b002b08dc069a61
:1004d400049b9b1a059a9b18002bd0ddbb07ced535
:1004e4000f23089a013c134018005730092b01dcf4
:1004f400303318000d9b413b192b06d820230343ae
:10050400613b192b01d801f0a8fb039b1855059bef
:10051400013b0593099b1a07089b1b091a43099b76
:1005240008921b090993a8e70cce1343aad0039b96
:100534000d9a1b19013b1a703023039a023c135580
:02054400a0e72e
:020000040000fa
:020546007047fc
:020000040000fa
:10054800f0b5de4657464e464546e0b583b0804690
:1005580000296ed00024384f0726384b9c469b460e
:100568009946009108e03648415549468a60621c20
:100578000134009991424cd97a683240012a16d048
:100588009d68da6892466a1c19698a4289410a405c
:1005980092453fd04146095d786830400128e2d154
:1005a8006d0027484155013500214155dde7624678
:1005b8009568d26892466a1c614609698a428941ef
:1005c8000a40924526d0610001204044405c000268
:1005d80082464046415c504601430191786830406c
:1005e800012809d0694609798a461549504648556f
:1005f80059468a60621cbbe7690068460079104d5d
:10060800aa4668540d0001350199090a504641551a
:10061800eee7140001f0d6f9002802d0064b0122bb
:100628009a75200003b03cbc90469946a246ab465a
:10063800f0bd0c00eee7c046001c0042d8020020c6
:040648000801002085
:020000040000fa
:10064c00f0b5de4657464e464546e0b583b080468b
:10065c0000296ed00024384f0726384b9c469b4609
:10066c009946009108e03648415549468a60621c1b
:10067c000134009991424cd97a683240012a16d043
:10068c009d68da6892466a1c19698a4289410a4057
:10069c0092453fd04146095d786830400128e2d14f
:1006ac006d0027484155013500214155dde7624673
:1006bc009568d26892466a1c614609698a428941ea
:1006cc000a40924526d0610001204044405c000263
:1006dc0082464046415c5046014301917868304067
:1006ec00012809d0694609798a461549504648556a
:1006fc0059468a60621cbbe7690068460079104d58
:10070c00aa4668540d0001350199090a5046415515
:10071c00eee7140001f070f9002802d0064b01221c
:10072c009a75200003b03cbc90469946a246ab4655
:10073c00f0bd0c00eee7c046001400421803002088
:04074c00080200207f
:020000040000fa
:10075000f0b5d6464f464646c0b50426344da846a9
:10076000a946334b9a465be04a46126a002a42d0b9
:10077000796a3b6a01209847bb6a01333a6b93421e
:100780009241134037e05246926a5200e0b2294942
:1007900088540132240a8c543ce001f025f9244ba2
:1007a0001b6a002bddd0224b596a3c23204ad35cc4
:1007b000002b06d0936b9842d3d3136a002098473e
:1007c000cfe71b4b9b6b9842cbd1194b1b6a002088
:1007d0009847c6e7184b1b7e334223d0164b1c8d1f
:1007e000a4b2ab6a01332a6b934292411340424652
:1007f000d26a9a42b8d00e4ad26a9a42ead00e4ad7
:10080000516807220a40012abdd0094a926ae4b21f
:1008100008498c54064a93623423d35c002bbcd124
:10082000034fd7e71cbc90469946a246f0bdc04690
:0c083000d802002088000020001c0042bc
:020000040000fa
:10083c00f0b5d6464f464646c0b50426344da846bc
:10084c00a946334b9a465be04a46126a002a42d0cc
:10085c00796a3b6a01209847bb6a01333a6b934231
:10086c009241134037e05246926a5200e0b2294955
:10087c0088540132240a8c543ce001f0cbf8244b10
:10088c001b6a002bddd0224b596a3c23204ad35cd7
:10089c00002b06d0936b9842d3d3136a0020984751
:1008ac00cfe71b4b9b6b9842cbd1194b1b6a00209b
:1008bc009847c6e7184b1b7e334223d0164b1c8d32
:1008cc00a4b2ab6a01332a6b934292411340424665
:1008dc00d26a9a42b8d00e4ad26a9a42ead00e4aea
:1008ec00516807220a40012abdd0094a926ae4b233
:1008fc0008498c54064a93623423d35c002bbcd138
:10090c00034fd7e71cbc90469946a246f0bdc046a3
:0c091c0018030020880100200014004295
:020000040000fa
:10092800f0b5ce46474680b583b00125314ca04688
:10093800314a304eff23994616e058002f4f3f5c4e
:10094800bc466f466146b97101302c49085cf871a4
:1009580001331ae06b4606331b8849460b40138562
:10096800244b1b7d002b20d1137e2b423dd0a06849
:10097800e368984236d05768072038400128dcd011
:100988001e48c75c684687710133306983428041dd
:1009980003401848c360506807230340012bd9d18e
:1009a8006b4606331b881385dae701f0d3f8114b41
:1009b8001b68002bbcd0434659681b7f002b08d00e
:1009c8000c4b9b699842b3d30a4b1b68032098478a
:1009d800aee7084b9b699842aad1064b1b680320d7
:1009e8009847a5e7044b01221a7503b00cbc904642
:1009f8009946f0bdd8020020001c004208010020e2
:020000040000fa
:100a0800f0b5ce46474680b583b00125314ca046a7
:100a1800314a304eff23994616e058002f4f3f5c6d
:100a2800bc466f466146b97101302c49085cf871c3
:100a380001331ae06b4606331b8849460b40138581
:100a4800244b1b7d002b20d1137e2b423dd0a06868
:100a5800e368984236d05768072038400128dcd030
:100a68001e48c75c684687710133306983428041fc
:100a780003401848c360506807230340012bd9d1ad
:100a88006b4606331b881385dae701f06df8114bc6
:100a98001b68002bbcd0434659681b7f002b08d02d
:100aa8000c4b9b699842b3d30a4b1b6803209847a9
:100ab800aee7084b9b699842aad1064b1b680320f6
:100ac8009847a5e7044b01221a7503b00cbc904661
:100ad8009946f0bd180300200014004208020020c7
:020000040000fa
:100ae80010b582b02e4b1b78012b01d002b010bd7f
:100af8002b4b00221a702b4b1b78012b2dd0002b6f
:100b080025d0022b37d0032bf0d1274aa023d15868
:100b18000905c90f254b1970214ca288244b1a804e
:100b2800d3b2120a063400912249200000f0fcffdb
:100b3800200000f0e1ff01002000fff783fd01f035
:100b480073f80028fbd0174b01221a70cee700f08b
:100b58008bff144b01221a70c8e700f091ff0028a0
:100b6800c4d001f07ff80e4b988000f07dff0d4b4c
:100b780002221a70bae7104c07221049200001f02f
:100b88001bf8200000f0b8ff01002000fff75afd15
:100b980001f04af80028fbd0024b03221a70a5e79f
:100ba80000000020a3030020004400419f03002010
:100bb8009c030020901900000600002088190000fe
:020000040000fa
:100bc800580300201c0000000000000088000020de
:100bd8000001000000000000d802002040000000d2
:100be8000000000088010020000100000000000053
:100bf80018030020400000000000000074030020db
:100c080010000000000000009e030020010000000a
:100c1800000000009c03002002000000000000000b
:100c2800840300200c0000000000000000000020e9
:100c38008800000000000000a3030020010000005d
:100c480001000000010000009f03002004000000d4
:100c580000000000900300200400000000000000d5
:100c680088020020500000000000000094030020cb
:100c78000800000000000000000000000000000064
:020000040000fa
:100c880010b588293cd015dc81294dd003dc80299a
:100c98004ad0002010bd822911d08429f9d11968c1
:100ca800002a26d00a1d1a6000228b5e0360db171b
:100cb800436011e0a02930d010dc9029e9d11968ef
:100cc8000724002a2ed00919a1430a0008321a6005
:100cd8000b684c68036044600120dbe7c02901d041
:100ce800f029d6d11a68111d196013680360002312
:100cf800dee70c1d1c600b689bb203604260ebe7eb
:100d08001968002a04d00a1d1a600023cb56cde7c3
:100d18000c1d1c600b68dbb2efe71a68111d196027
:100d28001368c3e70731cfe71968002a03d00a1d03
:0e0d38001a600b68bae70c1d1c600b68dde743
:020000040000fa
:020d4600fee7c6
:020000040000fa
:100d48001f4b00229a619a8c80218a439a841a0048
:100d58001023d1680b42fcd01a4b1b689b0e3f2b0b
:100d68002bd09b02802292001343154a93621023d2
:100d7800d1680b42fcd0124b02229a841a0010232d
:100d8800d1680b42fcd0104b104a5a601a005378b5
:100d98005bb2002bfbdb0c4b0d4a5a800d4a5a8084
:100da8000d4a5a800d4a5a800d4a5a800d4b0e4af8
:100db8001a62034b00221a627047203bd1e7c046f3
:100dc8000008004024608000000c0040000701007b
:100dd80017400000194000001b4000001c400000a4
:0c0de8001e40000000040040a0180100a4
:020000040000fa
:100df40030b5234b234a1a6008221a61002243218a
:100e04005a5409315a5401315a5403315a54013154
:100e14005a5402315a545239542019540130195435
:100e240001301954053002241c542a381a54053050
:100e34001a5402301a5401301a54013031341c54fb
:100e440037380834185502341a5543348125ed00d7
:100e54001d5110340c4d1d5133341a550534195598
:100e640002341a55013406251d550b341955253cf9
:100e74001a5503341955b4315a54bb32985430bd01
:0c0e84000044004108300b00080800008a
:020000040000fa
:100e9000f0b5d6464f464646c0b582461e4ad36a8e
:100ea000956a002933d0ab4234d0040001201b4a9c
:100eb00094469046184e12e04246d25c9146524605
:100ec000013a4f4617540133326b9342924113401b
:100ed000884214d2421c0234ab4211d01000104a96
:100ee000576807223a40012ae6d15a006746bf5c9c
:100ef000277001326746ba5c62700133e4e71d0077
:100f0000054bdd621cbc90469946a246f0bd1d0013
:100f10000800f5e70020f3e7d80200208800002051
:040f2000001c00426f
:020000040000fa
:100f2400f0b5d6464f464646c0b582461e4ad36af9
:100f3400956a002933d0ab4234d0040001201b4a07
:100f440094469046184e12e04246d25c9146524670
:100f5400013a4f4617540133326b93429241134086
:100f6400884214d2421c0234ab4211d01000104a01
:100f7400576807223a40012ae6d15a006746bf5c07
:100f8400277001326746ba5c62700133e4e71d00e2
:100f9400054bdd621cbc90469946a246f0bd1d007f
:100fa4000800f5e70020f3e718030020880100207b
:040fb40000140042e3
:020000040000fa
:100fb80010b50121012000f07bfd012000f02cfe7e
:100fc8000121012000f0dafd012000f035fe0121a9
:100fd800012000f061fd012000f016fe0f4c216891
:100fe8000f4800f051fe21680e4800f047fe0e4bf6
:100ff80019680e4800f054fe0d4b19680d4800f0b2
:1010080049fe00f025fd00f0c3fd00f069fd0a4b24
:1010180000221a705a7000f035fb10bd84030020be
:10102800151800004918000088030020c11c0000a2
:0c1038008c030020b51c0000000000200c
:020000040000fa
:101044001d4b1e4a1a601e4a9a81c02292025a609f
:101054001a00d369002bfcd1174a136802210b43f1
:101064001360d369002bfcd1164b00221a629a62da
:10107400da6234215a5408315a549a630021da87c7
:101084001a609a60da60197519779a610a4b5a687e
:1010940007231340012b09d00a4b80221a631a61db
:1010a400054b80229a757c3a9a757047054b40220d
:1010b4001a631a61f4e7c046001c00420401204090
:0810c4002bf6ffffd80200200b
:020000040000fa
:1010cc001d4b1e4a1a601e4a9a81c02292025a6017
:1010dc001a00d369002bfcd1174a136802210b4369
:1010ec001360d369002bfcd1164b00221a629a6252
:1010fc00da6234215a5408315a549a630021da873f
:10110c001a609a60da60197519779a610a4b5a68f5
:10111c0007231340012b09d00a4b80221a631a6152
:10112c00054b80229a757c3a9a757047054b402284
:10113c001a631a61f4e7c0460014004204013140fe
:08114c002bf6ffff1803002041
:020000040000fa
:101154001c4b5b78012b00d070471a4b00225a704d
:10116400194b1b78012b27d0002b13d0022bf3d162
:10117400164a13780133dbb2137015499822802084
:10118400c0008850072be7d1104b00221a7094231b
:10119400c850e1e70f4b1b780133dbb20a2b02d8ae
:1011a4000c4a1370d8e70b4b00221a70084a9c2390
:1011b4008021c900d150cfe7054a9c238021c90072
:1011c400d150c9e700000020a0030020a2030020a2
:0811d40000440041a1030020ca
:020000040000fa
:1011dc00f0b51d00012389b014000e9a06001a40c8
:1011ec000391029201d1a5420ad822000399300042
:1011fc0000f072fba54203d82500280009b0f0bd11
:10120c002f1b01973a00102f00d91022202104a87f
:10121c0000f0e4fc019b0f2b0ed80f2204a93a40de
:10122c00300000f059fb029b002be6d12200039901
:10123c00300000f051fbe0e7102204a9300000f070
:0a124c004bfb019b103b0193e4e70c
:020000040000fa
:02125600fee7b1
:020000040000fa
:10125800194b01221a701a00537e5bb2002bfbdb7c
:10126800164b1a68164b1b68db0e07211140490103
:101278000b435201e021c9000a4013430e4a13856b
:101288000323d370013b53700e4b1361537e5bb243
:10129800002bfbdb084bc12292009a801a00537e78
:1012a8005bb2002bfbdb044b0f221a761a00537e2d
:1012b8005bb2002bfbdb70470040004224608000db
:0812c800206080000218000004
:020000040000fa
:1012d000f8b5002000f082fafff76efe144c154eb0
:1012e000154d16e0002737709620400000f036fac2
:1012f00004221249280000f063fc280000f000fce2
:1013000001002800fff7a2f9094b01221a700c4bcb
:101310001f70fff71fff2378002be3d0012bf8d1bc
:10132000044b02221a7000f0d3fbfff7ddfbf0e75d
:101330009e030020a003002006000020d41c000013
:04134000a3030020e3
:020000040000fa
:1013440010b584291fd007dc812915d0822922d029
:10135400802911d0002010bd90291cd008dc8829d8
:10136400f8d119680c1d1c600b6803601a7010e03a
:10137400a02901d0c029edd119680c1d1c600b688f
:1013840003601a6005e019680c1d1c600b6803609b
:101394001a800120dfe719680c1d1c600b680360cc
:0813a4001a60d2175a60f4e749
:020000040000fa
:1013ac0010b5bff35f8f62b6144bc32189005a5836
:1013bc00ff2082433f3802435a50802252011a6068
:1013cc005a580f4c2240c020000402435a5080222d
:1013dc00d2011a6004315a582240104358508022ce
:1013ec00d2021a605a581202120ac0200006024396
:1013fc005a50802212031a6010bdc04600e100e072
:04140c00ffff00ffdf
:020000040000fa
:1014100000230e4a10b513600d4a13600d4a136085
:101420000d4a13600d4a13600d4a53621361013374
:10143000936000f0ecfb00f0eafb0a4c0a4b9c4284
:1014400000d310bd08cc9847f8e7c04694030020ad
:101450009402002090020020880200208c020020cc
:0c14600098020020c4000000c80000003a
:020000040000fa
:10146c0010b5134b9b7d002b1ad0114a137edbb2a7
:10147c00927d52b2002a14db0d4a137edbb2927db0
:10148c00d20703d5db0701d5fff748fa084a137ecc
:10149c00dbb2927d520703d55b0701d5fff752f9fa
:1014ac0010bd5bb2002be7da00f056f8e4e7c0465b
:0414bc00001c0042ce
:020000040000fa
:1014c00010b5134b9b7d002b1ad0114a137edbb253
:1014d000927d52b2002a14db0d4a137edbb2927d5c
:1014e000d20703d5db0701d5fff78efa084a137e32
:1014f000dbb2927d520703d55b0701d5fff79ef95a
:1015000010bd5bb2002be7da00f052f8e4e7c0460a
:041510000014004281
:020000040000fa
:1015140030b51500012289b0524201920432ff32e3
:101524000292002800d16846002403900491a1424d
:1015340000d04c1e0594002906da4f220120074be7
:1015440040421a6009b030bd002207900270069034
:101554001a00290001a800f0ddfaf3e7980300203f
:020000040000fa
:1015640010b5104b5b8b0722134000d110bd0e4aff
:10157400d3870c4b80221a76793a5a831b7e5b07f9
:1015840005d5084b04211a8d1a7e0a42fbd1064b5d
:101594001b6a002bead0044b596a1b6a0220984745
:0c15a400e4e7c046001c0042d802002012
:020000040000fa
:1015b00010b5104b5b8b0722134000d110bd0e4ab3
:1015c000d3870c4b80221a76793a5a831b7e5b07ad
:1015d00005d5084b04211a8d1a7e0a42fbd1064b11
:1015e0001b6a002bead0044b596a1b6a02209847f9
:0c15f000e4e7c04600140042180300208d
:020000040000fa
:1015fc0010b5064c2378002b07d1054b002b02d0dd
:10160c00044800e000bf0123237010bd58030020e4
:10161c000000000000000000044b10b5002b03d0ac
:10162c000349044800e000bf10bdc04600000000a4
:08163c005c0300200000000027
:020000040000fa
:1016440010b50a4b98470a4b984700f015f9094b17
:10165400ff229343084a9360084b9847084b9847e6
:10166400084b9847fff732fefee7c04647050000e7
:10167400470500000000000000ed00e01114000028
:081684004705000047050000c6
:020000040000fa
:10168c0070b50e4c082565619423e5500a2000f0d6
:10169c005ff89823e550c82000f05af8a023e358cf
:1016ac001b0507d40123064a9370064a1370fff7f3
:1016bc004bfdfce7024b00229a7070bd00440041c8
:0816cc0000000020a003002033
:020000040000fa
:1016d4000d4b01221a801a00d37b5bb2002bfbdb7b
:1016e400094bec22d2001a80084a1a833b229a73cf
:1016f400074a0021116001225a731a00d37b5bb29e
:10170400002bfbdb7047c04600300042ed36000082
:04171400740300203a
:020000040000fa
:101718000d4b01221a801a00d37b5bb2002bfbdb36
:10172800094bec22d2001a80084a1a833b229a738a
:10173800074a0021116001225a731a00d37b5bb259
:10174800002bfbdb7047c046002c00424e12000005
:041758007c030020ee
:020000040000fa
:10175c0070b50d4b5e681b68db0714d50b4b5843fb
:10176c00094b9b6800280ed00021074d06e0741c25
:10177c00a41ae318c9181300884204d9aa689a421b
:10178c00f5d89b1af6e770bd10e000e080bb0000b6
:020000040000fa
:10179c00030010b51a78202a0dd01100093904293c
:1017ac0009d900212b2a02d02d2a01d10131013374
:1017bc0000200a2404e00133ece760430133801a73
:1017cc001a78303a092af8d9002900d1404210bdc4
:020000040000fa
:1017dc0010b50c4b06225a60fff706fbfff7aefa6a
:1017ec00fff76efc00f042fa00f022f9fff724fc40
:1017fc00fff72cfdfff78afffff766fffff7d0fd21
:08180c0010bdc0460040004180
:020000040000fa
:1018140010b584b00a4b9b78012b01d004b010bde5
:1018240000f0fcf8c3b2002bf8d0ff2404402100e0
:1018340001a8fff775fb210001a8fef783feede781
:041844000000002080
:020000040000fa
:1018480010b584b00a4b9b78012b01d004b010bdb1
:1018580000f0c6f8c3b2002bf8d0ff2404402100e2
:1018680001a8fff711fb210001a8fef7ebfeede749
:04187800000000204c
:020000040000fa
:10187c0010b50a480168002903d14368002b00d138
:10188c0010bd04008368064a9bb20c349b009b5825
:10189c0042682000984780002018ebe7c80b000036
:0418ac00ac1b000071
:020000040000fa
:1018b000f0b5050000200a4a4400a65c002e02d1c3
:1018c00012195078f0bd296801300f78c0b2b742c4
:1018d00003d112190131507829600a28ebd9f1e7b8
:0418e000461b0000a3
:020000040000fa
:1018e40070b505690400954200d91500002d0bd090
:1018f4002a00606900f062f9226963695b19551b6b
:0a1904000022636125611a7070bdb6
:020000040000fa
:10190e00002380290fdb812901dd83290bd10721db
:10191e00136807338b431900083111601a685b682e
:0a192e0002604360012318007047b7
:020000040000fa
:1019380010b5074b987bc0b23b229a73054b1b68c6
:10194800002b03d0034b59681b68984710bdc0464d
:0819580000300042740300207e
:020000040000fa
:1019600010b5074b987bc0b23b229a73054b1b689e
:10197000002b03d0034b59681b68984710bdc04625
:08198000002c00427c03002052
:020000040000fa
:1019880049422c5a0a0d000049422c46462c463042
:1019980030302530325825303258253032580a0d2b
:0419a8000000c04635
:020000040000fa
:1019ac00002310b5934206d103201840421e9041eb
:0e19bc009b08c01810bdc45ccc540133f2e788
:020000040000fa
:0219ca00fee736
:020000040000fa
:1019cc00054b9868db68984201d3c01a7047024aed
:0c19dc0012691018c01af9e7d8020020a8
:020000040000fa
:1019e800054ad36a906a834201d8c01a7047024aee
:0c19f800126b1018c01af9e7d80200208a
:020000040000fa
:101a0400054b9868db68984201d3c01a7047024ab4
:0c1a140012691018c01af9e7180300202e
:020000040000fa
:101a2000054ad36a906a834201d8c01a7047024ab5
:0c1a3000126b1018c01af9e71803002010
:020000040000fa
:101a3c00044b00221a609a60034a5a6004221a600e
:0c1a4c007047c04610e000e07fbb0000c7
:020000040000fa
:101a5800044a137802210b431370537e5bb2002ba8
:081a6800fbdb70470040004267
:020000040000fa
:101a7000044a137b02210b431373537e5bb2002b8a
:081a8000fbdb7047004000424f
:020000040000fa
:101a8800044b1b7e01221340181e01d0014b1a760d
:081a98007047c0460040004207
:020000040000fa
:101aa00010b5044a3424135ddbb210553c201154a8
:081ab000180010bdd80200204f
:020000040000fa
:101ab80010b5044a3424135ddbb210553c20115490
:081ac800180010bd18030020f6
:020000040000fa
:101ad000044a138802210b431380d37b5bb2002b93
:081ae000fbdb704700300042ff
:020000040000fa
:101ae800044a138802210b431380d37b5bb2002b7b
:081af800fbdb7047002c0042eb
:020000040000fa
:101b00000378002b06d0030001331a78002afbd19a
:081b1000181a70470020fce7e1
:020000040000fa
:101b180013b50400019201aafef7dafa6368db063e
:081b280001d50120404216bd69
:020000040000fa
:101b30000eb403b503aa02ca019200f04bf802b03a
:061b400008bc03b01847c9
:020000040000fa
:101b460068076c094c836a9074a07ac00080688824
:061b560000846c82008196
:020000040000fa
:101b5c0010b5034b1c69fff733ff013c201a10bd75
:041b6c00d80200207b
:020000040000fa
:101b700010b5034b1c69fff745ff013c201a10bd4f
:041b80001803002026
:020000040000fa
:101b8400034a137ddbb21075117718007047c04605
:041b94001803002012
:020000040000fa
:101b9800034b00229a601a6801210a431a607047b1
:041ba80010e000e069
:020000040000fa
:101bac00fd1b0000ad190000d91c0000d91c000061
:041bbc00d91c000030
:020000040000fa
:101bc00010b5002a05d00023cc5cc45401339342e5
:041bd000fad110bd79
:020000040000fa
:101bd40010b513000a000249fff79afc10bdc04675
:041be400ffffff7f81
:020000040000fa
:101be800002a06d00300c9b2821819700133934243
:041bf800fbd1704766
:020000040000fa
:101bfc008a18914201d10020704700230b700131eb
:021c0c00f7e7f8
:020000040000fa
:021c0e0070471d
:020000040000fa
:101c1000002801d0014b98637047c046d8020020cd
:020000040000fa
:101c2000002801d0014b98637047c046180300207c
:020000040000fa
:101c3000024b187e8007c00f7047c0460014004258
:020000040000fa
:101c4000002801d0014b98617047c046180300205e
:020000040000fa
:0e1c50000300413b192b01d820231843704795
:020000040000fa
:0e1c5e000300613b192b01d85f23184070472b
:020000040000fa
:0c1c6c00014b588b80b2704700400042d2
:020000040000fa
:0c1c7800014b82225a607047004000417e
:020000040000fa
:0c1c8400014b186259627047d802002022
:020000040000fa
:0c1c9000014b18625962704718030020d5
:020000040000fa
:0c1c9c00014b1860596070477403002071
:020000040000fa
:0c1ca800014b1860596070477c0300205d
:020000040000fa
:0c1cb400014b01221a7070470000002054
:020000040000fa
:0c1cc000014b01225a7070470000002008
:020000040000fa
:081ccc00286e696c2900250057
:020000040000fa
:041cd40024242400a0
:020000040000fa
:041cd8000020704731
:020000040000fa
:041cdc00002070472d
:020000040000fa
:041ce0000020704729
:020000040000fa
:041ce4000020704725
:020000040000fa
:0200000400807a
:0440000077c700d8a6
:020000040000fa
:0200000400807a
:044004005c00ffff5e
:00000001FF
