:020000040000fa
:10000000f03f0020852000008d2a0000932a000088
:1000100000000000000000000000000000000000e0
:10002000000000000000000000000000eb100000d5
:100030000000000000000000eb100000eb100000ca
:10004000eb100000eb100000eb100000eb100000c4
:10005000eb100000eb100000eb100000eb100000b4
:10006000eb100000eb100000eb100000eb100000a4
:1000700025060000eb10000021050000eb10000039
:10008000eb100000eb1000005923000019230000c2
:10009000eb1000000000000000000000eb1000006a
:1000a000eb100000eb100000eb100000eb10000064
:0800b00000000000eb1000004d
:020000040000fa
:1000b800f8b5c046f8bc08bc9e4670471d20000035
:1000c800f8b5c046f8bc08bc9e467047f51f00004e
:020000040000fa
:0800d8001808000001000000ff
:020000040000fa
:1000e0000023f0b506001500b1b0079103930799fe
:1000f0000b78002b00d10ce101235b420c9310ab79
:1001000000240e9380230b940d940f930b5d002b12
:1001100001d0252b2ad1002c06d02200300002f07d
:10012000effa079b1b190793079b1a78252a00d023
:10013000e4e0013304930793022301219c46102736
:10014000079803782b2b1ad025d8202b1ad0232bd5
:100150001dd02a2b28d002f01ff90d90079b1a788a
:10016000303a092a31d801330793f7e70134cde754
:100170000b9b05930b4301300b930790e0e704239f
:100180000b9a0fe00b9b0593059a08230ae00b9b43
:1001900005933b43efe72d2bead0302bd9d16246b4
:1001a0000b9b05931343e6e72b6801301a1d1b6870
:1001b00007902a600d93002b07da0b9a5b42059299
:1001c000012205990d934a400b920b9bda0702d549
:1001d000022293430b93079b1a782e2a0ed10022fa
:1001e000581c0c9207905a782a2a27d10233079379
:1001f0002b681a1d1b682a6005930c9307a802f050
:10020000cbf9079b0700187802f031fc692800d170
:1002100082e034dc632800d1dbe01adc252800d141
:10022000e8e0612858d0049b012207930023524242
:100230000c920b930d9300930232e5e002f0acf8c0
:100240000c90079b1a78303a092ad7d801330793c4
:10025000f7e7642860d06728e5dc2a00390008a8a1
:1002600002f063fa002800d1afe0079b0ba95a1ceb
:1002700007921b7808aa300002f012fc3de07028bb
:1002800000d17de016dc6e2800d197e06f28cad13e
:100290002b000022390008a800f0c8fe002800d179
:1002a00093e0079b08aa01330ba93000079302f0e3
:1002b000f5fb22e0752840d078284fd07328b2d1c2
:1002c000802f00d081e0079b2a6801330793131d1c
:1002d0002b601268002388e02a00390008a802f089
:1002e00024fa002800d170e0079b0ba95a1c079242
:1002f0001b7808aa300002f0d3fb2418039b1c19ba
:10030000a34200dc82e04f22414b1a6001235b4292
:100310000393039831b0f0bd2b000122390008a8e7
:1003200000f084fe002850d0079b08aa01330ba9d7
:100330003000079300f08effdfe72b00002239002a
:1003400008a800f073fe00283fd0079b08aa0133dd
:100350000ba93000079302f0a1fbcee72b0000228f
:10036000390008a800f062fe00282ed0079b5a1c16
:1003700007921b7808aa0ba9300002f091fbbce79a
:100380002b000022f02108a800f050fe00281cd00d
:10039000079b099a01330793089b13430cd11d4f08
:1003a000380002f0c3fa390002000b9b00930d9b4a
:1003b000300001f03bfaa0e77823dbe7039b39002c
:1003c0001a1908a82b0001f0c3fb079b0133079300
:1003d00094e7802ff9d1079b013307932b681a1def
:1003e0001b682a6008aa137001230ba9300002f0d1
:1003f00059fb82e7802fe8d10122079b0133079345
:100400000b9b049300930d9b0349d1e703946ee685
:0c04100034040020842a00008a2a000026
:020000040000fa
:10041c0080b500af3c4b3d4a1a603b4b08221a6139
:10042c00394a43230021d154374a4c230021d1545b
:10043c00354a4d230021d154334a50230021d15445
:10044c00314a51230221d1542f4a53230221d15432
:10045c002d4a54230121d1542b4a55230121d15427
:10046c00294a56230121d154274a5b230221d15416
:10047c00254a31230021d154234a36230021d1545b
:10048c00214a38230021d1541f4a39230021d15449
:10049c001d4a3a233321d1541b4a3b230321d15407
:1004ac00194a3d230021d154174980228123db00b6
:1004bc008b50154a90231649d150134ac32300215f
:1004cc00d154114ac8230121d1540f4aca23002107
:1004dc00d1540d4acb230621d1540b4ad6230121ea
:1004ec00d154094ab1230021d154074ab423012124
:1004fc00d154054ab5230021d154034abb2303210f
:10050c00d154c046bd4680bd0044004108300100b6
:04051c0008080000cb
:020000040000fa
:1005200080b582b000affb1d00221a703c4b9b7d52
:10053000dbb2002b00d16fe0394b1b7edbb21a001f
:1005400080231a40fb1d803a51424a411a70344bb5
:100550009b7ddbb21a0080231340802b05d1fb1d4d
:100560001b78002b01d0012200e00022fb1d1a7035
:100570001a7801210a401a70fb1d1b78002b01d04c
:1005800001f0bcfc264b1b7edbb21a0001231a4093
:10059000fb1d013a51424a411a70214b9b7ddbb24f
:1005a0001a0001231340012b05d1fb1d1b78002be2
:1005b00001d0012200e00022fb1d1a701a780121ef
:1005c0000a401a70fb1d1b78002b01d001f058fb6c
:1005d000134b1b7edbb21a0004231a40fb1d511e75
:1005e0008a411a700e4b9b7ddbb21a000423134024
:1005f00005d0fb1d1b78002b01d0012200e000225a
:10060000fb1d1a701a7801210a401a70fb1d1b7815
:10061000002b01d001f072ffc046bd4602b080bd84
:04062000001c004278
:020000040000fa
:1006240080b582b000affb1d00221a703c4b9b7d4d
:10063400dbb2002b00d16fe0394b1b7edbb21a001a
:1006440080231a40fb1d803a51424a411a70344bb0
:100654009b7ddbb21a0080231340802b05d1fb1d48
:100664001b78002b01d0012200e00022fb1d1a7030
:100674001a7801210a401a70fb1d1b78002b01d047
:1006840001f064fc264b1b7edbb21a0001231a40e6
:10069400fb1d013a51424a411a70214b9b7ddbb24a
:1006a4001a0001231340012b05d1fb1d1b78002bdd
:1006b40001d0012200e00022fb1d1a701a780121ea
:1006c4000a401a70fb1d1b78002b01d001f006fbb9
:1006d400134b1b7edbb21a0004231a40fb1d511e70
:1006e4008a411a700e4b9b7ddbb21a00042313401f
:1006f40005d0fb1d1b78002b01d0012200e0002255
:10070400fb1d1a701a7801210a401a70fb1d1b7810
:10071400002b01d001f00affc046bd4602b080bde7
:04072400001400427b
:020000040000fa
:1007280080b586b000af0200bb1d1a801323fb18ea
:1007380000221a70304b9b6a01337b612e4b1b6b76
:100748007a699a4201d300237b612b4bdb6a7a6971
:100758009a4217d1284b1b6a002b13d0264b5b6a91
:10076800fb60254b1b6afa68110001209847224b51
:100778009b6a01337b61204b1b6b7a699a4201d3d8
:1007880000237b611c4bdb6a7a699a422dd01b4b94
:100798005b6807221340012b0bd0174b9b6abb6089
:1007a800bb1d1b88d9b2164abb68d3180a1c1a701d
:1007b80014e0114b9b6a5b00bb60bb1d1b88d9b260
:1007c8000f4abb68d3180a1c1a70bb1d1b881b0a6a
:1007d8009ab2bb680133d1b2094ad154064b7a693f
:1007e8009a621323fb1801221a701323fb181b7833
:1007f8001800bd4606b080bd70030020001c0042f2
:0408080020010020ab
:020000040000fa
:10080c0080b586b000af0200bb1d1a801323fb1805
:10081c0000221a70304b9b6a01337b612e4b1b6b91
:10082c007a699a4201d300237b612b4bdb6a7a698c
:10083c009a4217d1284b1b6a002b13d0264b5b6aac
:10084c00fb60254b1b6afa68110001209847224b6c
:10085c009b6a01337b61204b1b6b7a699a4201d3f3
:10086c0000237b611c4bdb6a7a699a422dd01b4baf
:10087c005b6807221340012b0bd0174b9b6abb60a4
:10088c00bb1d1b88d9b2164abb68d3180a1c1a7038
:10089c0014e0114b9b6a5b00bb60bb1d1b88d9b27b
:1008ac000f4abb68d3180a1c1a70bb1d1b881b0a85
:1008bc009ab2bb680133d1b2094ad154064b7a695a
:1008cc009a621323fb1801221a701323fb181b784e
:1008dc001800bd4606b080bdb003002000140042d5
:0408ec0020020020c6
:020000040000fa
:1008f000f0b5060085b00f0015001c008b4265d8ce
:1009000001d1824262d82100280002f03ff839006c
:100910000090300002f03af8009b21001b1a1a00e8
:100920002800039302f026f800900191019bbb423e
:1009300046d802d1009bb34242d8009b019c039a47
:1009400001200021f61aa74102f014f8039b002ba6
:100950002fd0019b009adb0754081c43019b5d08c4
:10096000039b9c46bd422ed801d1b4422bd8320005
:100970003b00121bab41012692185b410027b618c1
:100980005f4101235b429c446346002bead18019fe
:100990007941039a04000d003000390001f0deffb8
:1009a000039a06000f0001f0e5ff241a8d41200094
:1009b00029000a9b002b01d01e605f6005b0f0bdce
:1009c00000200021c2e7b6197f41dae700200021ac
:0209d000efe74f
:020000040000fa
:0209d20070476c
:020000040000fa
:1009d40090b583b000af02003960fb1d1a70fb1d97
:1009e4001b787f2b28d82f4afb1d1b785bb29b08f2
:1009f400c0339b009b58fa1d1278110003220a4051
:100a0400d200ff2191400a00d2431a4011003b68f2
:100a14009b01ff221a40fb1d1b781800032303408f
:100a2400db009a401f48fb1d1b785bb29b080a43fe
:100a3400c0339b001a5031e01b4afb1d1b78190080
:100a44000f230b40083b9b0806339b00d318043349
:100a54001b68fa1d1278110003220a40d200ff21fc
:100a640091400a00d2431a4011003b689b01ff22c7
:100a74001a40fb1d1b78180003230340db009a4037
:100a84000948fb1d1b781c000f232340083b9b08cf
:100a94000a4306339b00c31804331a60c046bd469c
:0c0aa40003b090bd00e100e000ed00e0b8
:020000040000fa
:100ab00080b500af2f4b304a1a602e4b2f4a9a81d7
:100ac0002c4bc02292025a60c0462a4bdb69002b95
:100ad000fbd1284b1a68274b02210a431a60c046f3
:100ae000244bdb69002bfbd1254b00221a62244bdf
:100af00000229a62224b0022da62214b342200212a
:100b000099541f4b3c22002199541d4b00229a639b
:100b10001b4b0022da871a4b00221a60184b002266
:100b20009a60174b0022da60154b00221a75144b9d
:100b300000221a77124b00229a610e4b5b68072243
:100b40001340012b06d00e4b80221a630c4b8022df
:100b50001a6105e00a4b40221a63094b40221a61d0
:100b6000044b80229a75034b04229a75c046bd46f9
:100b700080bdc046001c0042040120402bf6ffff50
:040b800070030020de
:020000040000fa
:100b840080b500af2f4b304a1a602e4b2f4a9a8102
:100b94002c4bc02292025a60c0462a4bdb69002bc0
:100ba400fbd1284b1a68274b02210a431a60c0461e
:100bb400244bdb69002bfbd1254b00221a62244b0a
:100bc40000229a62224b0022da62214b3422002155
:100bd40099541f4b3c22002199541d4b00229a63c7
:100be4001b4b0022da871a4b00221a60184b002292
:100bf4009a60174b0022da60154b00221a75144bc9
:100c040000221a77124b00229a610e4b5b6807226e
:100c14001340012b06d00e4b80221a630c4b80220a
:100c24001a6105e00a4b40221a63094b40221a61fb
:100c3400044b80229a75034b04229a75c046bd4624
:100c440080bdc04600140042040131402bf6ffff72
:040c5400b0030020c9
:020000040000fa
:100c580080b500af0121012001f056fa012001f012
:100c6800cdfd0121012001f0d3fb012001f0d6fdcb
:100c78000121012001f026fa012001f0affd1d4bf2
:100c88001a681d4b1100180001f072fd194b1a6803
:100c98001a4b1100180001f059fd194b1a68194b2d
:100ca8001100180001f088fd174b1a68174b110046
:100cb800180001f06ffd01f085fc01f0bffd01f0a7
:100cc80005fd134b1a7801218a431a70104b1a78c4
:100cd80002218a431a700f4b00221a700d4b002212
:100ce8005a700c4b8022d2009a6000f093ffc046e5
:100cf800bd4680bd1c0400204d1e0000a51e00003e
:100d08002004002085280000240400206528000015
:080d1800280400200000002067
:020000040000fa
:100d200080b582b000af2b4b01221a70c046294b10
:100d30005b7edbb25bb2002bf9db274b1b68db0e63
:100d40007b60264b1b68072213403b607b689ab28e
:100d50003b689bb25b019bb213439bb21bb2ff2269
:100d600013401ab21d4b1b68db089bb21b0219b261
:100d7000e023db000b401bb213431ab2154b92b2b7
:100d80001a85144b0322da70124b02225a70114b4f
:100d9000134a1a61c0460f4b5b7edbb25bb2002b7d
:100da000f9db0c4bc12292009a80c046094b5b7e56
:100db000dbb25bb2002bf9db064b0f221a76c04682
:100dc000044b5b7edbb25bb2002bf9dbc046bd4659
:100dd00002b080bd0040004220608000246080009e
:040de00002180000f5
:020000040000fa
:100de40080b588b000af786039600023fb612a4b7e
:100df400db6abb61284b9b6a7b613fe0ba697b6914
:100e04009a4240d0254b5b6807221340012b0fd038
:100e14007a68fb69d3182249ba698a181278d2b25f
:100e24001a70fb690133fb61bb690133bb611ee0ce
:100e3400bb695b003b61fb695b00fb607a68fb6834
:100e4400d31817493a698a181278d2b21a703b69d2
:100e54005a1cfb6801337968cb1811498a5cd2b2f9
:100e64001a70bb690133bb61fb690133fb610a4b37
:100e74001b6bba699a4201d30023bb61fa693b68d0
:100e84009a42bbd300e0c046034bba69da62fb69fd
:100e94001800bd4608b080bd70030020001c00424d
:040ea4002001002009
:020000040000fa
:100ea80080b588b000af786039600023fb612a4bb9
:100eb800db6abb61284b9b6a7b613fe0ba697b694f
:100ec8009a4240d0254b5b6807221340012b0fd074
:100ed8007a68fb69d3182249ba698a181278d2b29b
:100ee8001a70fb690133fb61bb690133bb611ee00a
:100ef800bb695b003b61fb695b00fb607a68fb6870
:100f0800d31817493a698a181278d2b21a703b690d
:100f18005a1cfb6801337968cb1811498a5cd2b234
:100f28001a70bb690133bb61fb690133fb610a4b72
:100f38001b6bba699a4201d30023bb61fa693b680b
:100f48009a42bbd300e0c046034bba69da62fb6938
:100f58001800bd4608b080bdb00300200014004250
:040f68002002002043
:020000040000fa
:100f6c00f00300201c0000000000000070030020b3
:100f7c0040000000000000002001002000010000e3
:100f8c0000000000b0030020400000000000000042
:100f9c002002002000010000000000000c040020d2
:100fac001c000000000000000000002020010000d8
:100fbc00000000003c0400200100000001000000c3
:100fcc0001000000280400200400000000000000c4
:100fdc00380400200100000000000000390400204b
:100fec0003000000000000002c040020040000009e
:100ffc000000000020030020500000000000000052
:10100c003004002008000000000000000000000078
:10101c0000000000666666666666666666666666fc
:020000040000fa
:10102c0010b588293cd015dc81294dd003dc8029f2
:10103c004ad0002010bd822911d08429f9d1196819
:10104c00002a26d00a1d1a6000228b5e0360db1773
:10105c00436011e0a02930d010dc9029e9d1196847
:10106c000724002a2ed00919a1430a0008321a605d
:10107c000b684c68036044600120dbe7c02901d099
:10108c00f029d6d11a68111d19601368036000236a
:10109c00dee70c1d1c600b689bb203604260ebe743
:1010ac001968002a04d00a1d1a600023cb56cde71c
:1010bc000c1d1c600b68dbb2efe71a68111d196080
:1010cc001368c3e70731cfe71968002a03d00a1d5c
:0e10dc001a600b68bae70c1d1c600b68dde79c
:020000040000fa
:0210ea00fee71f
:020000040000fa
:1010ec0080b588b000af0200bb1d1a80264b9b68f0
:1010fc007b61254bdb683b611b23fb1800221a70bc
:10110c007b690133fb61204b1b69fa699a4201d35d
:10111c000023fb61fa693b699a422dd01b4b5b683b
:10112c0007221340012b08d0bb1d1b88d9b2184acb
:10113c007b69d3180a1c1a7017e07b695b00fb6093
:10114c00bb1d1b88d9b2124afb68d3180a1c1a7033
:10115c00fb680133fb60bb1d1b881b0a9bb2d9b219
:10116c000b4afb68d3180a1c1a70074bfa699a6071
:10117c001b23fb1801221a701b23fb181b78180069
:10118c00bd4608b080bdc04670030020001c004264
:04119c00a00100208e
:020000040000fa
:1011a00080b588b000af0200bb1d1a80264b9b683b
:1011b0007b61254bdb683b611b23fb1800221a7007
:1011c0007b690133fb61204b1b69fa699a4201d3a9
:1011d0000023fb61fa693b699a422dd01b4b5b6887
:1011e00007221340012b08d0bb1d1b88d9b2184a17
:1011f0007b69d3180a1c1a7017e07b695b00fb60df
:10120000bb1d1b88d9b2124afb68d3180a1c1a707e
:10121000fb680133fb60bb1d1b881b0a9bb2d9b264
:101220000b4afb68d3180a1c1a70074bfa699a60bc
:101230001b23fb1801221a701b23fb181b781800b4
:10124000bd4608b080bdc046b00300200014004277
:04125000a0020020d8
:020000040000fa
:10125400f0b54b6889b005930b6807009c4607936b
:10126400cb680c008e68049310685168cd0f44d08d
:101274000b000200002150429941059b002b08db22
:101284000222634693430793002d02d1079b5a071a
:101294002ad5731e07aa02920a22009301920b0018
:1012a4000200200000f03afb002d02d1079b5a07f0
:1012b4001ed501382d23002d00d1023b049a13546e
:1012c40023695a1e049b121a1918079b38000093ad
:1012d400330000f0a9fa7b68db0503d56368984204
:1012e40000da180009b0f0bd1b07db0ff31ad1e7d1
:1012f4001b07e5d501382023e0e7059b002bbfda67
:02130400c4e73c
:020000040000fa
:0213060070472e
:020000040000fa
:1013080080b500af002000f021fffff7a1fc00f03e
:10131800a7f9224b1b6a5b0cdb015bb2db115ab2eb
:101328001f4b111c0122080010401a7801218a4322
:10133800111c021c0a431a70184b1b6adb0cdb01d8
:101348005bb2db115ab2164b111c01220a409018ed
:101358001a7802218a43111c021c0a431a70104b86
:101368001a78104b1a700f4b1b78012b12d0032bd5
:101378000ad0002b10d10c4b00221a7001f090f902
:101388000a4b00221a7008e0074b02221a7000f07c
:10139800bdf902e0c046bae7c046b8e700440041dc
:1013a8002804002038040020390400203c040020d0
:020000040000fa
:1013b80080b588b000af78601f23fb1800221a7030
:1013c800234b9b687b61224bdb68bb617b683b617d
:1013d800ba697b699a4233d01e4b5b680722134077
:1013e800012b0ad01c4abb69d3181b78dab23b69b7
:1013f8001a70bb690133bb6114e0bb695b00fb6019
:10140800154afb68d3181b78dab23b691a70fb6877
:101418005a1c3b69013310498a5cd2b21a70bb6905
:101428000133bb610a4b1b69ba699a4201d3002395
:10143800bb61074bba69da601f23fb1801221a70d7
:101448001f23fb181b781800bd4608b080bdc04696
:0c14580070030020001c0042a0010020d6
:020000040000fa
:1014640080b584b000af786039600023fb6036e05b
:10147400254b5b6807221340012b0dd07a68fb686b
:10148400d3181b789bb21800fff72efe031e2bd037
:10149400fb680133fb6022e0fb685b0001337a6880
:1014a400d3181a780a203b181a803b183a18128865
:1014b40012021a80fb685b007a68d3181b7899b211
:1014c4003b183a1812880a431a803b181b881800e4
:1014d400fff70afe031e09d0fb680133fb60fa68bc
:1014e4003b689a42c4d302e0c04600e0c04600f024
:1014f40091fe031e02d0044b01229a75fb6818006a
:0c150400bd4604b080bdc046001c004283
:020000040000fa
:1015100080b588b000af78601f23fb1800221a70d6
:10152000234b9b687b61224bdb68bb617b683b6123
:10153000ba697b699a4233d01e4b5b68072213401d
:10154000012b0ad01c4abb69d3181b78dab23b695d
:101550001a70bb690133bb6114e0bb695b00fb60bf
:10156000154afb68d3181b78dab23b691a70fb681e
:101570005a1c3b69013310498a5cd2b21a70bb69ac
:101580000133bb610a4b1b69ba699a4201d300233c
:10159000bb61074bba69da601f23fb1801221a707e
:1015a0001f23fb181b781800bd4608b080bdc0463d
:0c15b000b003002000140042a002002044
:020000040000fa
:1015bc0080b584b000af786039600023fb6036e002
:1015cc00254b5b6807221340012b0dd07a68fb6812
:1015dc00d3181b789bb21800fff7dcfd031e2bd031
:1015ec00fb680133fb6022e0fb685b0001337a6827
:1015fc00d3181a780a203b181a803b183a1812880c
:10160c0012021a80fb685b007a68d3181b7899b2b7
:10161c003b183a1812880a431a803b181b8818008a
:10162c00fff7b8fd031e09d0fb680133fb60fa68b5
:10163c003b689a42c4d302e0c04600e0c04600f0ca
:10164c0045fe031e02d0044b01229a75fb6818005c
:0c165c00bd4604b080bdc0460014004232
:020000040000fa
:1016680080b500af244b5b78012b3bd1224b002285
:101678005a70224b1b78012b16d0022b1ad0002b44
:1016880032d11f4b1b780133dab21d4b1a701c4b39
:101698001b780a2b2ad91a4b00221a7019499c2246
:1016a8008023db008b5021e016499c228023db003d
:1016b8008b501ee0144b1b780133dab2124b1a70b0
:1016c800104998228023db008b500f4b1b78072b87
:1016d8000ed10d4b00221a700a4994228023db0098
:1016e8008b5005e0c04604e0c04602e0c04600e07a
:1016f800c046c046bd4680bd000000203904002019
:0c1708003a040020004400413b04002093
:020000040000fa
:1017140080b500af204b1b78012b0bd0022b20d0bf
:10172400002b35d100f0a8ff00f064ff1a4b012212
:101734001a702de0194b1b78012b28d1174b00226e
:101744001a7000f0a3fe031e21d001f03ff903003c
:101754001a00124b9a8000f04dff0f4b02221a70b0
:1017640015e00e4b9b881a000d490e4b180001f032
:1017740017f90c4b180001f0d7f80200094b1100bf
:101784001800fff719ff044b01221a7000e0c0464d
:10179400c046bd4680bdc0463c0400200000002079
:0817a4007c2a00000c0000206b
:020000040000fa
:1017ac0080b582b000af1c4b9b8c9bb21a4a802137
:1017bc008b439bb29384c046174bdb6810221340bb
:1017cc00102bf9d1154b1b689b0e7b607b683f2b54
:1017dc0001d07b6800e01f237b607b689b021b04ad
:1017ec001a0c0d4b802189000a439a62c0460a4ba1
:1017fc00db6810221340102bf9d1074b02229a847c
:10180c00c046054bdb6810221340102bf9d1c046a3
:10181c00bd4602b080bdc046000800402460800078
:020000040000fa
:10182c00f0b51d00012389b014000e9a06001a4071
:10183c000391029201d1a5420ad8220003993000eb
:10184c0000f058ffa54203d82500280009b0f0bdd0
:10185c002f1b01973a00102f00d91022202104a829
:10186c0001f0ecf8019b0f2b0ed80f2204a93a4083
:10187c00300000f03fff029b002be6d122000399c1
:10188c00300000f037ffe0e7102204a9300000f030
:0a189c0031ff019b103b0193e4e7cc
:020000040000fa
:1018a80080b588b000af78600023fb61184b5b6897
:1018b80001333b617b68174a5343fb60144b1b6839
:1018c80001221340012b1ed1114b9b687b6116e04e
:1018d8000f4b9b68bb607a69bb68d31abb61ba6857
:1018e8007b699a4205d93a69bb68d31a7a69d318d1
:1018f800bb61bb687b61fa69bb69d318fb61fa6994
:10190800fb689a42e4d3c046bd4608b080bdc046d5
:0819180010e000e080bb0000bc
:020000040000fa
:10192000f7b5040019000a9fe368666800933b68f6
:10193000100001932369013b1c00002e00da0126f0
:101940000022009dea5435000123002c03dc002b0b
:101950001cd02000febd02000a4309d1002d07dc87
:10196000089a921b5219002af1dd019a9207eed5ce
:10197000099b099adb1700f02ffd8c460099013c6a
:10198000130030320a55013d6146dee710233a6804
:061990009a433a60dde716
:020000040000fa
:1019980080b582b000af194b34229b5cdbb2002bc0
:1019a80027d000f015fc03007b60144b1b6a002b4a
:1019b8001fd0124b5b6a3b60104b3c229b5cdbb236
:1019c800002b0bd00d4b9b6b7a689a4211d30b4bb3
:1019d8001b6a3a681100002098470ae0074b9b6b86
:1019e8007a689a4205d1054b1b6a3a6811000020b3
:1019f8009847c046bd4602b080bdc046700300206f
:020000040000fa
:101a080080b582b000af194b34229b5cdbb2002b4f
:101a180027d000f03dfc03007b60144b1b6a002bb1
:101a28001fd0124b5b6a3b60104b3c229b5cdbb2c5
:101a3800002b0bd00d4b9b6b7a689a4211d30b4b42
:101a48001b6a3a681100002098470ae0074b9b6b15
:101a58007a689a4205d1054b1b6a3a681100002042
:101a68009847c046bd4602b080bdc046b0030020be
:020000040000fa
:101a780080b582b000af184b1b7ddbb2002b26d09f
:101a880000f01cff03007b60134b1b68002b1ed06b
:101a9800114b5b683b60104b1b7fdbb2002b0bd0fc
:101aa8000d4b9b697a689a4211d30b4b1b683a68b5
:101ab8001100032098470ae0074b9b697a689a420d
:101ac80005d1054b1b683a68110003209847c046aa
:0c1ad800bd4602b080bdc0467003002077
:020000040000fa
:101ae40080b582b000af184b1b7ddbb2002b26d033
:101af40000f0f4fe03007b60134b1b68002b1ed028
:101b0400114b5b683b60104b1b7fdbb2002b0bd08f
:101b14000d4b9b697a689a4211d30b4b1b683a6848
:101b24001100032098470ae0074b9b697a689a42a0
:101b340005d1054b1b683a68110003209847c0463d
:0c1b4400bd4602b080bdc046b0030020ca
:020000040000fa
:101b500010b584291fd007dc812915d0822922d015
:101b6000802911d0002010bd90291cd008dc8829c4
:101b7000f8d119680c1d1c600b6803601a7010e026
:101b8000a02901d0c029edd119680c1d1c600b687b
:101b900003601a6005e019680c1d1c600b68036087
:101ba0001a800120dfe719680c1d1c600b680360b8
:081bb0001a60d2175a60f4e735
:020000040000fa
:101bb80080b500af00f012fffff7f4fd00f02efd36
:101bc8000b4b0c4a5a800a4b0b4a5a80084b0b4a5b
:101bd8005a80074b0a4a5a80054b0a4a5a800a4bd0
:101be8000a4a1a620a4b00221a62c046bd4680bde4
:101bf800000c004017400000194000001b40000086
:101c08001c4000001e40000000040040a018010015
:041c18000008004080
:020000040000fa
:101c1c0080b500afc820fff741fe134b08225a6174
:101c2c00114a94230821d1500a20fff737fe0e4a9f
:101c3c0098230821d150c820fff730fe0a4aa02370
:101c4c00d358db0a0122134008d1084b01229a70a9
:101c5c00074b01221a70fff701fdfce7034b002232
:101c6c009a70c046bd4680bd004400410000002073
:041c7c003904002007
:020000040000fa
:101c800080b582b000af1de0bb1d1800fff794fbcc
:101c9000031e13d0114b5b6807221340012b06d0a3
:101ca000bb1d1b88dab20d4b92b21a8503e00b4aba
:101cb000bb1d1b881385fff7dffe03e0074b0122e6
:101cc0001a7507e0054b1b7edbb21a000123134097
:101cd000012bd9d0c046bd4602b080bd001c0042d9
:020000040000fa
:101ce00080b582b000af1de0bb1d1800fff710fcef
:101cf000031e13d0114b5b6807221340012b06d043
:101d0000bb1d1b88dab20d4b92b21a8503e00b4a59
:101d1000bb1d1b881385fff7e5fe03e0074b01227f
:101d20001a7507e0054b1b7edbb21a000123134036
:101d3000012bd9d0c046bd4602b080bd0014004280
:020000040000fa
:101d400000230e4a10b513600d4a13600d4a13604c
:101d50000d4a13600d4a13600d4a5362136101333b
:101d60009360fff7d0fafff7cefa0a4c0a4b9c4279
:101d700000d310bd08cc9847f8e7c04630040020d7
:101d80002c0300202803002020030020240300202f
:0c1d900030030020c4000000c800000068
:020000040000fa
:101d9c0080b500af114b01221a80c0460f4bdb7b84
:101dac00dbb25bb2002bf9db0c4bec22d2001a80bd
:101dbc000a4b0b4a1a83094b3b229a73094b00229c
:101dcc001a60064b01225a73c046044bdb7bdbb214
:101ddc005bb2002bf9dbc046bd4680bd0030004233
:081dec00ed3600000c0400209c
:020000040000fa
:101df40080b500af114b01221a80c0460f4bdb7b2c
:101e0400dbb25bb2002bf9db0c4bec22d2001a8064
:101e14000a4b0b4a1a83094b3b229a73094b002243
:101e24001a60064b01225a73c046044bdb7bdbb2bb
:101e34005bb2002bf9dbc046bd4680bd002c0042de
:081e44004e12000014040020fe
:020000040000fa
:101e4c00b0b586b000af02003960fb1d1a70114ba3
:101e5c009b78dbb2012b18d100f018fa0200172482
:101e6c003b191a703b191b78002b0ed03b191a78b2
:101e7c000c257b1911001800fff710f83b191a7884
:101e8c007b1911001800fff7e7fac046bd4606b0f3
:081e9c00b0bdc04600000020ab
:020000040000fa
:101ea400b0b586b000af02003960fb1d1a70114b4b
:101eb4009b78dbb2012b18d100f08cf902001724b7
:101ec4003b191a703b191b78002b0ed03b191a785a
:101ed4000c257b1911001800fef782ff3b191a78b4
:101ee4007b1911001800fff767fbc046bd4606b01a
:081ef400b0bdc0460000002053
:020000040000fa
:101efc0080b582b000af114b5b8b9ab2bb1d072132
:101f0c000a401a80bb1d1b88002b12d00c4bba1d2b
:101f1c001288da8700f03af9094b1b6a002b08d0bb
:101f2c00074b5b6a3b60064b1b6a3a681100022048
:101f3c009847c046bd4602b080bdc046001c00425a
:041f4c0070030020fe
:020000040000fa
:101f500080b582b000af114b5b8b9ab2bb1d0721dd
:101f60000a401a80bb1d1b88002b12d00c4bba1dd7
:101f70001288da8700f070f9094b1b6a002b08d031
:101f8000074b5b6a3b60064b1b6a3a6811000220f4
:101f90009847c046bd4602b080bdc046001400420e
:041fa000b00300206a
:020000040000fa
:101fa40030b51500012289b0524201920432ff3249
:101fb4000292002800d16846002403900491a142b3
:101fc40000d04c1e0594002906da4f220120074b4d
:101fd40040421a6009b030bd00220790027006909a
:101fe4001a00290001a800f0abfcf3e73404002038
:020000040000fa
:101ff40010b5064c2378002b07d1054b002b02d0db
:10200400044800e000bf0123237010bdf00300204a
:102014000000000000000000044b10b5002b03d0aa
:102024000349044800e000bf10bdc04600000000a2
:08203400f4030020000000008d
:020000040000fa
:10203c0080b500afbff35f8f62b603210c20fef7b3
:10204c00c3fc0c2000f03afa03210e20fef7bcfc76
:10205c000e2000f033fa03211220fef7b5fc1220fb
:10206c0000f02cfa03211320fef7aefc132000f035
:08207c0025fac046bd4680bdf7
:020000040000fa
:1020840010b50a4b98470a4b984700f069fa094b78
:10209400ff229343084a9360084b9847084b98479c
:1020a400084b9847fff72ef9fee7c046d309000016
:1020b400d30900000000000000ed00e0411d000015
:0820c400d3090000d30900005c
:020000040000fa
:1020cc0080b584b000af0200fb1d1a70bb1d0a1c4a
:1020dc001a700f203b180a4a3421525c1a70084bb4
:1020ec00fa1d342112785a54054bba1d3c21127832
:1020fc005a543b181b781800bd4604b080bdc0462e
:04210c00700300203c
:020000040000fa
:1021100080b584b000af0200fb1d1a70bb1d0a1c05
:102120001a700f203b180a4a3421525c1a70084b6f
:10213000fa1d342112785a54054bba1d3c211278ed
:102140005a543b181b781800bd4604b080bdc046e9
:04215000b0030020b8
:020000040000fa
:1021540080b582b000af78600d4b06225a60fef75e
:102164005bf9fff727fdfef70bfd00f043fc00f0e1
:102174006dfafef79bfcfef7d1fdfff739fefff782
:102184000bfefff759ffc046bd4602b080bdc046f6
:0421940000400041c6
:020000040000fa
:1021980080b582b000afbb1d00221a800b4b802295
:1021a8001a760a4b07225a8303e0084abb1d128d90
:1021b8001a80064b1b7edbb21a0004231340042b43
:1021c800f3d0c046bd4602b080bdc046001c0042e8
:020000040000fa
:1021d80080b584b000af0d4bdb6abb600b4b9b6acc
:1021e8007b607a68bb689a4204d37a68bb68d31a62
:1021f800fb6006e0054b1a6bbb68d31a7a68d318e4
:10220800fb60fb681800bd4604b080bd7003002069
:020000040000fa
:1022180080b584b000af0d4b9b68bb600b4bdb688f
:102228007b60ba687b689a4204d3ba687b68d31a21
:10223800fb6006e0054b1a697b68d31aba68d318a5
:10224800fb60fb681800bd4604b080bd7003002029
:020000040000fa
:1022580080b582b000afbb1d00221a800b4b8022d4
:102268001a760a4b07225a8303e0084abb1d128dcf
:102278001a80064b1b7edbb21a0004231340042b82
:10228800f3d0c046bd4602b080bdc046001400422f
:020000040000fa
:1022980080b584b000af0d4bdb6abb600b4b9b6a0b
:1022a8007b607a68bb689a4204d37a68bb68d31aa1
:1022b800fb6006e0054b1a6bbb68d31a7a68d31823
:1022c800fb60fb681800bd4604b080bdb003002069
:020000040000fa
:1022d80080b584b000af0d4b9b68bb600b4bdb68cf
:1022e8007b60ba687b689a4204d3ba687b68d31a61
:1022f800fb6006e0054b1a697b68d31aba68d318e5
:10230800fb60fb681800bd4604b080bdb003002028
:020000040000fa
:1023180080b582b000af0c4afb1d927b1a700a4b45
:102328003b229a73094b1b68002b09d0074b5b684b
:102338003b60064b1b683968fa1d127810009847f5
:10234800c046bd4602b080bd003000420c040020eb
:020000040000fa
:1023580080b582b000af0c4afb1d927b1a700a4b05
:102368003b229a73094b1b68002b09d0074b5b680b
:102378003b60064b1b683968fa1d127810009847b5
:10238800c046bd4602b080bd002c004214040020a7
:020000040000fa
:10239800030010b51a78202a0dd011000939042934
:1023a80009d900212b2a02d02d2a01d1013101336c
:1023b80000200a2404e00133ece760430133801a6b
:1023c8001a78303a092af8d9002900d1404210bdbc
:020000040000fa
:1023d800002b11d1002a0fd1002900d1002802d0ea
:1023e8000021c943081c07b4024802a14018029002
:1023f80003bdc046ad06000003b4684601b50298a7
:10240800fef772fa019b9e4602b00cbc7047c046ac
:020000040000fa
:1024180080b584b000af0200fb1d1a70bb1d0a1cfa
:102428001a700f217b18084a127d1a70064bfa1d84
:1024380012781a75044bba1d12781a777b181b7814
:0c2448001800bd4604b080bdb0030020a9
:020000040000fa
:102454001c2101231b04984201d3000c10391b0ad0
:10246400984201d3000a08391b09984201d3000994
:10247400043902a2105c40187047c04604030202eb
:0c24840001010101000000000000000048
:020000040000fa
:1024900080b582b000af0b4b1b7edbb21a0001236c
:1024a0001a40fb1d511e8a411a70fb1d1b78002b20
:1024b00002d0044b01221a76fb1d1b781800bd4682
:0824c00002b080bd00400042a3
:020000040000fa
:1024c80080b582b000af0200fb1d1a70fb1d1b789f
:1024d8007f2b09d8fb1d1b781a001f231a40044bb9
:1024e800012191400a001a60c046bd4602b080bd75
:0424f80000e100e01f
:020000040000fa
:1024fc0080b500af09e00a4b1b8d9bb21800fef7ac
:10250c000df9031e01d0fff741fa054b1b7edbb220
:10251c001a0004231340042bedd0c046bd4680bde9
:04252c00001c00424d
:020000040000fa
:1025300080b500af09e00a4b1b8d9bb21800fef777
:1025400065f9031e01d0fff75ffa054b1b7edbb276
:102550001a0004231340042bedd0c046bd4680bdb5
:042560000014004221
:020000040000fa
:1025640010b50a480168002903d14368002b00d143
:1025740010bd04008368064a9bb20c349b009b5830
:1025840042682000984780002018ebe76c0f000099
:042594000c2a00000d
:020000040000fa
:10259800f0b5050000200a4a4400a65c002e02d1ce
:1025a80012195078f0bd296801300f78c0b2b742cf
:1025b80003d112190131507829600a28ebd9f1e7c3
:0425c800ba2900002c
:020000040000fa
:1025cc0080b500af084b1b78dbb2074a02210b43e6
:1025dc00dbb21370c046044b5b7edbb25bb2002bec
:0c25ec00f9dbc046bd4680bd0040004247
:020000040000fa
:1025f80080b500af084b1b7bdbb2074a02210b43b7
:10260800dbb21373c046044b5b7edbb25bb2002bbc
:0c261800f9dbc046bd4680bd004000421a
:020000040000fa
:1026240080b500af074b084a5a60c046054b5b783b
:10263400dbb21a0080231340802bf7d0c046bd467e
:0c26440080bdc046000c004000070100f3
:020000040000fa
:1026500080b500af074b00221a60064b00229a603b
:10266000044b054a5a60034b04221a60c046bd461b
:0c26700080bdc04610e000e07fbb000011
:020000040000fa
:10267c0080b500af084b1b889bb2074a02210b4365
:10268c009bb21380c046044bdb7bdbb25bb2002bee
:0c269c00f9dbc046bd4680bd00300042a6
:020000040000fa
:1026a80080b500af084b1b889bb2074a02218b43b9
:1026b8009bb21380c046044bdb7bdbb25bb2002bc2
:0c26c800f9dbc046bd4680bd003000427a
:020000040000fa
:1026d40080b500af084b1b889bb2074a02210b430d
:1026e4009bb21380c046044bdb7bdbb25bb2002b96
:0c26f400f9dbc046bd4680bd002c004252
:020000040000fa
:1027000070b505690400954200d91500002d0bd065
:102710002a00606900f084f9226963695b19551b1e
:0a2720000022636125611a7070bd8c
:020000040000fa
:10272a00002380290fdb812901dd83290bd10721b1
:10273a00136807338b431900083111601a685b6804
:0a274a00026043600123180070478d
:020000040000fa
:1027540080b582b000af78603960054b7a681a6240
:10276400034b3a685a62c046bd4602b080bdc046bb
:0427740070030020ce
:020000040000fa
:1027780080b582b000af78603960054b7a681a621c
:10278800034b3a685a62c046bd4602b080bdc04697
:04279800b00300206a
:020000040000fa
:10279c0080b582b000af78603960054b7a681a60fa
:1027ac00034b3a685a60c046bd4602b080bdc04675
:0427bc000c040020e9
:020000040000fa
:1027c00080b582b000af78603960054b7a681a60d6
:1027d000034b3a685a60c046bd4602b080bdc04651
:0427e00014040020bd
:020000040000fa
:1027e40080b582b000af78607b68002b02d0034bc9
:1027f4007a689a63c046bd4602b080bd700300206b
:020000040000fa
:1028040080b582b000af78607b68002b02d0034ba8
:102814007a689a63c046bd4602b080bdb00300200a
:020000040000fa
:1028240080b582b000af78607b68002b02d0034b88
:102834007a689a61c046bd4602b080bdb0030020ec
:020000040000fa
:1028440080b500af054b00229a60044b1a68034b15
:1028540001210a431a60c046bd4680bd10e000e075
:020000040000fa
:1028640080b582b000af02003960fb1d1a70034bc3
:1028740001221a70c046bd4602b080bd000000208f
:020000040000fa
:1028840080b582b000af02003960fb1d1a70034ba3
:1028940001225a70c046bd4602b080bd000000202f
:020000040000fa
:1028a400002310b5934206d103201840421e9041e4
:0e28b4009b08c01810bdc45ccc540133f2e781
:020000040000fa
:1028c400b0b500af044b1c6900f016f80300e31a1e
:0c28d400013b1800bd46b0bd70030020a1
:020000040000fa
:1028e000b0b500af044b1c6900f014f80300e31a04
:0c28f000013b1800bd46b0bdb003002045
:020000040000fa
:1028fc0080b582b000affff789fc03007b607b687a
:08290c001800bd4602b080bdb9
:020000040000fa
:1029140080b582b000affff7ddfc03007b607b680d
:082924001800bd4602b080bda1
:020000040000fa
:10292c000378002b06d0030001331a78002afbd160
:08293c00181a70470020fce7a7
:020000040000fa
:1029440013b50400019201aafdf7c8fb6368db0616
:0829540001d50120404216bd2f
:020000040000fa
:10295c00d0400b1cd1409c46203ad34018435242e5
:08296c006346934018437047d5
:020000040000fa
:102974009140031c90409c46203a93401943524294
:082984006346d340194370477c
:020000040000fa
:10298c0010b5002903d1fff75ffd203002e0081cd1
:08299c00fff75afd10bdc04613
:020000040000fa
:1029a4000eb403b503aa02ca019200f041f802b0c2
:0629b40008bc03b0184747
:020000040000fa
:1029ba0068076c094c836a9074a07ac000806888a2
:0629ca0000846c82008114
:020000040000fa
:1029d00080b500af024b5b8b9bb21800bd4680bd3b
:0429e0000040004271
:020000040000fa
:1029e40080b500af024b00229a61c046bd4680bd4f
:0429f4000008004097
:020000040000fa
:1029f80080b500af024b82225a60c046bd4680bdfa
:042a08000040004149
:020000040000fa
:102a0c005d2a0000a5280000992a0000992a0000e0
:042a1c00992a0000f3
:020000040000fa
:102a200010b5002a05d00023cc5cc4540133934276
:042a3000fad110bd0a
:020000040000fa
:102a340010b513000a000249fff7b2fa10bdc046f0
:042a4400ffffff7f12
:020000040000fa
:102a4800002a06d00300c9b28218197001339342d4
:042a5800fbd17047f7
:020000040000fa
:102a5c008a18914201d10020704700230b7001317c
:022a6c00f7e78a
:020000040000fa
:0e2a6e000300413b192b01d820231843704769
:020000040000fa
:082a7c003c202564203e00000f
:020000040000fa
:082a8400286e696c2900250091
:020000040000fa
:062a8c0080b500affee77b
:020000040000fa
:062a920080b500affee775
:020000040000fa
:042a98000020704763
:020000040000fa
:042a9c00002070475f
:020000040000fa
:042aa000002070475b
:020000040000fa
:042aa4000020704757
:020000040000fa
:042aa8007047c0466d
:020000040000fa
:0200000400807a
:0440000077c700d8a6
:020000040000fa
:0200000400807a
:044004005c00ffff5e
:00000001FF
