:020000040000fa
:10000000f03f0020b525000087130000971c00007a
:1000100000000000000000000000000000000000e0
:10002000000000000000000000000000a31f00000e
:100030000000000000000000a31f0000a31f00003c
:10004000a31f0000a31f0000a31f0000a31f0000a8
:10005000a31f0000a31f0000a31f0000a31f000098
:10006000a31f0000a31f0000a31f0000a31f000088
:1000700099230000a31f000045230000a31f0000d8
:10008000a31f0000a31f0000b12a0000892a00005e
:10009000a31f00000000000000000000a31f0000dc
:1000a000a31f0000a31f0000a31f0000a31f000048
:0800b00000000000a31f000086
:020000040000fa
:1000b800f8b5c046f8bc08bc9e46704795250000b8
:1000c800f8b5c046f8bc08bc9e4670476d250000d0
:020000040000fa
:0800d800cc1100000100000042
:020000040000fa
:1000e000f0b58bb0040001910292242901d80129b6
:1000f00003d11622b84b1a6056e0e36be26c9342d0
:1001000024d25a1ce2631d78202df6d02b00093b27
:10011000042bf2d90222223b934300220392934202
:100120000bd12d3d6b425d416b420393e26ce36b5f
:10013000934210d25a1ce2631d78019be26c002ba3
:100140000ed0102b54d1302d0cd051e0200002f0f5
:10015000cbf80500d8e7200002f0c6f80500ece770
:10016000302d43d1e36b934224d25a1ce2631d78b5
:1001700020232b43782b2ed1e36be26c93421ed2cb
:100180005a1ce2631d781022944b01925b5d0f2b89
:1001900000d8c7e0e36c002b00d1a9e1029ae36b21
:1001a000002a11d0023be36300260027300039000b
:1001b0000bb0f0bd200002f097f80500d8e7200052
:1001c00002f092f80500dee7013be3630021200026
:1001d00002f00afde8e7019b002b00d1a0e0019ba3
:1001e0000a2b00d09ee0002302931de00a23019316
:1001f0007a4b01995b5d8b42f1d3002a02d0e36b0d
:10020000013be3630021200002f0eefc71e70a23ca
:10021000029a5343e26c5d19e36b303d02959342c1
:1002200068d25a1ce2631d782b00303b092b03d89f
:100230006b4b029a9a42ead90027029e2b00303b70
:100240000293092b33d8674b9f4213d802d1664bd8
:100250009e420fd800230a223000390002f036fafd
:10026000029b049300230593049bdb434a1c46d165
:10027000984244d9594b019a5b5d934217d2e36b84
:10028000e26c934200d318e15a1ce2631878534b96
:10029000019a1b5c9342f2d3109e119f22224e4b77
:1002a0001a600123109a134201d000230393e36cd8
:1002b000002b02d0e36b013be363119bbb4200d9ef
:1002c0000ce103d1109bb34200d907e10123109a3e
:1002d000134200d0f5e0039b002b00d0f1e0222276
:1002e00001267642f7173c4b1a60109b119cf618ba
:1002f00067415be7200001f0f7ff050094e7e36b3f
:10030000e26c049e059f36184f41934203d25a1c5b
:10031000e2631d7892e7200001f0e6ff05008de71b
:1003200008230193019b5e1e3340029300d0bce082
:10033000019a173353432d4a1b065b0fd35c04937a
:10034000264b019a5b5d9a4203d9294a0299914250
:100350002bd9049a01204042c11702f0cbfc0027a0
:10036000029e089006911d4b5b5d0293029a019bd1
:10037000934200d87ee7069b9f4200d97ae703d1db
:10038000089b9e4200d975e7049a3000390002f0bc
:10039000bdfc029be26c03431e00e36b0f00934223
:1003a00015d25a1ce2631d78dde7029e049a96403e
:1003b000e26c1e43e36b0296934203d25a1ce26343
:1003c0001d78bde7200001f08fff0500b8e7200091
:1003d00001f08aff0500c6e734040020c40d0000c8
:1003e000989999199999991999999999ba0d00001b
:1003f000ffffff07029e019a5643f3180293e26c37
:10040000e36b93424cd25a1ce2631d783c4b019a39
:100410005b5d9a4203d93b4a02999142ead900278f
:10042000029e374b5b5d0293029a019b934200d878
:1004300020e7002f17d01a0000233000190002f027
:1004400045f9002304913a001900019802f03ef9a1
:10045000049b089300230993089a099b801859412b
:10046000002900d006e73b0032000198002102f08d
:100470002df9029b069300230793069bdb434a1c3e
:1004800002d1984200d9f5e6069e079fe36be26c25
:1004900036184f4193420bd25a1ce2631d78c0e7d5
:1004a000200001f021ff0500b0e700230293ade733
:1004b000200001f019ff0500b3e7200001f014ff50
:1004c000e5e6119b9f4203d808d1109b9e4205d9b7
:1004d000109e119f22220c4b1a6067e6039b01338a
:1004e00000d063e633003c0000275e42a7415de692
:1004f000029b00260027002b00d057e666e6c04688
:0c050000c40d0000c6711c07340400206c
:020000040000fa
:10050c000023f0b505001600f1b007910893049391
:10051c00079b1b78002b67d0002309930a930b933e
:10052c000eab0c93802307a928000d9302f04afa16
:10053c000400079b1a78002a01d0252a41d1089a79
:10054c00141908941a78252a31d100245a1c0792c0
:10055c000b945a782a2a02d1023307930134079854
:10056c0002f0f0f801000b90280002f037fb079b1b
:10057c001a78303a092a4dd907a802f009fa079bd4
:10058c000700187802f0a2fc672865dc652800db00
:10059c00cce0612800d1c9e03fdc079b252800d1c5
:1005ac00f3e05b2800d10ee1079b01330793039b1b
:1005bc00013300d0fae0049b002b15d1013b0493ce
:1005cc0012e0eb6bea6c934211d25a1cea631b7873
:1005dc000393079b039a1b7893420fd0eb6c002b71
:1005ec0002d0eb6b013beb63049871b0f0bd2800bb
:1005fc0001f074fe030003900133ead1089b07a9b4
:10060c0001330893079b28000133079302f0daf9b2
:10061c0024188ee701330793a9e7632800d199e0ea
:10062c006428c1d108ab09aa2ea9280002f0faf956
:10063c00002800da6be1079b01330793002c00d0f4
:10064c00b4e03300012239002ea801f029fc041e6d
:10065c0069da631cafd0c7e7702843d00bdc6e2877
:10066c0052d031dc69289fd108ab09aa2ea92800e9
:10067c0000f0eefadce7752815d078282bd073281b
:10068c0000d091e7802f00d08ee7079b01330793b2
:10069c0000239c4203d133681a1d32601b680093ff
:1006ac00012208ab6ce008ab09aa2ea9280002f0c5
:1006bc0058fc002800da2ae1079b01330793002c31
:1006cc0074d133002200bee708ab09aa2ea928007a
:1006dc0002f047fcede708ab09aa2ea9280002f0ae
:1006ec0040fce6e708ab09aa2ea9280002f039fc69
:1006fc00002800da0be1079b01330793002c55d13e
:10070c0033002200f0219fe7079b01330793089bde
:10071c002e93db172f93002c48d133002200390085
:10072c002ea801f0bdfb049b1b19f0e608ab09aa2f
:10073c002ea9280002f015fc002800dae7e0079b40
:10074c0001330793002c31d1320039002ea801f06f
:10075c00bbfe7ce7802f00d026e70b9b0593002b7c
:10076c0001d101330b93079b0133079300239c4268
:10077c0003d133681a1d32601b680022009308ab4a
:10078c0009a9280001f0eef961e7802f00d00be7f2
:10079c0001330793ea6ceb6b934209d25a1cea6360
:1007ac001878252808d1089b013308930024bae750
:1007bc00280001f093fdf4e7eb6c002bf6d0eb6b0b
:1007cc00013beb63f2e7802f00d0ede60027bc4243
:1007dc0003d13268111d316017685a1c07925a7880
:1007ec0000245e2a02d10233079301340222210035
:1007fc00ff322ea802f036fba821002304aa5218bf
:10080c001370079b1a782d2a1ed1013307930123ed
:10081c00a93204a91b1b5218137007990b785d2b76
:10082c001cd10024a74240d1eb6bea6c934269d2f5
:10083c005a1cea631b780393039a2eab9b185c78c3
:10084c00002c5bd105943fe05d2ae6d10133079380
:10085c00012304aa07321b1bff32dde7002be0d07b
:10086c002d2b09d00122079b2ea819789b18411813
:10087c00101b48700793d0e7089b1b78002bf1d016
:10088c005d2befd04b1c0793069b1b78487883425b
:10089c00e8da01220133101b2eaa9854f6e7039bc9
:1008ac003b55089b013401330893eb6bea6c0594c0
:1008bc0093421ed25a1cea631b780393039a2eab05
:1008cc009b185b78002bead1eb6c002b02d0eb6b06
:1008dc00013beb63079b01330793059b002b00d176
:1008ec0062e6002f00d15fe60023059a0124bb5479
:1008fc0019e7280001f0f2fc0390dfe7089b0133b5
:10090c00089391e7280001f0e9fc039094e70400b8
:02091c009fe654
:020000040000fa
:02091e00704720
:020000040000fa
:100920000023f0b506001500b1b0079103930799b5
:100930000b78002b00d10ce101235b420c9310ab30
:1009400000240e9380230b940d940f930b5d002bca
:1009500001d0252b2ad1002c06d02200300001f036
:1009600076ff079b1b190793079b1a78252a00d04f
:10097000e4e0013304930793022301219c461027ee
:10098000079803782b2b1ad025d8202b1ad0232b8d
:100990001dd02a2b28d001f0dbfe0d90079b1a7882
:1009a000303a092a31d801330793f7e70134cde70c
:1009b0000b9b05930b4301300b930790e0e7042357
:1009c0000b9a0fe00b9b0593059a08230ae00b9bfb
:1009d00005933b43efe72d2bead0302bd9d162466c
:1009e0000b9b05931343e6e72b6801301a1d1b6828
:1009f00007902a600d93002b07da0b9a5b42059251
:100a0000012205990d934a400b920b9bda0702d500
:100a1000022293430b93079b1a782e2a0ed10022b1
:100a2000581c0c9207905a782a2a27d10233079330
:100a30002b681a1d1b682a6005930c9307a801f008
:100a4000adff079b0700187802f046fa692800d12d
:100a500082e034dc632800d1dbe01adc252800d1f9
:100a6000e8e0612858d0049b0122079300235242fa
:100a70000c920b930d9300930232e5e001f068feb7
:100a80000c90079b1a78303a092ad7d8013307937c
:100a9000f7e7642860d06728e5dc2a00390008a859
:100aa00001f0ddff002800d1afe0079b0ba95a1c25
:100ab00007921b7808aa300002f055fa3de0702832
:100ac00000d17de016dc6e2800d197e06f28cad1f6
:100ad0002b000022390008a800f006fe002800d1f3
:100ae00093e0079b08aa01330ba93000079302f09b
:100af00038fa22e0752840d078284fd07328b2d138
:100b0000802f00d081e0079b2a6801330793131dd3
:100b10002b601268002388e02a00390008a801f041
:100b20009eff002800d170e0079b0ba95a1c07927a
:100b30001b7808aa300002f016fa2418039b1c192f
:100b4000a34200dc82e04f22414b1a6001235b424a
:100b50000393039831b0f0bd2b000122390008a89f
:100b600000f0c2fd002850d0079b08aa01330ba952
:100b70003000079300f017fedfe72b00002239005a
:100b800008a800f0b1fd00283fd0079b08aa013358
:100b90000ba93000079302f0e4f9cee72b00002206
:100ba000390008a800f0a0fd00282ed0079b5a1c91
:100bb00007921b7808aa0ba9300002f0d4f9bce711
:100bc0002b000022f02108a800f08efd00281cd088
:100bd000079b099a01330793089b13430cd11d4fc0
:100be000380002f063f8390002000b9b00930d9b64
:100bf000300001f099f9a0e77823dbe7039b390087
:100c00001a1908a82b0001f079fa079b0133079302
:100c100094e7802ff9d1079b013307932b681a1da6
:100c20001b682a6008aa137001230ba9300002f088
:100c30009cf982e7802fe8d10122079b01330793bb
:100c40000b9b049300930d9b0349d1e703946ee63d
:0c0c500034040020482f00004e2f00004c
:020000040000fa
:100c5c00f0b51f00936889b00393136904000493e3
:100c6c00d3680591019301f0cdfd3b681818039be7
:100c7c003860002b02d1049b013b03930a230093a1
:100c8c0000231e000293039b9e4241da049b013b0e
:100c9c00b3423ddde36be26c93420fd25a1ce2632c
:100cac001d782b0002222b3b9343334311d1019b24
:100cbc001d703b6801333b600123e2e7200001f02b
:100ccc000dfb0500431cecd1002e21d1280009b0ee
:100cdc00f0bd029b9e4209d1731c0293009b0a2b10
:100cec002cd1023b302d54d0002302932b00303bef
:100cfc00092b48d9009b102b04d1280001f060ff70
:100d0c00002847d1e36c002b02d0e36b013be3637b
:100d1c000023019a9355009b0a2b42d11a0007a974
:100d2c00019802f081f8059b019a18605960079ba5
:100d3c0001259342cad102256d42c7e7009b082bbf
:100d4c00d2d118332b43782bced1e36be26c934288
:100d5c0015d25a1ce2631878e36c002b02d0e36bbb
:100d6c00013be36301f02cff0028cbd0019b9d5588
:100d7c003b68013601333b601023009383e720006e
:100d8c0001f0acfae8e7009b082b03d1372d01dd0d
:100d9c0002330093019b9d553b68013601333b6048
:0e0dac0071e7009a07a9019802f034f8bbe73e
:020000040000fa
:100dba00000102040703060500ffffffffffffff14
:100dca00ffffffffffffffffffffffffffffffff29
:100dda00ffffffffffffffffffffffffffffffff19
:100dea00ffffffffffffffffffff000102030405f4
:100dfa0006070809ffffffffffffff0a0b0c0d0e96
:100e0a000f101112131415161718191a1b1c1d1e70
:100e1a001f20212223ffffffffffff0a0b0c0d0eed
:100e2a000f101112131415161718191a1b1c1d1e50
:100e3a001f20212223ffffffffffffffffffffff0e
:100e4a00ffffffffffffffffffffffffffffffffa8
:100e5a00ffffffffffffffffffffffffffffffff98
:100e6a00ffffffffffffffffffffffffffffffff88
:100e7a00ffffffffffffffffffffffffffffffff78
:100e8a00ffffffffffffffffffffffffffffffff68
:100e9a00ffffffffffffffffffffffffffffffff58
:100eaa00ffffffffffffffffffffffffffffffff48
:0a0eba00ffffffffffffffffffff38
:020000040000fa
:100ec400f0b5de4657464e464546e0b583b080460b
:100ed40000296ed00024384f0726384b9c469b4689
:100ee4009946009108e03648415549468a60621c9b
:100ef4000134009991424cd97a683240012a16d0c3
:100f04009d68da6892466a1c19698a4289410a40d6
:100f140092453fd04146095d786830400128e2d1ce
:100f24006d0027484155013500214155dde76246f2
:100f34009568d26892466a1c614609698a42894169
:100f44000a40924526d0610001204044405c0002e2
:100f540082464046415c50460143019178683040e6
:100f6400012809d0694609798a46154950464855e9
:100f740059468a60621cbbe7690068460079104dd7
:100f8400aa4668540d0001350199090a5046415595
:100f9400eee7140001f0d2fd002802d0064b012236
:100fa4009a75200003b03cbc90469946a246ab46d5
:100fb400f0bd0c00eee7c046001c004270030020a8
:040fc400a001002068
:020000040000fa
:100fc800f0b5de4657464e464546e0b583b0804606
:100fd80000296ed00024384f0726384b9c469b4684
:100fe8009946009108e03648415549468a60621c96
:100ff8000134009991424cd97a683240012a16d0be
:101008009d68da6892466a1c19698a4289410a40d1
:1010180092453fd04146095d786830400128e2d1c9
:101028006d0027484155013500214155dde76246ed
:101038009568d26892466a1c614609698a42894164
:101048000a40924526d0610001204044405c0002dd
:1010580082464046415c50460143019178683040e1
:10106800012809d0694609798a46154950464855e4
:1010780059468a60621cbbe7690068460079104dd2
:10108800aa4668540d0001350199090a5046415590
:10109800eee7140001f06cfd002802d0064b012297
:1010a8009a75200003b03cbc90469946a246ab46d0
:1010b800f0bd0c00eee7c04600140042b00300206b
:0410c800a002002062
:020000040000fa
:1010cc00f0b5d6464f464646c0b50426344da84624
:1010dc00a946334b9a465be04a46126a002a42d034
:1010ec00796a3b6a01209847bb6a01333a6b934299
:1010fc009241134037e05246926a5200e0b22949bd
:10110c0088540132240a8c543ce001f021fd244b1c
:10111c001b6a002bddd0224b596a3c23204ad35c3e
:10112c00002b06d0936b9842d3d3136a00209847b8
:10113c00cfe71b4b9b6b9842cbd1194b1b6a002002
:10114c009847c6e7184b1b7e334223d0164b1c8d99
:10115c00a4b2ab6a01332a6b9342924113404246cc
:10116c00d26a9a42b8d00e4ad26a9a42ead00e4a51
:10117c00516807220a40012abdd0094a926ae4b29a
:10118c0008498c54064a93623423d35c002bbcd19f
:10119c00034fd7e71cbc90469946a246f0bdc0460b
:0c11ac007003002020010020001c004205
:020000040000fa
:1011b800f0b5d6464f464646c0b50426344da84637
:1011c800a946334b9a465be04a46126a002a42d047
:1011d800796a3b6a01209847bb6a01333a6b9342ac
:1011e8009241134037e05246926a5200e0b22949d0
:1011f80088540132240a8c543ce001f0c7fc244b8b
:101208001b6a002bddd0224b596a3c23204ad35c51
:10121800002b06d0936b9842d3d3136a00209847cb
:10122800cfe71b4b9b6b9842cbd1194b1b6a002015
:101238009847c6e7184b1b7e334223d0164b1c8dac
:10124800a4b2ab6a01332a6b9342924113404246df
:10125800d26a9a42b8d00e4ad26a9a42ead00e4a64
:10126800516807220a40012abdd0094a926ae4b2ad
:1012780008498c54064a93623423d35c002bbcd1b2
:10128800034fd7e71cbc90469946a246f0bdc0461e
:0c129800b00300202002002000140042df
:020000040000fa
:1012a400f0b5060085b00f0015001c008b4265d810
:1012b40001d1824262d82100280001f031fd3900b9
:1012c4000090300001f02cfd009b21001b1a1a0035
:1012d4002800039301f018fd00900191019bbb428b
:1012e40046d802d1009bb34242d8009b019c039a8a
:1012f40001200021f61aa74101f006fd039b002bf3
:101304002fd0019b009adb0754081c43019b5d0806
:10131400039b9c46bd422ed801d1b4422bd8320047
:101324003b00121bab41012692185b410027b61803
:101334005f4101235b429c446346002bead1801940
:101344007941039a04000d003000390001f0d0fc0b
:10135400039a06000f0001f0d7fc241a8d412000e7
:1013640029000a9b002b01d01e605f6005b0f0bd10
:1013740000200021c2e7b6197f41dae700200021ee
:02138400efe791
:020000040000fa
:02138600fee780
:020000040000fa
:10138800f0b5ce46474680b583b00125314ca0461e
:10139800314a304eff23994616e058002f4f3f5ce4
:1013a800bc466f466146b97101302c49085cf8713a
:1013b80001331ae06b4606331b8849460b401385f8
:1013c800244b1b7d002b20d1137e2b423dd0a068df
:1013d800e368984236d05768072038400128dcd0a7
:1013e8001e48c75c68468771013330698342804173
:1013f80003401848c360506807230340012bd9d124
:101408006b4606331b881385dae701f0b5fc114bf0
:101418001b68002bbcd0434659681b7f002b08d0a3
:101428000c4b9b699842b3d30a4b1b68032098471f
:10143800aee7084b9b699842aad1064b1b6803206c
:101448009847a5e7044b01221a7503b00cbc9046d7
:101458009946f0bd70030020001c0042a001002046
:020000040000fa
:10146800f0b5ce46474680b583b00125314ca0463d
:10147800314a304eff23994616e058002f4f3f5c03
:10148800bc466f466146b97101302c49085cf87159
:1014980001331ae06b4606331b8849460b40138517
:1014a800244b1b7d002b20d1137e2b423dd0a068fe
:1014b800e368984236d05768072038400128dcd0c6
:1014c8001e48c75c68468771013330698342804192
:1014d80003401848c360506807230340012bd9d143
:1014e8006b4606331b881385dae701f04ffc114b76
:1014f8001b68002bbcd0434659681b7f002b08d0c3
:101508000c4b9b699842b3d30a4b1b68032098473e
:10151800aee7084b9b699842aad1064b1b6803208b
:101528009847a5e7044b01221a7503b00cbc9046f6
:101538009946f0bdb003002000140042a00200202c
:020000040000fa
:1015480010b5304b1a78042a0ad893002e4ad3587b
:101558009f4601f08ffb01f05dfb2a4b01221a70b8
:101568002a4b9a889b689a4247dd294b04229a6144
:1015780010bd264b1b78012bf2d1244b00221a7088
:1015880001f054fb0028ebd001f0aafc1f4b988017
:1015980001f040fb1b4b02221a70e1e71c4aa02312
:1015a800d3581b05db0f194ca2880c3419492000ad
:1015b80001f0c0fb200001f075fb01002000fff7df
:1015c800fffc104b03221a70cae700f05ffd0128e8
:1015d80003d00c4b01221a70c2e70a4b04221a707e
:1015e800bee70d4bda1dff32180085300b4901f0bc
:1015f800acfb044b01221a70b2e7054b04225a6176
:10160800b6e7c0463c040020d02d000000000020b2
:1016180000440041e42d000008000020f02d0000e7
:020000040000fa
:10162800f00300201c000000000000002001002042
:1016380000010000000000007003002040000000ce
:10164800000000002002002000010000000000004f
:10165800b003002040000000000000000c0400203f
:101668001000000000000000380400200100000005
:10167800000000001c040020100000000000000012
:101688000000002020010000000000003c040020b1
:1016980001000000010000000100000039040020e2
:1016a80003000000000000002c04002004000000db
:1016b800000000002003002050000000000000008f
:1016c80030040020080000000000000000000000b6
:1016d800000000006666666666666666666666663a
:020000040000fa
:1016e80010b588293cd015dc81294dd003dc802930
:1016f8004ad0002010bd822911d08429f9d1196857
:10170800002a26d00a1d1a6000228b5e0360db17b0
:10171800436011e0a02930d010dc9029e9d1196884
:101728000724002a2ed00919a1430a0008321a609a
:101738000b684c68036044600120dbe7c02901d0d6
:10174800f029d6d11a68111d1960136803600023a7
:10175800dee70c1d1c600b689bb203604260ebe780
:101768001968002a04d00a1d1a600023cb56cde759
:101778000c1d1c600b68dbb2efe71a68111d1960bd
:101788001368c3e70731cfe71968002a03d00a1d99
:0e1798001a600b68bae70c1d1c600b68dde7d9
:020000040000fa
:1017a600f0b54b6889b005930b6807009c46079314
:1017b600cb680c008e68049310685168cd0f44d036
:1017c6000b000200002150429941059b002b08dbcb
:1017d6000222634693430793002d02d1079b5a07c3
:1017e6002ad5731e07aa02920a22009301920b00c1
:1017f6000200200000f00ffc002d02d1079b5a07c3
:101806001ed501382d23002d00d1023b049a135416
:1018160023695a1e049b121a1918079b3800009355
:10182600330000f07efb7b68db0503d563689842d6
:1018360000da180009b0f0bd1b07db0ff31ad1e779
:101846001b07e5d501382023e0e7059b002bbfda0f
:02185600c4e7e5
:020000040000fa
:101858001f4b00229a619a8c80218a439a841a002d
:101868001023d1680b42fcd01a4b1b689b0e3f2bf0
:101878002bd09b02802292001343154a93621023b7
:10188800d1680b42fcd0124b02229a841a00102312
:10189800d1680b42fcd0104b104a5a601a0053789a
:1018a8005bb2002bfbdb0c4b0d4a5a800d4a5a8069
:1018b8000d4a5a800d4a5a800d4a5a800d4b0e4add
:1018c8001a62034b00221a627047203bd1e7c046d8
:1018d8000008004024608000000c00400007010060
:1018e80017400000194000001b4000001c40000089
:0c18f8001e40000000040040a018010089
:020000040000fa
:1019040010b50121012001f0abf9012001f0cafa60
:101914000121012001f046fa012001f0cbfa012156
:10192400012001f091f9012001f0b4fa144c21686e
:10193400144801f0e9fa2168134801f0dffa134b67
:101944001968134801f0ecfa124b1968124801f0b7
:10195400e1fa01f055f901f02ffa01f099f90f4a73
:10196400137801218b4301318b4313700c4b0022fc
:101974001a705a708022d2009a6000f03dfe10bda9
:10198400200400200129000035290000240400203f
:101994003d2f000028040020312f00001c040020eb
:0419a400000000201f
:020000040000fa
:1019a80030b5244b244a1a6008221a6100224221c9
:1019b8005a5401315a5409315a5401315a54033195
:1019c8005a5402200131585402315854523954247f
:1019d80019550134195501341955053418552f3046
:1019e8001a5405301a5402301a5401301a5401306e
:1019f800283c1c5437380834185502341a554334d7
:101a08008125ed001d5110340c4d1d5133341a55ec
:101a18000534195502341a55013406251d550b3461
:101a28001955253c1a5503341955b4315a54bb324b
:101a3800985430bd004400410c30010008080000f3
:020000040000fa
:101a4800f0b5d6464f464646c0b582461e4ad36aca
:101a5800956a002933d0ab4234d0040001201b4ad8
:101a680094469046184e12e04246d25c9146524641
:101a7800013a4f4617540133326b93429241134057
:101a8800884214d2421c0234ab4211d01000104ad2
:101a9800576807223a40012ae6d15a006746bf5cd8
:101aa800277001326746ba5c62700133e4e71d00b3
:101ab800054bdd621cbc90469946a246f0bd1d0050
:101ac8000800f5e70020f3e770030020200100205c
:041ad800001c0042ac
:020000040000fa
:101adc00f0b5d6464f464646c0b582461e4ad36a36
:101aec00956a002933d0ab4234d0040001201b4a44
:101afc0094469046184e12e04246d25c91465246ad
:101b0c00013a4f4617540133326b934292411340c2
:101b1c00884214d2421c0234ab4211d01000104a3d
:101b2c00576807223a40012ae6d15a006746bf5c43
:101b3c00277001326746ba5c62700133e4e71d001e
:101b4c00054bdd621cbc90469946a246f0bd1d00bb
:101b5c000800f5e70020f3e7b00300202002002086
:041b6c00001400421f
:020000040000fa
:101b7000f7b505000c0017001e00002a04d000f085
:101b800047fe336818183060a36800240193019b56
:101b9000002b01d09c421fdaeb6bea6c934214d20b
:101ba0005a1cea631878002f1dd0202803d00300a8
:101bb000093b042b17d8eb6c002b02d0eb6b013bdd
:101bc000eb63089b002b19d109e0280000f08cfb87
:101bd000431ce8d1002c05d0089b002b0cd1200021
:101be000441ea041febd089b002b00d01855336851
:101bf000013401333360cae7002ff0d00023089a84
:041c00001355ece7a5
:020000040000fa
:101c0400f7b50b6916000193cb68050000938f6844
:101c140000f0fcfd336818183060002f01d1019bdf
:101c24005f1e0024bc4229da019b013ba34225dd4f
:101c3400eb6bea6c93420fd25a1cea6318780300e8
:101c440002222b3b934323430ed1009b01241870a3
:101c5400336801333360e5e7280000f043fb431c9d
:101c6400edd1002c0ad1febd0300303b092b09d96c
:101c7400eb6c002b02d0eb6b013beb630020009b71
:101c84001855f0e7009b185533680134013333606d
:021c9400c8e79f
:020000040000fa
:021c9600fee767
:020000040000fa
:101c98001d4b1e4a1a601e4a9a81c02292025a603f
:101ca8001a00d369002bfcd1174a136802210b4391
:101cb8001360d369002bfcd1164b00221a629a627a
:101cc800da6234215a5408315a549a630021da8767
:101cd8001a609a60da60197519779a610a4b5a681e
:101ce80007231340012b09d00a4b80221a631a617b
:101cf800054b80229a757c3a9a757047054b4022ad
:101d08001a631a61f4e7c046001c0042040120402f
:081d18002bf6ffff7003002011
:020000040000fa
:101d20001d4b1e4a1a601e4a9a81c02292025a60b6
:101d30001a00d369002bfcd1174a136802210b4308
:101d40001360d369002bfcd1164b00221a629a62f1
:101d5000da6234215a5408315a549a630021da87de
:101d60001a609a60da60197519779a610a4b5a6895
:101d700007231340012b09d00a4b80221a631a61f2
:101d8000054b80229a757c3a9a757047054b402224
:101d90001a631a61f4e7c04600140042040131409e
:081da0002bf6ffffb003002049
:020000040000fa
:101da8001c4b5b78012b00d070471a4b00225a70ed
:101db800194b1b78012b27d0002b13d0022bf3d102
:101dc800164a13780133dbb2137015499822802024
:101dd800c0008850072be7d1104b00221a709423bb
:101de800c850e1e70f4b1b780133dbb20a2b02d84e
:101df8000c4a1370d8e70b4b00221a70084a9c2330
:101e08008021c900d150cfe7054a9c238021c90011
:101e1800d150c9e700000020390400203b0400200d
:081e2800004400413a040020cf
:020000040000fa
:101e3000f8b5ce46474680b5002000f045fdfff7d7
:101e400061fd154c154f164b9946164b984604e00c
:101e500000234a46137042461370134e0125fff7c4
:101e6000a3ff336a5b0c2b401a002378ab43134368
:101e70002370336adb0c2b405a00237802218b43fa
:101e8000134323703b70e3d0032be8d1044b0222b1
:101e90001a70fff759fbe0e71c040020380400200b
:0c1ea000390400203c04002000440041f4
:020000040000fa
:101eac0030b588292cd012dc812930d003dc802974
:101ebc002dd0002030bd82290ed08429f9d119688b
:101ecc0000680a1d1a600b6818800120f2e7a0292f
:101edc000fd00adc9029ecd10468456819680a1dfa
:101eec001a600b681c605d60efe7c02901d0f02917
:101efc00dfd11a680168101d186013681960e4e7d7
:101f0c00196800680a1d1a600b681870dde71968fb
:0c1f1c0000680a1d1a600b681860d6e708
:020000040000fa
:101f2800f0b51d00012389b014000e9a06001a406e
:101f38000391029201d1a5420ad8220003993000e8
:101f480000f081fca54203d82500280009b0f0bda7
:101f58002f1b01973a00102f00d91022202104a826
:101f680000f082ff019b0f2b0ed80f2204a93a40e4
:101f7800300000f068fc029b002be6d12200039998
:101f8800300000f060fce0e7102204a9300000f007
:0a1f98005afc019b103b0193e4e7a3
:020000040000fa
:021fa200fee758
:020000040000fa
:101fa400194b01221a701a00537e5bb2002bfbdb23
:101fb400164b1a68164b1b68db0e072111404901aa
:101fc4000b435201e021c9000a4013430e4a138512
:101fd4000323d370013b53700e4b1361537e5bb2ea
:101fe400002bfbdb084bc12292009a801a00537e1f
:101ff4005bb2002bfbdb044b0f221a761a00537ed4
:102004005bb2002bfbdb7047004000422460800081
:082014002060800002180000aa
:020000040000fa
:10201c00f7b5040019000a9fe368666800933b68f3
:10202c00100001932369013b1c00002e00da0126ed
:10203c000022009dea5435000123002c03dc002b08
:10204c001cd02000febd02000a4309d1002d07dc84
:10205c00089a921b5219002af1dd019a9207eed5cb
:10206c00099b099adb1700f0adfb8c460099013ceb
:10207c00130030320a55013d6146dee710233a6801
:06208c009a433a60dde713
:020000040000fa
:02209200704795
:020000040000fa
:1020940010b582b000f07cfdc0b2002801d102b0be
:1020a40010bd01216846fff717fd6b461a783c2adc
:1020b4000cd03e2a11d00f4b0e20ff30195c4c1c63
:1020c4001c545b188d331a700020e8e7094a0e236c
:1020d400ff330021d1540020e1e7064b0e21ff31ec
:1020e4005a5c501c58549b188d3300221a700120de
:0820f400d5e7c0460000002002
:020000040000fa
:1020fc0010b584291fd007dc812915d0822922d064
:10210c00802911d0002010bd90291cd008dc882912
:10211c00f8d119680c1d1c600b6803601a7010e074
:10212c00a02901d0c029edd119680c1d1c600b68c9
:10213c0003601a6005e019680c1d1c600b680360d5
:10214c001a800120dfe719680c1d1c600b68036006
:08215c001a60d2175a60f4e783
:020000040000fa
:1021640010b5bff35f8f62b6144bc32189005a5870
:10217400ff2082433f3802435a50802252011a60a2
:102184005a580f4c2240c020000402435a50802267
:10219400d2011a6004315a58224010435850802208
:1021a400d2021a605a581202120ac02000060243d0
:1021b4005a50802212031a6010bdc04600e100e0ac
:0421c400ffff00ff1a
:020000040000fa
:1021c8004b1801225205da4217d25b0d0722d201c1
:1021d8009b1a0fd9ff2b13d2db05ca0fd207134363
:1021e8000903020d1143490ac200524100d90131c5
:1021f800c8187047c80fc007704706d1002804d117
:10220800c80f0002ff30c00570470123db070a0032
:10221800c900400f084398431a4010435b0a18430b
:022228007047fd
:020000040000fa
:02222a007047fb
:020000040000fa
:10222c00002370b59cb004000d00160005931390ac
:10223c00069098421edb114bc318002104a814937e
:10224c0000f0ccfc209a219b31000092019304a851
:10225c000122fdf73fff002d0ad0139b0293149b24
:10226c000393039a029b9b1a199a9b18e4182c60ef
:10227c001cb070bd01235b42dfe7c046ffffff7f50
:020000040000fa
:10228c0000230e4a10b513600d4a13600d4a1360fb
:10229c000d4a13600d4a13600d4a536213610133ea
:1022ac00936000f00bfefff7eefe0a4c0a4b9c42cb
:1022bc0000d310bd08cc9847f8e7c0463004002086
:1022cc002c030020280300202003002024030020de
:0c22dc0030030020c4000000c800000017
:020000040000fa
:1022e800036d70b50400002b07d0426d934204dce7
:1022f80000230120e364404270bd200000f0e8fba9
:102308000028f5db236de16b226c002b14d0656d82
:102318005b1b551aab420fdc013bcb18e364002a68
:1023280004d0636d521a01329a18626501390b782c
:0c2338008342e1d00870dfe71300efe7fc
:020000040000fa
:1023440010b5134b9b7d002b1ad0114a137edbb2c0
:10235400927d52b2002a14db0d4a137edbb2927dc9
:10236400d20703d5db0701d5fff70cf8084a137e23
:10237400dbb2927d520703d55b0701d5fef7a4febd
:1023840010bd5bb2002be7da00f056f8e4e7c04674
:04239400001c0042e7
:020000040000fa
:1023980010b5134b9b7d002b1ad0114a137edbb26c
:1023a800927d52b2002a14db0d4a137edbb2927d75
:1023b800d20703d5db0701d5fff752f8084a137e89
:1023c800dbb2927d520703d55b0701d5fef7f0fe1d
:1023d80010bd5bb2002be7da00f052f8e4e7c04624
:0423e800001400429b
:020000040000fa
:1023ec0030b51500012289b0524201920432ff32fd
:1023fc000292002800d16846002403900491a14267
:10240c0000d04c1e0594002906da4f220120074b00
:10241c0040421a6009b030bd00220790027006904d
:10242c001a00290001a800f053fcf3e73404002043
:020000040000fa
:10243c0010b5104b5b8b0722134000d110bd0e4a18
:10244c00d3870c4b80221a76793a5a831b7e5b0712
:10245c0005d5084b04211a8d1a7e0a42fbd1064b76
:10246c001b6a002bead0044b596a1b6a022098475e
:0c247c00e4e7c046001c00427003002092
:020000040000fa
:1024880010b5104b5b8b0722134000d110bd0e4acc
:10249800d3870c4b80221a76793a5a831b7e5b07c6
:1024a80005d5084b04211a8d1a7e0a42fbd1064b2a
:1024b8001b6a002bead0044b596a1b6a0220984712
:0c24c800e4e7c04600140042b00300200e
:020000040000fa
:1024d40010b581290fd0832903d0802914d000207e
:1024e40010bd1368191d11601b68416800681860ed
:1024f40059600120f4e71368191d11601b68016815
:10250400426819605a60f4e71368416800681c1d4a
:0c25140014601c68fff756fe2060eae728
:020000040000fa
:102520000200002310b54832d3560400591e0b4355
:10253000137043698269934203d90022c36a110070
:10254000984700236068a362a3616361830705d590
:102550001023184360600120404210bda368e26868
:0c25600000079b182364e363c017f6e734
:020000040000fa
:10256c0010b5064c2378002b07d1054b002b02d05d
:10257c00044800e000bf0123237010bdf0030020cd
:10258c000000000000000000044b10b5002b03d02d
:10259c000349044800e000bf10bdc0460000000025
:0825ac00f40300200000000010
:020000040000fa
:1025b40010b50a4b98470a4b984700f0d3f9094bda
:1025c400ff229343084a9360084b9847084b984767
:1025d400084b9847fff72afcfee7c0461f09000096
:1025e4001f0900000000000000ed00e08d22000043
:0825f4001f0900001f0900008f
:020000040000fa
:1025fc0070b50e4c082565619423e5500a2000f057
:10260c0081f89823e550c82000f07cf8a023e3580b
:10261c001b0507d40123064a9370064a1370fff773
:10262c00bdfbfce7024b00229a7070bd00440041d8
:08263c00000000203904002019
:020000040000fa
:102644000d4b01221a801a00d37b5bb2002bfbdbfb
:10265400094bec22d2001a80084a1a833b229a734f
:10266400074a0021116001225a731a00d37b5bb21e
:10267400002bfbdb7047c04600300042ed36000003
:042684000c04002022
:020000040000fa
:102688000d4b01221a801a00d37b5bb2002bfbdbb7
:10269800094bec22d2001a80084a1a833b229a730b
:1026a800074a0021116001225a731a00d37b5bb2da
:1026b800002bfbdb7047c046002c00424e12000086
:0426c80014040020d6
:020000040000fa
:1026cc00f7b597b201933b00140c86b2050c73431b
:1026dc006f4366436543f6191c0ca4199c46a7422c
:1026ec0002d980235b02ed186346260c751924046d
:1026fc009eb2019ba4194343200051435b19591806
:04270c0003b0f0bd69
:020000040000fa
:1027100070b50d4b5e681b68db0714d50b4b584337
:10272000094b9b6800280ed00021074d06e0741c61
:10273000a41ae318c9181300884204d9aa689a4257
:10274000f5d89b1af6e770bd10e000e080bb0000f2
:020000040000fa
:10275000030010b51a78202a0dd011000939042978
:1027600009d900212b2a02d02d2a01d101310133b0
:1027700000200a2404e00133ece760430133801aaf
:102780001a78303a092af8d9002900d1404210bd00
:020000040000fa
:10279000f7b5551c846bff350700019100920021ad
:1027a0002a00200000f0acf9002800d0051b009b97
:1027b0002e009d4200d91e0032002100019800f039
:1027c00025fba31964193000fb633c64bc63febda8
:020000040000fa
:1027d000002b11d1002a0fd1002900d1002802d0ee
:1027e0000021c943081c07b4024802a14018029006
:1027f00003bdc0468107000003b4684601b50298d6
:10280000fef750fd019b9e4602b00cbc7047c046cf
:020000040000fa
:1028100070b504000025e36be26c934211d25a1ca0
:10282000e263187820280ad00938042807d9e36c15
:10283000002b02d0e36b013be363280070bd013540
:0e284000e9e72000fff750fd431cebd1f5e760
:020000040000fa
:10284e00436870b50400d80512d52569954200d9a4
:10285e001500002d0bd02a00606900f0d0fa226915
:10286e0063695b19551b0022636125611a7070bd87
:0c287e00db06fcd4200000f0eafaf8e7ca
:020000040000fa
:10288c001c2101231b04984201d3000c10391b0a94
:10289c00984201d3000a08391b09984201d3000958
:1028ac00043902a2105c40187047c04604030202af
:0c28bc000101010100000000000000000c
:020000040000fa
:1028c80010b50c4b06225a60fff76af8fef7c0fff6
:1028d800fff722fa00f00afb00f066f9fff7d8f9d3
:1028e800fff75cfbfff7ccfefff7a8fefff736fc0f
:0828f80010bdc0460040004184
:020000040000fa
:1029000010b584b00a4b9b78012b01d004b010bde8
:1029100000f040f9c3b2002bf8d0ff24044021009e
:1029200001a8fff7dbf8210001a8fef7cbfaede7dd
:042930000000002083
:020000040000fa
:1029340010b584b00a4b9b78012b01d004b010bdb4
:1029440000f00af9c3b2002bf8d0ff2404402100a0
:1029540001a8fff777f8210001a8fef733fbede7a4
:04296400000000204f
:020000040000fa
:1029680010b50a480168002903d14368002b00d13b
:1029780010bd04008368064a9bb20c349b009b5828
:1029880042682000984780002018ebe728160000ce
:04299800f82d000016
:020000040000fa
:10299c00f0b5050000200a4a4400a65c002e02d1c6
:1029ac0012195078f0bd296801300f78c0b2b742c7
:1029bc0003d112190131507829600a28ebd9f1e7bb
:0429cc00682d000072
:020000040000fa
:1029d00010b50b680c001b78202b03d0093b00229c
:1029e000042b0bd8fff714ff02002368591c216049
:1029f0005b78202bf9d0093b042bf6d9100010bdd1
:020000040000fa
:102a000070b50d001600040098b0602200216846e1
:102a100000f02efa054b32002900684602940e940d
:102a2000119300f04ff918b070bdc046512f00004f
:020000040000fa
:102a300037b50d00d46811001a00fff7e3f8431c06
:102a40000cd00a2201a9200000f0f4f9019b2860b3
:0e2a500069600120a34201d1022040423ebd38
:020000040000fa
:102a5e00002380290fdb812901dd83290bd107217a
:102a6e00136807338b431900083111601a685b68cd
:0a2a7e000260436001231800704756
:020000040000fa
:102a880010b5074b987bc0b23b229a73054b1b6865
:102a9800002b03d0034b59681b68984710bdc046ec
:082aa800003000420c04002084
:020000040000fa
:102ab00010b5074b987bc0b23b229a73054b1b683d
:102ac000002b03d0034b59681b68984710bdc046c4
:082ad000002c00421404002058
:020000040000fa
:102ad80037b50400fff720fd002802d0012040424e
:102ae8003ebd6b46dd1d0122636c2900200098471e
:082af8000128f3d12878f3e76f
:020000040000fa
:102b0000c9b2002a0ad003788b4208d0821802e0aa
:102b100003788b4203d001308242f9d10020704704
:020000040000fa
:102b2000002310b5934206d103201840421e904165
:0e2b30009b08c01810bdc45ccc540133f2e702
:020000040000fa
:102b4000054b9868db68984201d3c01a7047024a67
:0c2b500012691018c01af9e77003002089
:020000040000fa
:102b5c00054ad36a906a834201d8c01a7047024a68
:0c2b6c00126b1018c01af9e7700300206b
:020000040000fa
:102b7800054b9868db68984201d3c01a7047024a2f
:0c2b880012691018c01af9e7b003002011
:020000040000fa
:102b9400054ad36a906a834201d8c01a7047024a30
:0c2ba400126b1018c01af9e7b0030020f3
:020000040000fa
:102bb000044b00221a609a60034a5a6004221a6089
:0c2bc0007047c04610e000e07fbb000042
:020000040000fa
:102bcc000300303b02000120092b06d920230020f2
:0c2bdc0013430522613b9a4240417047c0
:020000040000fa
:102be800036cc26b10b59c1a01654465002902d0bc
:0a2bf8008c4200dd5318c36410bdc9
:020000040000fa
:102c0400044a137802210b431370537e5bb2002bea
:082c1400fbdb704700400042a9
:020000040000fa
:102c1c00044a137b02210b431373537e5bb2002bcc
:082c2c00fbdb70470040004291
:020000040000fa
:102c3400044b1b7e01221340181e01d0014b1a764f
:082c44007047c0460040004249
:020000040000fa
:102c4c0010b5044a3424135ddbb210553c201154ea
:082c5c00180010bd70030020f8
:020000040000fa
:102c640010b5044a3424135ddbb210553c201154d2
:082c7400180010bdb0030020a0
:020000040000fa
:102c7c00044a138802210b431380d37b5bb2002bd5
:082c8c00fbdb70470030004241
:020000040000fa
:102c9400044a138802210b431380d37b5bb2002bbd
:082ca400fbdb7047002c00422d
:020000040000fa
:102cac000378002b06d0030001331a78002afbd1dd
:082cbc00181a70470020fce724
:020000040000fa
:102cc40013b50400019201aafdf71efc6368db063c
:082cd40001d50120404216bdac
:020000040000fa
:102cdc0013b50400019201aafdf71cfe6368db0624
:082cec0001d50120404216bd94
:020000040000fa
:102cf400d0400b1cd1409c46203ad340184352424a
:082d0400634693401843704739
:020000040000fa
:102d0c009140031c90409c46203a934019435242f8
:082d1c006346d34019437047e0
:020000040000fa
:102d240010b5002903d1fff7affd203002e0081ce5
:082d3400fff7aafd10bdc04627
:020000040000fa
:102d3c000eb403b503aa02ca019200f07ff802b0e8
:062d4c0008bc03b01847ab
:020000040000fa
:102d52000eb403b503aa02ca0192fff750fe02b0f5
:062d620008bc03b0184795
:020000040000fa
:102d680068076c094c836a9074a07ac000806888f0
:062d780000846c82008162
:020000040000fa
:102d800010b5034b1c69fff7dbfe013c201a10bd98
:042d900070030020ac
:020000040000fa
:102d940010b5034b1c69fff7edfe013c201a10bd72
:042da400b003002058
:020000040000fa
:102da800034a137ddbb21075117718007047c046cf
:042db800b003002044
:020000040000fa
:102dbc00034b00229a601a6801210a431a6070477b
:042dcc0010e000e033
:020000040000fa
:102dd0005a1500007a150000a4150000d215000055
:042de000ea150000f0
:020000040000fa
:102de4003c20256420256c643e00000025732025ca
:042df4006400c04671
:020000040000fa
:102df800852e0000212b00005f2f00005f2f0000b0
:042e08005f2f000038
:020000040000fa
:102e0c0010b5002a05d00023cc5cc4540133934286
:042e1c00fad110bd1a
:020000040000fa
:102e200037b501246442e51700940195fff7fef9d8
:042e300003b030bdfe
:020000040000fa
:102e340037b5802500242d0600940195fff7f4f999
:042e440003b030bdea
:020000040000fa
:102e480010b513000a000249fff7ccfa10bdc046be
:042e5800ffffff7ffa
:020000040000fa
:102e5c00c36a10b5002b01d0984710bd006800f074
:042e6c0075f8fae714
:020000040000fa
:102e7000002a06d00300c9b28218197001339342a8
:042e8000fbd17047cb
:020000040000fa
:102e84008a18914201d10020704700230b70013150
:022e9400f7e75e
:020000040000fa
:102e9800002801d0014b98637047c046700300209a
:020000040000fa
:102ea800002801d0014b98637047c046b00300204a
:020000040000fa
:102eb800002801d0014b98617047c046b00300203c
:020000040000fa
:102ec80010b5fff7aef9fff7acf9fff7aaf910bd97
:020000040000fa
:0e2ed8000300413b192b01d8202318437047fb
:020000040000fa
:0c2ee800014b588b80b270470040004244
:020000040000fa
:0c2ef400014b82225a60704700400041f0
:020000040000fa
:0c2f0000014b18625962704770030020fa
:020000040000fa
:0c2f0c00014b186259627047b0030020ae
:020000040000fa
:0c2f1800014b1860596070470c04002049
:020000040000fa
:0c2f2400014b1860596070471404002035
:020000040000fa
:0c2f3000014b01221a70704700000020c5
:020000040000fa
:0c2f3c00014b01225a7070470000002079
:020000040000fa
:082f4800286e696c29002500c8
:020000040000fa
:082f500010b5fff71dfc10bdd8
:020000040000fa
:062f580001204042704719
:020000040000fa
:042f5e000020704798
:020000040000fa
:042f62000020704794
:020000040000fa
:042f66000020704790
:020000040000fa
:042f6a00002070478c
:020000040000fa
:042f6e000020704788
:020000040000fa
:042f74007047c0469c
:020000040000fa
:0200000400807a
:0440000077c700d8a6
:020000040000fa
:0200000400807a
:044004005c00ffff5e
:00000001FF
