:020000040000fa
:10000000f03f0020ad2f0000573c00005d3c000099
:1000100000000000000000000000000000000000e0
:10002000000000000000000000000000bb0d000008
:100030000000000000000000bb0d0000bb0d000030
:10004000bb0d0000bb0d0000bb0d0000bb0d000090
:10005000bb0d0000bb0d0000bb0d0000bb0d000080
:10006000bb0d0000bb0d0000bb0d0000bb0d000070
:10007000e1110000bb0d0000dd100000bb0d000011
:10008000bb0d0000bb0d0000c53200008532000032
:10009000bb0d00000000000000000000bb0d0000d0
:1000a000bb0d0000bb0d0000bb0d0000bb0d000030
:0800b00000000000bb0d000080
:020000040000fa
:1000b800f8b5c046f8bc08bc9e467047452f0000fe
:1000c800f8b5c046f8bc08bc9e4670471d2f000016
:020000040000fa
:0800d800d41300000100000038
:020000040000fa
:1000e000f0b58bb0040001910292242901d80129b6
:1000f00003d11622b84b1a6056e0e36be26c9342d0
:1001000024d25a1ce2631d78202df6d02b00093b27
:10011000042bf2d90222223b934300220392934202
:100120000bd12d3d6b425d416b420393e26ce36b5f
:10013000934210d25a1ce2631d78019be26c002ba3
:100140000ed0102b54d1302d0cd051e0200002f0f5
:100150003ffd0500d8e7200002f03afd0500ece77e
:10016000302d43d1e36b934224d25a1ce2631d78b5
:1001700020232b43782b2ed1e36be26c93421ed2cb
:100180005a1ce2631d781022944b01925b5d0f2b89
:1001900000d8c7e0e36c002b00d1a9e1029ae36b21
:1001a000002a11d0023be36300260027300039000b
:1001b0000bb0f0bd200002f00bfd0500d8e72000d9
:1001c00002f006fd0500dee7013be36300212000ad
:1001d00003f00efce8e7019b002b00d1a0e0019b9f
:1001e0000a2b00d09ee0002302931de00a23019316
:1001f0007a4b01995b5d8b42f1d3002a02d0e36b0d
:10020000013be3630021200003f0f2fb71e70a23c6
:10021000029a5343e26c5d19e36b303d02959342c1
:1002200068d25a1ce2631d782b00303b092b03d89f
:100230006b4b029a9a42ead90027029e2b00303b70
:100240000293092b33d8674b9f4213d802d1664bd8
:100250009e420fd800230a223000390002f030fffe
:10026000029b049300230593049bdb434a1c46d165
:10027000984244d9594b019a5b5d934217d2e36b84
:10028000e26c934200d318e15a1ce2631878534b96
:10029000019a1b5c9342f2d3109e119f22224e4b77
:1002a0001a600123109a134201d000230393e36cd8
:1002b000002b02d0e36b013be363119bbb4200d9ef
:1002c0000ce103d1109bb34200d907e10123109a3e
:1002d000134200d0f5e0039b002b00d0f1e0222276
:1002e00001267642f7173c4b1a60109b119cf618ba
:1002f00067415be7200002f06bfc050094e7e36bcd
:10030000e26c049e059f36184f41934203d25a1c5b
:10031000e2631d7892e7200002f05afc05008de7a9
:1003200008230193019b5e1e3340029300d0bce082
:10033000019a173353432d4a1b065b0fd35c04937a
:10034000264b019a5b5d9a4203d9294a0299914250
:100350002bd9049a01204042c11703f09ffb0027cc
:10036000029e089006911d4b5b5d0293029a019bd1
:10037000934200d87ee7069b9f4200d97ae703d1db
:10038000089b9e4200d975e7049a3000390003f0bb
:1003900091fb029be26c03431e00e36b0f00934250
:1003a00015d25a1ce2631d78dde7029e049a96403e
:1003b000e26c1e43e36b0296934203d25a1ce26343
:1003c0001d78bde7200002f003fc0500b8e720001f
:1003d00002f0fefb0500c6e734040020d20e000048
:1003e000989999199999991999999999c80e00000c
:1003f000ffffff07029e019a5643f3180293e26c37
:10040000e36b93424cd25a1ce2631d783c4b019a39
:100410005b5d9a4203d93b4a02999142ead900278f
:10042000029e374b5b5d0293029a019b934200d878
:1004300020e7002f17d01a0000233000190002f027
:100440003ffe002304913a001900019802f038fea3
:10045000049b089300230993089a099b801859412b
:10046000002900d006e73b0032000198002102f08d
:1004700027fe029b069300230793069bdb434a1c3f
:1004800002d1984200d9f5e6069e079fe36be26c25
:1004900036184f4193420bd25a1ce2631d78c0e7d5
:1004a000200002f095fb0500b0e700230293ade7c2
:1004b000200002f08dfb0500b3e7200002f088fb6e
:1004c000e5e6119b9f4203d808d1109b9e4205d9b7
:1004d000109e119f22220c4b1a6067e6039b01338a
:1004e00000d063e633003c0000275e42a7415de692
:1004f000029b00260027002b00d057e666e6c04688
:0c050000d20e0000c6711c07340400205d
:020000040000fa
:10050c000023f0b505001600f1b007910893049391
:10051c00079b1b78002b67d0002309930a930b933e
:10052c000eab0c93802307a928000d9303f05cf805
:10053c000400079b1a78002a01d0252a41d1089a79
:10054c00141908941a78252a31d100245a1c0792c0
:10055c000b945a782a2a02d1023307930134079854
:10056c0002f0cafe01000b90280003f03bfa079b37
:10057c001a78303a092a4dd907a803f01bf8079bc3
:10058c000700187803f052fb672865dc652800db50
:10059c00cce0612800d1c9e03fdc079b252800d1c5
:1005ac00f3e05b2800d10ee1079b01330793039b1b
:1005bc00013300d0fae0049b002b15d1013b0493ce
:1005cc0012e0eb6bea6c934211d25a1cea631b7873
:1005dc000393079b039a1b7893420fd0eb6c002b71
:1005ec0002d0eb6b013beb63049871b0f0bd2800bb
:1005fc0002f0e8fa030003900133ead1089b07a943
:10060c0001330893079b28000133079302f0ecff9a
:10061c0024188ee701330793a9e7632800d199e0ea
:10062c006428c1d108ab09aa2ea9280003f00cf844
:10063c00002800da6be1079b01330793002c00d0f4
:10064c00b4e03300012239002ea801f065ff041e2e
:10065c0069da631cafd0c7e7702843d00bdc6e2877
:10066c0052d031dc69289fd108ab09aa2ea92800e9
:10067c0000f0eefadce7752815d078282bd073281b
:10068c0000d091e7802f00d08ee7079b01330793b2
:10069c0000239c4203d133681a1d32601b680093ff
:1006ac00012208ab6ce008ab09aa2ea9280003f0c4
:1006bc00dafa002800da2ae1079b01330793002cb1
:1006cc0074d133002200bee708ab09aa2ea928007a
:1006dc0003f0c9faede708ab09aa2ea9280003f02c
:1006ec00c2fae6e708ab09aa2ea9280003f0bbfa68
:1006fc00002800da0be1079b01330793002c55d13e
:10070c0033002200f0219fe7079b01330793089bde
:10071c002e93db172f93002c48d133002200390085
:10072c002ea801f0f9fe049b1b19f0e608ab09aaf0
:10073c002ea9280003f097fa002800dae7e0079bbf
:10074c0001330793002c31d1320039002ea802f06e
:10075c0093fb7ce7802f00d026e70b9b0593002ba7
:10076c0001d101330b93079b0133079300239c4268
:10077c0003d133681a1d32601b680022009308ab4a
:10078c0009a9280001f0f4fd61e7802f00d00be7e8
:10079c0001330793ea6ceb6b934209d25a1cea6360
:1007ac001878252808d1089b013308930024bae750
:1007bc00280002f007faf4e7eb6c002bf6d0eb6b99
:1007cc00013beb63f2e7802f00d0ede60027bc4243
:1007dc0003d13268111d316017685a1c07925a7880
:1007ec0000245e2a02d10233079301340222210035
:1007fc00ff322ea803f0f6f9a821002304aa521800
:10080c001370079b1a782d2a1ed1013307930123ed
:10081c00a93204a91b1b5218137007990b785d2b76
:10082c001cd10024a74240d1eb6bea6c934269d2f5
:10083c005a1cea631b780393039a2eab9b185c78c3
:10084c00002c5bd105943fe05d2ae6d10133079380
:10085c00012304aa07321b1bff32dde7002be0d07b
:10086c002d2b09d00122079b2ea819789b18411813
:10087c00101b48700793d0e7089b1b78002bf1d016
:10088c005d2befd04b1c0793069b1b78487883425b
:10089c00e8da01220133101b2eaa9854f6e7039bc9
:1008ac003b55089b013401330893eb6bea6c0594c0
:1008bc0093421ed25a1cea631b780393039a2eab05
:1008cc009b185b78002bead1eb6c002b02d0eb6b06
:1008dc00013beb63079b01330793059b002b00d176
:1008ec0062e6002f00d15fe60023059a0124bb5479
:1008fc0019e7280002f066f90390dfe7089b013343
:10090c00089391e7280002f05df9039094e7040046
:02091c009fe654
:020000040000fa
:02091e00704720
:020000040000fa
:100920000023f0b506001500b1b0079103930799b5
:100930000b78002b00d10ce101235b420c9310ab30
:1009400000240e9380230b940d940f930b5d002bca
:1009500001d0252b2ad1002c06d02200300002f035
:100960006ffd079b1b190793079b1a78252a00d058
:10097000e4e0013304930793022301219c461027ee
:10098000079803782b2b1ad025d8202b1ad0232b8d
:100990001dd02a2b28d002f0b5fc0d90079b1a78a9
:1009a000303a092a31d801330793f7e70134cde70c
:1009b0000b9b05930b4301300b930790e0e7042357
:1009c0000b9a0fe00b9b0593059a08230ae00b9bfb
:1009d00005933b43efe72d2bead0302bd9d162466c
:1009e0000b9b05931343e6e72b6801301a1d1b6828
:1009f00007902a600d93002b07da0b9a5b42059251
:100a0000012205990d934a400b920b9bda0702d500
:100a1000022293430b93079b1a782e2a0ed10022b1
:100a2000581c0c9207905a782a2a27d10233079330
:100a30002b681a1d1b682a6005930c9307a802f007
:100a4000bffd079b0700187803f0f6f8692800d16e
:100a500082e034dc632800d1dbe01adc252800d1f9
:100a6000e8e0612858d0049b0122079300235242fa
:100a70000c920b930d9300930232e5e002f042fcde
:100a80000c90079b1a78303a092ad7d8013307937c
:100a9000f7e7642860d06728e5dc2a00390008a859
:100aa00002f08afe002800d1afe0079b0ba95a1c78
:100ab00007921b7808aa300003f0d7f83de07028b1
:100ac00000d17de016dc6e2800d197e06f28cad1f6
:100ad0002b000022390008a801f086f8002800d178
:100ae00093e0079b08aa01330ba93000079303f09a
:100af000baf822e0752840d078284fd07328b2d1b8
:100b0000802f00d081e0079b2a6801330793131dd3
:100b10002b601268002388e02a00390008a802f040
:100b20004bfe002800d170e0079b0ba95a1c0792ce
:100b30001b7808aa300003f098f82418039b1c19ae
:100b4000a34200dc82e04f22414b1a6001235b424a
:100b50000393039831b0f0bd2b000122390008a89f
:100b600001f042f8002850d0079b08aa01330ba9d6
:100b70003000079301f04cf9dfe72b000022390029
:100b800008a801f031f800283fd0079b08aa0133dc
:100b90000ba93000079303f066f8cee72b00002284
:100ba000390008a801f020f800282ed0079b5a1c15
:100bb00007921b7808aa0ba9300003f056f8bce78f
:100bc0002b000022f02108a801f00ef800281cd00c
:100bd000079b099a01330793089b13430cd11d4fc0
:100be000380002f037ff390002000b9b00930d9b89
:100bf000300001f0d5fca0e77823dbe7039b390048
:100c00001a1908a82b0001f05dfe079b013307931a
:100c100094e7802ff9d1079b013307932b681a1da6
:100c20001b682a6008aa137001230ba9300003f087
:100c30001ef882e7802fe8d10122079b013307933a
:100c40000b9b049300930d9b0349d1e703946ee63d
:0c0c500034040020463c00004c3c000036
:020000040000fa
:100c5c00f0b51f00936889b00393136904000493e3
:100c6c00d3680591019302f0a7fb3b681818039b0e
:100c7c003860002b02d1049b013b03930a230093a1
:100c8c0000231e000293039b9e4241da049b013b0e
:100c9c00b3423ddde36be26c93420fd25a1ce2632c
:100cac001d782b0002222b3b9343334311d1019b24
:100cbc001d703b6801333b600123e2e7200001f02b
:100ccc0081ff0500431cecd1002e21d1280009b076
:100cdc00f0bd029b9e4209d1731c0293009b0a2b10
:100cec002cd1023b302d54d0002302932b00303bef
:100cfc00092b48d9009b102b04d1280002f064fe6c
:100d0c00002847d1e36c002b02d0e36b013be3637b
:100d1c000023019a9355009b0a2b42d11a0007a974
:100d2c00019802f041ff059b019a18605960079bde
:100d3c0001259342cad102256d42c7e7009b082bbf
:100d4c00d2d118332b43782bced1e36be26c934288
:100d5c0015d25a1ce2631878e36c002b02d0e36bbb
:100d6c00013be36302f030fe0028cbd0019b9d5584
:100d7c003b68013601333b601023009383e720006e
:100d8c0001f020ffe8e7009b082b03d1372d01dd94
:100d9c0002330093019b9d553b68013601333b6048
:0e0dac0071e7009a07a9019802f0f4febbe778
:020000040000fa
:020dba00fee752
:020000040000fa
:100dbc0080b500af3e4b3f4a1a603d4b08221a618a
:100dcc003b4a42230021d154394a43230021d154b8
:100ddc00374a4c230021d154354a4d230021d1549c
:100dec00334a50230021d154314a51230221d1548a
:100dfc002f4a53230221d1542d4a54230121d1547b
:100e0c002b4a55230121d154294a56230121d1546f
:100e1c00274a5b230221d154254a31230021d15486
:100e2c00234a36230021d154214a38230021d1549e
:100e3c001f4a39230021d1541d4a3a233321d1545e
:100e4c001b4a3b230321d154194a3d230021d15481
:100e5c00174980228123db008b50154a90231649b9
:100e6c00d150134ac3230021d154114ac823012164
:100e7c00d1540f4aca230021d1540d4acb23062149
:100e8c00d1540b4ad6230121d154094ab123002154
:100e9c00d154074ab4230121d154054ab52300216a
:100eac00d154034abb230321d154c046bd4680bd57
:0c0ebc00004400410c3001000808000058
:020000040000fa
:100ec800000102040703060500ffffffffffffff05
:100ed800ffffffffffffffffffffffffffffffff1a
:100ee800ffffffffffffffffffffffffffffffff0a
:100ef800ffffffffffffffffffff000102030405e5
:100f080006070809ffffffffffffff0a0b0c0d0e86
:100f18000f101112131415161718191a1b1c1d1e61
:100f28001f20212223ffffffffffff0a0b0c0d0ede
:100f38000f101112131415161718191a1b1c1d1e41
:100f48001f20212223ffffffffffffffffffffffff
:100f5800ffffffffffffffffffffffffffffffff99
:100f6800ffffffffffffffffffffffffffffffff89
:100f7800ffffffffffffffffffffffffffffffff79
:100f8800ffffffffffffffffffffffffffffffff69
:100f9800ffffffffffffffffffffffffffffffff59
:100fa800ffffffffffffffffffffffffffffffff49
:100fb800ffffffffffffffffffffffffffffffff39
:0a0fc800ffffffffffffffffffff29
:020000040000fa
:020fd200704766
:020000040000fa
:100fd40080b500af354b1b78042b56d89a00344ba0
:100fe400d3181b689f4602f0a3fb02f05ffb2f4b54
:100ff40001221a7049e02f4b1b78012b44d12d4b51
:1010040000221a7002f056fa031e3dd002f08afd47
:1010140003001a00274b9a8002f048fb234b02225c
:101024001a7031e0234b9b881a002349234b180084
:1010340002f056fd214b180002f00afd02001f4b7e
:101044001100180001f096f8184b03221a701ce0e6
:1010540001f0e6f803001a00194b1a70184b1b78bc
:10106400012b03d1114b04221a700ee00f4b012205
:101074001a700ae0134b144a1449154802f03bfd58
:101084000a4b01221a7000e0c0460a4b9b881a00e2
:10109400084b9b689a4203dd0e4b04229a6102e0de
:1010a4000c4b04225a61c046bd4680bd3d0400205d
:1010b400643b000000000020183c00000c000020ed
:1010c40039040020080000200e010020203c00000c
:0810d4008d00002000440041e2
:020000040000fa
:1010dc0080b582b000affb1d00221a703c4b9b7d8b
:1010ec00dbb2002b00d16fe0394b1b7edbb21a0058
:1010fc0080231a40fb1d803a51424a411a70344bee
:10110c009b7ddbb21a0080231340802b05d1fb1d85
:10111c001b78002b01d0012200e00022fb1d1a706d
:10112c001a7801210a401a70fb1d1b78002b01d084
:10113c0001f026fe264b1b7edbb21a0001231a405f
:10114c00fb1d013a51424a411a70214b9b7ddbb287
:10115c001a0001231340012b05d1fb1d1b78002b1a
:10116c0001d0012200e00022fb1d1a701a78012127
:10117c000a401a70fb1d1b78002b01d001f034fcc7
:10118c00134b1b7edbb21a0004231a40fb1d511ead
:10119c008a411a700e4b9b7ddbb21a00042313405c
:1011ac0005d0fb1d1b78002b01d0012200e0002292
:1011bc00fb1d1a701a7801210a401a70fb1d1b784e
:1011cc00002b01d002f0a8f9c046bd4602b080bd8c
:0411dc00001c0042b1
:020000040000fa
:1011e00080b582b000affb1d00221a703c4b9b7d86
:1011f000dbb2002b00d16fe0394b1b7edbb21a0053
:1012000080231a40fb1d803a51424a411a70344be8
:101210009b7ddbb21a0080231340802b05d1fb1d80
:101220001b78002b01d0012200e00022fb1d1a7068
:101230001a7801210a401a70fb1d1b78002b01d07f
:1012400001f0cefd264b1b7edbb21a0001231a40b3
:10125000fb1d013a51424a411a70214b9b7ddbb282
:101260001a0001231340012b05d1fb1d1b78002b15
:1012700001d0012200e00022fb1d1a701a78012122
:101280000a401a70fb1d1b78002b01d001f0e2fb15
:10129000134b1b7edbb21a0004231a40fb1d511ea8
:1012a0008a411a700e4b9b7ddbb21a000423134057
:1012b00005d0fb1d1b78002b01d0012200e000228d
:1012c000fb1d1a701a7801210a401a70fb1d1b7849
:1012d000002b01d002f040f9c046bd4602b080bdef
:0412e00000140042b4
:020000040000fa
:1012e40080b586b000af0200bb1d1a801323fb1823
:1012f40000221a70304b9b6a01337b612e4b1b6baf
:101304007a699a4201d300237b612b4bdb6a7a69a9
:101314009a4217d1284b1b6a002b13d0264b5b6ac9
:10132400fb60254b1b6afa68110001209847224b89
:101334009b6a01337b61204b1b6b7a699a4201d310
:1013440000237b611c4bdb6a7a699a422dd01b4bcc
:101354005b6807221340012b0bd0174b9b6abb60c1
:10136400bb1d1b88d9b2164abb68d3180a1c1a7055
:1013740014e0114b9b6a5b00bb60bb1d1b88d9b298
:101384000f4abb68d3180a1c1a70bb1d1b881b0aa2
:101394009ab2bb680133d1b2094ad154064b7a6977
:1013a4009a621323fb1801221a701323fb181b786b
:1013b4001800bd4606b080bd70030020001c00422a
:0413c40020010020e4
:020000040000fa
:1013c80080b586b000af0200bb1d1a801323fb183e
:1013d80000221a70304b9b6a01337b612e4b1b6bca
:1013e8007a699a4201d300237b612b4bdb6a7a69c5
:1013f8009a4217d1284b1b6a002b13d0264b5b6ae5
:10140800fb60254b1b6afa68110001209847224ba4
:101418009b6a01337b61204b1b6b7a699a4201d32b
:1014280000237b611c4bdb6a7a699a422dd01b4be7
:101438005b6807221340012b0bd0174b9b6abb60dc
:10144800bb1d1b88d9b2164abb68d3180a1c1a7070
:1014580014e0114b9b6a5b00bb60bb1d1b88d9b2b3
:101468000f4abb68d3180a1c1a70bb1d1b881b0abd
:101478009ab2bb680133d1b2094ad154064b7a6992
:101488009a621323fb1801221a701323fb181b7886
:101498001800bd4606b080bdb0030020001400420d
:0414a80020020020fe
:020000040000fa
:1014ac00f0b5060085b00f0015001c008b4265d806
:1014bc0001d1824262d82100280002f001fb3900e0
:1014cc000090300002f0fcfa009b21001b1a1a005d
:1014dc002800039302f0e8fa00900191019bbb42b3
:1014ec0046d802d1009bb34242d8009b019c039a80
:1014fc0001200021f61aa74102f0d6fa039b002b1b
:10150c002fd0019b009adb0754081c43019b5d08fc
:10151c00039b9c46bd422ed801d1b4422bd832003d
:10152c003b00121bab41012692185b410027b618f9
:10153c005f4101235b429c446346002bead1801936
:10154c007941039a04000d003000390002f0a0fa32
:10155c00039a06000f0002f0a7fa241a8d4120000e
:10156c0029000a9b002b01d01e605f6005b0f0bd06
:10157c0000200021c2e7b6197f41dae700200021e4
:02158c00efe787
:020000040000fa
:02158e007047a4
:020000040000fa
:1015900090b583b000af02003960fb1d1a70fb1dcf
:1015a0001b787f2b28d82f4afb1d1b785bb29b082a
:1015b000c0339b009b58fa1d1278110003220a4089
:1015c000d200ff2191400a00d2431a4011003b682b
:1015d0009b01ff221a40fb1d1b78180003230340c8
:1015e000db009a401f48fb1d1b785bb29b080a4337
:1015f000c0339b001a5031e01b4afb1d1b781900b9
:101600000f230b40083b9b0806339b00d318043381
:101610001b68fa1d1278110003220a40d200ff2134
:1016200091400a00d2431a4011003b689b01ff22ff
:101630001a40fb1d1b78180003230340db009a406f
:101640000948fb1d1b781c000f232340083b9b0807
:101650000a4306339b00c31804331a60c046bd46d4
:0c16600003b090bd00e100e000ed00e0f0
:020000040000fa
:10166c0080b500af2f4b304a1a602e4b2f4a9a810f
:10167c002c4bc02292025a60c0462a4bdb69002bcd
:10168c00fbd1284b1a68274b02210a431a60c0462b
:10169c00244bdb69002bfbd1254b00221a62244b17
:1016ac0000229a62224b0022da62214b3422002162
:1016bc0099541f4b3c22002199541d4b00229a63d4
:1016cc001b4b0022da871a4b00221a60184b00229f
:1016dc009a60174b0022da60154b00221a75144bd6
:1016ec0000221a77124b00229a610e4b5b6807227c
:1016fc001340012b06d00e4b80221a630c4b802218
:10170c001a6105e00a4b40221a63094b40221a6108
:10171c00044b80229a75034b04229a75c046bd4631
:10172c0080bdc046001c0042040120402bf6ffff88
:04173c007003002016
:020000040000fa
:1017400080b500af2f4b304a1a602e4b2f4a9a813a
:101750002c4bc02292025a60c0462a4bdb69002bf8
:10176000fbd1284b1a68274b02210a431a60c04656
:10177000244bdb69002bfbd1254b00221a62244b42
:1017800000229a62224b0022da62214b342200218d
:1017900099541f4b3c22002199541d4b00229a63ff
:1017a0001b4b0022da871a4b00221a60184b0022ca
:1017b0009a60174b0022da60154b00221a75144b01
:1017c00000221a77124b00229a610e4b5b680722a7
:1017d0001340012b06d00e4b80221a630c4b802243
:1017e0001a6105e00a4b40221a63094b40221a6134
:1017f000044b80229a75034b04229a75c046bd465d
:1018000080bdc04600140042040131402bf6ffffaa
:04181000b003002001
:020000040000fa
:1018140080b500af0121012001f00cfc012002f091
:101824004bf80121012001f0ebfd012002f054f8f6
:101834000121012001f0dcfb012002f02df81d4bf9
:101844001a681d4b1100180001f0f0ff194b1a68bb
:101854001a4b1100180001f0d7ff194b1a68194be5
:101864001100180002f006f8174b1a68174b110004
:10187400180001f0edff01f003ff02f03df801f064
:1018840083ff134b1a7801218a431a70104b1a787c
:1018940002218a431a700f4b00221a700d4b00224a
:1018a4005a700c4b8022d2009a6001f001f9c046b4
:1018b400bd4680bd1c040020dd2c0000352d000039
:1018c400200400203d390000240400201d390000bc
:0818d4002804002000000020a0
:020000040000fa
:1018dc0080b582b000af2b4b01221a70c046294b49
:1018ec005b7edbb25bb2002bf9db274b1b68db0e9c
:1018fc007b60264b1b68072213403b607b689ab2c7
:10190c003b689bb25b019bb213439bb21bb2ff22a1
:10191c0013401ab21d4b1b68db089bb21b0219b299
:10192c00e023db000b401bb213431ab2154b92b2ef
:10193c001a85144b0322da70124b02225a70114b87
:10194c00134a1a61c0460f4b5b7edbb25bb2002bb5
:10195c00f9db0c4bc12292009a80c046094b5b7e8e
:10196c00dbb25bb2002bf9db064b0f221a76c046ba
:10197c00044b5b7edbb25bb2002bf9dbc046bd4691
:10198c0002b080bd004000422060800024608000d6
:04199c00021800002d
:020000040000fa
:1019a00080b588b000af786039600023fb612a4bb6
:1019b000db6abb61284b9b6a7b613fe0ba697b694c
:1019c0009a4240d0254b5b6807221340012b0fd071
:1019d0007a68fb69d3182249ba698a181278d2b298
:1019e0001a70fb690133fb61bb690133bb611ee007
:1019f000bb695b003b61fb695b00fb607a68fb686d
:101a0000d31817493a698a181278d2b21a703b690a
:101a10005a1cfb6801337968cb1811498a5cd2b231
:101a20001a70bb690133bb61fb690133fb610a4b6f
:101a30001b6bba699a4201d30023bb61fa693b6808
:101a40009a42bbd300e0c046034bba69da62fb6935
:101a50001800bd4608b080bd70030020001c004285
:041a60002001002041
:020000040000fa
:101a640080b588b000af786039600023fb612a4bf1
:101a7400db6abb61284b9b6a7b613fe0ba697b6987
:101a84009a4240d0254b5b6807221340012b0fd0ac
:101a94007a68fb69d3182249ba698a181278d2b2d3
:101aa4001a70fb690133fb61bb690133bb611ee042
:101ab400bb695b003b61fb695b00fb607a68fb68a8
:101ac400d31817493a698a181278d2b21a703b6946
:101ad4005a1cfb6801337968cb1811498a5cd2b26d
:101ae4001a70bb690133bb61fb690133fb610a4bab
:101af4001b6bba699a4201d30023bb61fa693b6844
:101b04009a42bbd300e0c046034bba69da62fb6970
:101b14001800bd4608b080bdb00300200014004288
:041b2400200200207b
:020000040000fa
:101b2800f00300201c0000000000000070030020eb
:101b3800400000000000000020010020000100001b
:101b480000000000b003002040000000000000007a
:101b58002002002000010000000000000c0400200a
:101b68001c00000000000000000000202001000010
:101b7800000000003d0400200100000001000000fa
:101b880001000000280400200400000000000000fc
:101b98003804002001000000000000003904002083
:101ba80004000000000000002c04002004000000d5
:101bb800000000002003002050000000000000008a
:101bc80030040020080000000000000000000000b1
:101bd8000000000066666666666666666666666635
:020000040000fa
:101be80010b588293cd015dc81294dd003dc80292b
:101bf8004ad0002010bd822911d08429f9d1196852
:101c0800002a26d00a1d1a6000228b5e0360db17ab
:101c1800436011e0a02930d010dc9029e9d119687f
:101c28000724002a2ed00919a1430a0008321a6095
:101c38000b684c68036044600120dbe7c02901d0d1
:101c4800f029d6d11a68111d1960136803600023a2
:101c5800dee70c1d1c600b689bb203604260ebe77b
:101c68001968002a04d00a1d1a600023cb56cde754
:101c78000c1d1c600b68dbb2efe71a68111d1960b8
:101c88001368c3e70731cfe71968002a03d00a1d94
:0e1c98001a600b68bae70c1d1c600b68dde7d4
:020000040000fa
:101ca80080b588b000af0200bb1d1a80264b9b6828
:101cb8007b61254bdb683b611b23fb1800221a70f4
:101cc8007b690133fb61204b1b69fa699a4201d396
:101cd8000023fb61fa693b699a422dd01b4b5b6874
:101ce80007221340012b08d0bb1d1b88d9b2184a04
:101cf8007b69d3180a1c1a7017e07b695b00fb60cc
:101d0800bb1d1b88d9b2124afb68d3180a1c1a706b
:101d1800fb680133fb60bb1d1b881b0a9bb2d9b251
:101d28000b4afb68d3180a1c1a70074bfa699a60a9
:101d38001b23fb1801221a701b23fb181b781800a1
:101d4800bd4608b080bdc04670030020001c00429c
:041d5800a0010020c6
:020000040000fa
:101d5c0080b588b000af0200bb1d1a80264b9b6873
:101d6c007b61254bdb683b611b23fb1800221a703f
:101d7c007b690133fb61204b1b69fa699a4201d3e1
:101d8c000023fb61fa693b699a422dd01b4b5b68bf
:101d9c0007221340012b08d0bb1d1b88d9b2184a4f
:101dac007b69d3180a1c1a7017e07b695b00fb6017
:101dbc00bb1d1b88d9b2124afb68d3180a1c1a70b7
:101dcc00fb680133fb60bb1d1b881b0a9bb2d9b29d
:101ddc000b4afb68d3180a1c1a70074bfa699a60f5
:101dec001b23fb1801221a701b23fb181b781800ed
:101dfc00bd4608b080bdc046b003002000140042b0
:041e0c00a002002010
:020000040000fa
:101e1000f0b54b6889b005930b6807009c460793a3
:101e2000cb680c008e68049310685168cd0f44d0c5
:101e30000b000200002150429941059b002b08db5a
:101e40000222634693430793002d02d1079b5a0752
:101e50002ad5731e07aa02920a22009301920b0050
:101e60000200200000f016fc002d02d1079b5a074b
:101e70001ed501382d23002d00d1023b049a1354a6
:101e800023695a1e049b121a1918079b38000093e5
:101e9000330000f085fb7b68db0503d5636898425f
:101ea00000da180009b0f0bd1b07db0ff31ad1e709
:101eb0001b07e5d501382023e0e7059b002bbfda9f
:021ec000c4e775
:020000040000fa
:101ec40080b500af002001f0d7f8fff7a1fc00f0c7
:101ed400fdf9224b1b6a5b0cdb015bb2db115ab2ce
:101ee4001f4b111c0122080010401a7801218a435b
:101ef400111c021c0a431a70184b1b6adb0cdb0111
:101f04005bb2db115ab2164b111c01220a40901825
:101f14001a7802218a43111c021c0a431a70104bbe
:101f24001a78104b1a700f4b1b78012b12d0032b0d
:101f34000ad0002b10d10c4b00221a700b4b00223c
:101f44001a7001f00bfc08e0074b02221a70fff72d
:101f54003ff802e0c046bae7c046b8e70044004193
:101f640028040020380400203a0400203d04002006
:020000040000fa
:101f740080b588b000af78601f23fb1800221a7068
:101f8400234b9b687b61224bdb68bb617b683b61b5
:101f9400ba697b699a4233d01e4b5b6807221340af
:101fa400012b0ad01c4abb69d3181b78dab23b69ef
:101fb4001a70bb690133bb6114e0bb695b00fb6051
:101fc400154afb68d3181b78dab23b691a70fb68b0
:101fd4005a1c3b69013310498a5cd2b21a70bb693e
:101fe4000133bb610a4b1b69ba699a4201d30023ce
:101ff400bb61074bba69da601f23fb1801221a7010
:102004001f23fb181b781800bd4608b080bdc046ce
:0c20140070030020001c0042a00100200e
:020000040000fa
:1020200080b584b000af786039600023fb6036e093
:10203000254b5b6807221340012b0dd07a68fb68a3
:10204000d3181b789bb21800fff72efe031e2bd06f
:10205000fb680133fb6022e0fb685b0001337a68b8
:10206000d3181a780a203b181a803b183a1812889d
:1020700012021a80fb685b007a68d3181b7899b249
:102080003b183a1812880a431a803b181b8818001c
:10209000fff70afe031e09d0fb680133fb60fa68f4
:1020a0003b689a42c4d302e0c04600e0c04601f05b
:1020b00069f8031e02d0044b01229a75fb681800d0
:0c20c000bd4604b080bdc046001c0042bc
:020000040000fa
:1020cc0080b588b000af78601f23fb1800221a700f
:1020dc00234b9b687b61224bdb68bb617b683b615c
:1020ec00ba697b699a4233d01e4b5b680722134056
:1020fc00012b0ad01c4abb69d3181b78dab23b6996
:10210c001a70bb690133bb6114e0bb695b00fb60f7
:10211c00154afb68d3181b78dab23b691a70fb6856
:10212c005a1c3b69013310498a5cd2b21a70bb69e4
:10213c000133bb610a4b1b69ba699a4201d3002374
:10214c00bb61074bba69da601f23fb1801221a70b6
:10215c001f23fb181b781800bd4608b080bdc04675
:0c216c00b003002000140042a00200207c
:020000040000fa
:1021780080b584b000af786039600023fb6036e03a
:10218800254b5b6807221340012b0dd07a68fb684a
:10219800d3181b789bb21800fff7dcfd031e2bd069
:1021a800fb680133fb6022e0fb685b0001337a685f
:1021b800d3181a780a203b181a803b183a18128844
:1021c80012021a80fb685b007a68d3181b7899b2f0
:1021d8003b183a1812880a431a803b181b881800c3
:1021e800fff7b8fd031e09d0fb680133fb60fa68ee
:1021f8003b689a42c4d302e0c04600e0c04601f002
:102208001df8031e02d0044b01229a75fb681800c2
:0c221800bd4604b080bdc046001400426a
:020000040000fa
:1022240080b582b000affb1d00221a70bb1d0022d6
:102234001a7000f0e5ff0200bb1d1a70bb1d1b786d
:10224400002b3ad03b0001211800fff709fc3b00aa
:102254001b783c2b05d11c4a0e23ff330021d1549b
:102264002be03b001b783e2b14d1174a0e23ff337f
:10227400d35c5a1cd0b214490e22ff328854190080
:10228400114b8d225b189b1800221a70fb1d012232
:102294001a7012e00c4a0e23ff33d35c5a1cd0b2de
:1022a40009490e22ff32885418003b001978064b66
:1022b4008d221b189b180a1c1a70fb1d1b78180012
:0c22c400bd4602b080bdc04600000020f6
:020000040000fa
:1022d00080b500af244b5b78012b3bd1224b002211
:1022e0005a70224b1b78012b16d0022b1ad0002bd0
:1022f00032d11f4b1b780133dab21d4b1a701c4bc5
:102300001b780a2b2ad91a4b00221a7019499c22d1
:102310008023db008b5021e016499c228023db00c8
:102320008b501ee0144b1b780133dab2124b1a703b
:10233000104998228023db008b500f4b1b78072b12
:102340000ed10d4b00221a700a4994228023db0023
:102350008b5005e0c04604e0c04602e0c04600e005
:10236000c046c046bd4680bd000000203a040020a3
:0c2370003b040020004400413c0400201d
:020000040000fa
:10237c00f7b505000c0017001e00002a04d001f070
:10238c001bf8336818183060a36800240193019b74
:10239c00002b01d09c421fdaeb6bea6c934214d2f7
:1023ac005a1cea631878002f1dd0202803d0030094
:1023bc00093b042b17d8eb6c002b02d0eb6b013bc9
:1023cc00eb63089b002b19d109e0280000f0fafb05
:1023dc00431ce8d1002c05d0089b002b0cd120000d
:1023ec00441ea041febd089b002b00d0185533683d
:1023fc00013401333360cae7002ff0d00023089a70
:04240c001355ece791
:020000040000fa
:10241000f7b50b6916000193cb68050000938f6830
:1024200000f0d0ff336818183060002f01d1019bf5
:102430005f1e0024bc4229da019b013ba34225dd3b
:10244000eb6bea6c93420fd25a1cea6318780300d4
:1024500002222b3b934323430ed1009b012418708f
:10246000336801333360e5e7280000f0b1fb431c1b
:10247000edd1002c0ad1febd0300303b092b09d958
:10248000eb6c002b02d0eb6b013beb630020009b5d
:102490001855f0e7009b1855336801340133336059
:0224a000c8e78b
:020000040000fa
:1024a40080b582b000af1c4b9b8c9bb21a4a802132
:1024b4008b439bb29384c046174bdb6810221340b6
:1024c400102bf9d1154b1b689b0e7b607b683f2b4f
:1024d40001d07b6800e01f237b607b689b021b04a8
:1024e4001a0c0d4b802189000a439a62c0460a4b9c
:1024f400db6810221340102bf9d1074b02229a8477
:10250400c046054bdb6810221340102bf9d1c0469e
:10251400bd4602b080bdc046000800402460800073
:020000040000fa
:1025240030b588292cd012dc812930d003dc8029f5
:102534002dd0002030bd82290ed08429f9d119680c
:1025440000680a1d1a600b6818800120f2e7a029b0
:102554000fd00adc9029ecd10468456819680a1d7b
:102564001a600b681c605d60efe7c02901d0f02998
:10257400dfd11a680168101d186013681960e4e758
:10258400196800680a1d1a600b681870dde719687d
:0c25940000680a1d1a600b681860d6e78a
:020000040000fa
:1025a000f0b51d00012389b014000e9a06001a40f0
:1025b0000391029201d1a5420ad82200039930006a
:1025c00000f03effa54203d82500280009b0f0bd69
:1025d0002f1b01973a00102f00d91022202104a8a8
:1025e00001f006fb019b0f2b0ed80f2204a93a40e5
:1025f000300000f025ff029b002be6d1220003995a
:10260000300000f01dffe0e7102204a9300000f0c8
:0a26100017ff019b103b0193e4e764
:020000040000fa
:10261c0080b588b000af78600023fb61184b5b6815
:10262c0001333b617b68174a5343fb60144b1b68b7
:10263c0001221340012b1ed1114b9b687b6116e0cc
:10264c000f4b9b68bb607a69bb68d31abb61ba68d5
:10265c007b699a4205d93a69bb68d31a7a69d3184f
:10266c00bb61bb687b61fa69bb69d318fb61fa6912
:10267c00fb689a42e4d3c046bd4608b080bdc04654
:08268c0010e000e080bb00003b
:020000040000fa
:10269400f7b5040019000a9fe368666800933b6875
:1026a400100001932369013b1c00002e00da01266f
:1026b4000022009dea5435000123002c03dc002b8a
:1026c4001cd02000febd02000a4309d1002d07dc06
:1026d400089a921b5219002af1dd019a9207eed54d
:1026e400099b099adb1700f04bfe8c460099013ccc
:1026f400130030320a55013d6146dee710233a6883
:062704009a433a60dde794
:020000040000fa
:10270c0080b582b000af194b34229b5cdbb2002b3e
:10271c0027d000f011fd03007b60144b1b6a002bcb
:10272c001fd0124b5b6a3b60104b3c229b5cdbb2b4
:10273c00002b0bd00d4b9b6b7a689a4211d30b4b31
:10274c001b6a3a681100002098470ae0074b9b6b04
:10275c007a689a4205d1054b1b6a3a681100002031
:10276c009847c046bd4602b080bdc04670030020ed
:020000040000fa
:10277c0080b582b000af194b34229b5cdbb2002bce
:10278c0027d000f039fd03007b60144b1b6a002b33
:10279c001fd0124b5b6a3b60104b3c229b5cdbb244
:1027ac00002b0bd00d4b9b6b7a689a4211d30b4bc1
:1027bc001b6a3a681100002098470ae0074b9b6b94
:1027cc007a689a4205d1054b1b6a3a6811000020c1
:1027dc009847c046bd4602b080bdc046b00300203d
:020000040000fa
:1027ec0080b582b000af184b1b7ddbb2002b26d01e
:1027fc0001f0cef803007b60134b1b68002b1ed03e
:10280c00114b5b683b60104b1b7fdbb2002b0bd07a
:10281c000d4b9b697a689a4211d30b4b1b683a6833
:10282c001100032098470ae0074b9b697a689a428b
:10283c0005d1054b1b683a68110003209847c04628
:0c284c00bd4602b080bdc04670030020f5
:020000040000fa
:1028580080b582b000af184b1b7ddbb2002b26d0b1
:1028680001f0a6f803007b60134b1b68002b1ed0f9
:10287800114b5b683b60104b1b7fdbb2002b0bd00e
:102888000d4b9b697a689a4211d30b4b1b683a68c7
:102898001100032098470ae0074b9b697a689a421f
:1028a80005d1054b1b683a68110003209847c046bc
:0c28b800bd4602b080bdc046b003002049
:020000040000fa
:1028c40010b584291fd007dc812915d0822922d094
:1028d400802911d0002010bd90291cd008dc882943
:1028e400f8d119680c1d1c600b6803601a7010e0a5
:1028f400a02901d0c029edd119680c1d1c600b68fa
:1029040003601a6005e019680c1d1c600b68036005
:102914001a800120dfe719680c1d1c600b68036036
:082924001a60d2175a60f4e7b3
:020000040000fa
:10292c0080b500af01f004f9fff7b6fd00f0d0fe62
:10293c000b4b0c4a5a800a4b0b4a5a80084b0b4ad9
:10294c005a80074b0a4a5a80054b0a4a5a800a4b4e
:10295c000a4a1a620a4b00221a62c046bd4680bd62
:10296c00000c004017400000194000001b40000004
:10297c001c4000001e40000000040040a018010094
:04298c0000080040ff
:020000040000fa
:102990004b1801225205da4217d25b0d0722d201f1
:1029a0009b1a0fd9ff2b13d2db05ca0fd207134393
:1029b0000903020d1143490ac200524100d90131f5
:1029c000c8187047c80fc007704706d1002804d147
:1029d000c80f0002ff30c00570470123db070a0063
:1029e000c900400f084398431a4010435b0a18433c
:0229f00070472e
:020000040000fa
:1029f40080b582b000af1de0bb1d1800fff7b8fa28
:102a0400031e13d0114b5b6807221340012b06d021
:102a1400bb1d1b88dab20d4b92b21a8503e00b4a38
:102a2400bb1d1b881385fff7dffe03e0074b012264
:102a34001a7507e0054b1b7edbb21a000123134015
:102a4400012bd9d0c046bd4602b080bd001c004257
:020000040000fa
:102a540080b582b000af1de0bb1d1800fff734fb4a
:102a6400031e13d0114b5b6807221340012b06d0c1
:102a7400bb1d1b88dab20d4b92b21a8503e00b4ad8
:102a8400bb1d1b881385fff7e5fe03e0074b0122fe
:102a94001a7507e0054b1b7edbb21a0001231340b5
:102aa400012bd9d0c046bd4602b080bd00140042ff
:020000040000fa
:102ab40080b500af134b08225a61124a94230821af
:102ac400d1500a20fff7a8fd0e4a98230821d150bf
:102ad400c820fff7a1fd0b4aa023d358db0a01222b
:102ae400134008d1084b01229a70084b01221a7036
:102af400fff7ecfbfce7044b00229a70c046bd468e
:102b040080bdc04600440041000000203a0400207b
:020000040000fa
:102b1400002370b59cb004000d00160005931390bb
:102b2400069098421edb114bc318002104a814938d
:102b340000f05cff209a219b31000092019304a8cd
:102b44000122fdf7cbfa002d0ad0139b0293149bac
:102b54000393039a029b9b1a199a9b18e4182c60fe
:102b64001cb070bd01235b42dfe7c046ffffff7f5f
:020000040000fa
:102b740000230e4a10b513600d4a13600d4a13600a
:102b84000d4a13600d4a13600d4a536213610133f9
:102b9400936001f047f8fef71afa0a4c0a4b9c427c
:102ba40000d310bd08cc9847f8e7c0463004002095
:102bb4002c030020280300202003002024030020ed
:0c2bc40030030020c4000000c800000026
:020000040000fa
:102bd000036d70b50400002b07d0426d934204dcf6
:102be00000230120e364404270bd200000f0f9fda5
:102bf0000028f5db236de16b226c002b14d0656d92
:102c00005b1b551aab420fdc013bcb18e364002a77
:102c100004d0636d521a01329a18626501390b783b
:0c2c20008342e1d00870dfe71300efe70b
:020000040000fa
:102c2c0080b500af114b01221a80c0460f4bdb7be5
:102c3c00dbb25bb2002bf9db0c4bec22d2001a801e
:102c4c000a4b0b4a1a83094b3b229a73094b0022fd
:102c5c001a60064b01225a73c046044bdb7bdbb275
:102c6c005bb2002bf9dbc046bd4680bd0030004294
:082c7c00ed3600000c040020fd
:020000040000fa
:102c840080b500af114b01221a80c0460f4bdb7b8d
:102c9400dbb25bb2002bf9db0c4bec22d2001a80c6
:102ca4000a4b0b4a1a83094b3b229a73094b0022a5
:102cb4001a60064b01225a73c046044bdb7bdbb21d
:102cc4005bb2002bf9dbc046bd4680bd002c004240
:082cd4004e1200001404002060
:020000040000fa
:102cdc00b0b586b000af02003960fb1d1a70114b05
:102cec009b78dbb2012b18d100f086fa0200172476
:102cfc003b191a703b191b78002b0ed03b191a7814
:102d0c000c257b1911001800fef7a6fe3b191a784a
:102d1c007b1911001800fff77df9c046bd4606b0bf
:082d2c00b0bdc046000000200c
:020000040000fa
:102d3400b0b586b000af02003960fb1d1a70114bac
:102d44009b78dbb2012b18d100f0faf902001724aa
:102d54003b191a703b191b78002b0ed03b191a78bb
:102d64000c257b1911001800fef718fe3b191a7880
:102d74007b1911001800fff7fdf9c046bd4606b0e7
:082d8400b0bdc04600000020b4
:020000040000fa
:102d8c0080b582b000af114b5b8b9ab2bb1d072193
:102d9c000a401a80bb1d1b88002b12d00c4bba1d8d
:102dac001288da8700f0a8f9094b1b6a002b08d0af
:102dbc00074b5b6a3b60064b1b6a3a6811000220aa
:102dcc009847c046bd4602b080bdc046001c0042bc
:042ddc007003002060
:020000040000fa
:102de00080b582b000af114b5b8b9ab2bb1d07213f
:102df0000a401a80bb1d1b88002b12d00c4bba1d39
:102e00001288da8700f0def9094b1b6a002b08d024
:102e1000074b5b6a3b60064b1b6a3a681100022055
:102e20009847c046bd4602b080bdc046001400426f
:042e3000b0030020cb
:020000040000fa
:102e340030b51500012289b0524201920432ff32aa
:102e44000292002800d16846002403900491a14214
:102e540000d04c1e0594002906da4f220120074bae
:102e640040421a6009b030bd0022079002700690fb
:102e74001a00290001a800f003fef3e7340400203f
:020000040000fa
:102e840010b581290fd0832903d0802914d00020c4
:102e940010bd1368191d11601b6841680068186033
:102ea40059600120f4e71368191d11601b6801685b
:102eb400426819605a60f4e71368416800681c1d91
:0c2ec40014601c68fff762fd2060eae764
:020000040000fa
:102ed0000200002310b54832d3560400591e0b439c
:102ee000137043698269934203d90022c36a1100b7
:102ef000984700236068a362a3616361830705d5d7
:102f00001023184360600120404210bda368e268ae
:0c2f100000079b182364e363c017f6e77a
:020000040000fa
:102f1c0010b5064c2378002b07d1054b002b02d0a3
:102f2c00044800e000bf0123237010bdf003002013
:102f3c000000000000000000044b10b5002b03d073
:102f4c000349044800e000bf10bdc046000000006b
:082f5c00f40300200000000056
:020000040000fa
:102f640080b500afbff35f8f62b603210c20fef77c
:102f74000dfb0c2000f0bafa03210e20fef706fb2d
:102f84000e2000f0b3fa03211220fef7fffa1220fc
:102f940000f0acfa03211320fef7f8fa132000f036
:082fa400a5fac046bd4680bd40
:020000040000fa
:102fac0010b50a4b98470a4b984700f0e9fa094bc1
:102fbc00ff229343084a9360084b9847084b984765
:102fcc00084b9847fef778fffee7c0461f09000044
:102fdc001f0900000000000000ed00e0752b000050
:082fec001f0900001f0900008d
:020000040000fa
:102ff40080b584b000af0200fb1d1a70bb1d0a1c13
:103004001a700f203b180a4a3421525c1a70084b7c
:10301400fa1d342112785a54054bba1d3c211278fa
:103024005a543b181b781800bd4604b080bdc046f6
:043034007003002005
:020000040000fa
:1030380080b584b000af0200fb1d1a70bb1d0a1cce
:103048001a700f203b180a4a3421525c1a70084b38
:10305800fa1d342112785a54054bba1d3c211278b6
:103068005a543b181b781800bd4604b080bdc046b2
:04307800b003002081
:020000040000fa
:10307c0080b582b000af78600d4b06225a60fdf728
:10308c0097fefff74dfcfef755fb00f05bfd00f0e3
:10309c0035fbfef7e5fafef71bfcfff7edfdfff73e
:1030ac00bffdfff759ffc046bd4602b080bdc0460c
:0430bc00004000418f
:020000040000fa
:1030c000f7b597b201933b00140c86b2050c73431d
:1030d0006f4366436543f6191c0ca4199c46a7422e
:1030e00002d980235b02ed186346260c751924046f
:1030f0009eb2019ba4194343200051435b19591808
:0431000003b0f0bd6b
:020000040000fa
:1031040080b582b000afbb1d00221a800b4b802219
:103114001a760a4b07225a8303e0084abb1d128d14
:103124001a80064b1b7edbb21a0004231340042bc7
:10313400f3d0c046bd4602b080bdc046001c00426c
:020000040000fa
:1031440080b584b000af0d4bdb6abb600b4b9b6a50
:103154007b607a68bb689a4204d37a68bb68d31ae6
:10316400fb6006e0054b1a6bbb68d31a7a68d31868
:10317400fb60fb681800bd4604b080bd70030020ee
:020000040000fa
:1031840080b584b000af0d4b9b68bb600b4bdb6814
:103194007b60ba687b689a4204d3ba687b68d31aa6
:1031a400fb6006e0054b1a697b68d31aba68d3182a
:1031b400fb60fb681800bd4604b080bd70030020ae
:020000040000fa
:1031c40080b582b000afbb1d00221a800b4b802259
:1031d4001a760a4b07225a8303e0084abb1d128d54
:1031e4001a80064b1b7edbb21a0004231340042b07
:1031f400f3d0c046bd4602b080bdc04600140042b4
:020000040000fa
:1032040080b584b000af0d4bdb6abb600b4b9b6a8f
:103214007b607a68bb689a4204d37a68bb68d31a25
:10322400fb6006e0054b1a6bbb68d31a7a68d318a7
:10323400fb60fb681800bd4604b080bdb0030020ed
:020000040000fa
:1032440080b584b000af0d4b9b68bb600b4bdb6853
:103254007b60ba687b689a4204d3ba687b68d31ae5
:10326400fb6006e0054b1a697b68d31aba68d31869
:10327400fb60fb681800bd4604b080bdb0030020ad
:020000040000fa
:1032840080b582b000af0c4afb1d927b1a700a4bca
:103294003b229a73094b1b68002b09d0074b5b68d0
:1032a4003b60064b1b683968fa1d1278100098477a
:1032b400c046bd4602b080bd003000420c04002070
:020000040000fa
:1032c40080b582b000af0c4afb1d927b1a700a4b8a
:1032d4003b229a73094b1b68002b09d0074b5b6890
:1032e4003b60064b1b683968fa1d1278100098473a
:1032f400c046bd4602b080bd002c0042140400202c
:020000040000fa
:10330400030010b51a78202a0dd0110009390429b8
:1033140009d900212b2a02d02d2a01d101310133f0
:1033240000200a2404e00133ece760430133801aef
:103334001a78303a092af8d9002900d1404210bd40
:020000040000fa
:10334400f7b5551c846bff350700019100920021ed
:103354002a00200000f000fb002800d0051b009b81
:103364002e009d4200d91e0032002100019800f079
:103374000bfca31964193000fb633c64bc63febd01
:020000040000fa
:10338400002b11d1002a0fd1002900d1002802d02e
:103394000021c943081c07b4024802a14018029046
:1033a40003bdc046d108000003b4684601b50298c5
:1033b400fef77af8019b9e4602b00cbc7047c046eb
:020000040000fa
:1033c40070b504000025e36be26c934211d25a1ce1
:1033d400e263187820280ad00938042807d9e36c56
:1033e400002b02d0e36b013be363280070bd013581
:0e33f400e9e72000fff7eafb431cebd1f5e709
:020000040000fa
:1034040080b584b000af0200fb1d1a70bb1d0a1cfe
:103414001a700f217b18084a127d1a70064bfa1d88
:1034240012781a75044bba1d12781a777b181b7818
:0c3434001800bd4604b080bdb0030020ad
:020000040000fa
:10344000436870b50400d80512d52569954200d9a6
:103450001500002d0bd02a00606900f097fb22694f
:1034600063695b19551b0022636125611a7070bd89
:0c347000db06fcd4200000f0b1fbf8e704
:020000040000fa
:10347c001c2101231b04984201d3000c10391b0a98
:10348c00984201d3000a08391b09984201d300095c
:10349c00043902a2105c40187047c04604030202b3
:0c34ac0001010101000000000000000010
:020000040000fa
:1034b80080b582b000af0b4b1b7edbb21a00012334
:1034c8001a40fb1d511e8a411a70fb1d1b78002be8
:1034d80002d0044b01221a76fb1d1b781800bd464a
:0834e80002b080bd004000426b
:020000040000fa
:1034f00080b582b000af0200fb1d1a70fb1d1b7867
:103500007f2b09d8fb1d1b781a001f231a40044b80
:10351000012191400a001a60c046bd4602b080bd3c
:0435200000e100e0e6
:020000040000fa
:1035240080b500af09e00a4b1b8d9bb21800fdf774
:10353400d7fe031e01d0fff7e7f8054b1b7edbb275
:103544001a0004231340042bedd0c046bd4680bdb1
:04355400001c004215
:020000040000fa
:1035580080b500af09e00a4b1b8d9bb21800fdf740
:103568002fff031e01d0fff705f9054b1b7edbb2c9
:103578001a0004231340042bedd0c046bd4680bd7d
:0435880000140042e9
:020000040000fa
:10358c0010b50a480168002903d14368002b00d10b
:10359c0010bd04008368064a9bb20c349b009b58f8
:1035ac0042682000984780002018ebe7281b000099
:0435bc00783b000058
:020000040000fa
:1035c000f0b5050000200a4a4400a65c002e02d196
:1035d00012195078f0bd296801300f78c0b2b74297
:1035e00003d112190131507829600a28ebd9f1e78b
:0435f000103b00008c
:020000040000fa
:1035f40010b50b680c001b78202b03d0093b00226c
:10360400042b0bd8fff7dcfe02002368591c216051
:103614005b78202bf9d0093b042bf6d9100010bda0
:020000040000fa
:1036240070b50d001600040098b0602200216846b1
:1036340000f0dcfa054b32002900684602940e942f
:10364400119300f011fa18b070bdc0464f3c000051
:020000040000fa
:1036540037b50d00d46811001a00fef7d7fe431cdd
:103664000cd00a2201a9200000f0a2fa019b2860d4
:0e36740069600120a34201d1022040423ebd08
:020000040000fa
:1036840080b500af084b1b78dbb2074a02210b431d
:10369400dbb21370c046044b5b7edbb25bb2002b23
:0c36a400f9dbc046bd4680bd004000427e
:020000040000fa
:1036b00080b500af084b1b7bdbb2074a02210b43ee
:1036c000dbb21373c046044b5b7edbb25bb2002bf4
:0c36d000f9dbc046bd4680bd0040004252
:020000040000fa
:1036dc0080b500af074b084a5a60c046054b5b7873
:1036ec00dbb21a0080231340802bf7d0c046bd46b6
:0c36fc0080bdc046000c0040000701002b
:020000040000fa
:1037080080b500af074b00221a60064b00229a6072
:10371800044b054a5a60034b04221a60c046bd4652
:0c37280080bdc04610e000e07fbb000048
:020000040000fa
:1037340080b500af084b1b889bb2074a02210b439c
:103744009bb21380c046044bdb7bdbb25bb2002b25
:0c375400f9dbc046bd4680bd00300042dd
:020000040000fa
:1037600080b500af084b1b889bb2074a02218b43f0
:103770009bb21380c046044bdb7bdbb25bb2002bf9
:0c378000f9dbc046bd4680bd00300042b1
:020000040000fa
:10378c0080b500af084b1b889bb2074a02210b4344
:10379c009bb21380c046044bdb7bdbb25bb2002bcd
:0c37ac00f9dbc046bd4680bd002c004289
:020000040000fa
:1037b800002380290fdb812901dd83290bd1072113
:1037c800136807338b431900083111601a685b6866
:0a37d80002604360012318007047ef
:020000040000fa
:1037e20037b50400fff773fb002802d001204042e6
:1037f2003ebd6b46dd1d0122636c29002000984707
:083802000128f3d12878f3e757
:020000040000fa
:10380c0080b582b000af78603960054b7a681a6277
:10381c00034b3a685a62c046bd4602b080bdc046f2
:04382c007003002005
:020000040000fa
:1038300080b582b000af78603960054b7a681a6253
:10384000034b3a685a62c046bd4602b080bdc046ce
:04385000b0030020a1
:020000040000fa
:1038540080b582b000af78603960054b7a681a6031
:10386400034b3a685a60c046bd4602b080bdc046ac
:043874000c04002020
:020000040000fa
:1038780080b582b000af78603960054b7a681a600d
:10388800034b3a685a60c046bd4602b080bdc04688
:0438980014040020f4
:020000040000fa
:10389c0080b582b000af78607b68002b02d0034b00
:1038ac007a689a63c046bd4602b080bd70030020a2
:020000040000fa
:1038bc0080b582b000af78607b68002b02d0034be0
:1038cc007a689a63c046bd4602b080bdb003002042
:020000040000fa
:1038dc0080b582b000af78607b68002b02d0034bc0
:1038ec007a689a61c046bd4602b080bdb003002024
:020000040000fa
:1038fc0080b500af054b00229a60044b1a68034b4d
:10390c0001210a431a60c046bd4680bd10e000e0ac
:020000040000fa
:10391c0080b582b000af02003960fb1d1a70034bfa
:10392c0001221a70c046bd4602b080bd00000020c6
:020000040000fa
:10393c0080b582b000af02003960fb1d1a70034bda
:10394c0001225a70c046bd4602b080bd0000002066
:020000040000fa
:10395c00c9b2002a0ad003788b4208d0821802e040
:10396c0003788b4203d001308242f9d1002070479a
:020000040000fa
:10397c00002310b5934206d103201840421e9041fb
:0e398c009b08c01810bdc45ccc540133f2e798
:020000040000fa
:10399c00b0b500af044b1c6900f031f80300e31a1a
:0c39ac00013b1800bd46b0bd70030020b8
:020000040000fa
:1039b800b0b500af044b1c6900f02ff80300e31a00
:0c39c800013b1800bd46b0bdb00300205c
:020000040000fa
:1039d4000300303b02000120092b06d920230020dc
:0c39e40013430522613b9a4240417047aa
:020000040000fa
:1039f000036cc26b10b59c1a01654465002902d0a6
:0a3a00008c4200dd5318c36410bdb2
:020000040000fa
:103a0a0080b582b000affff7b8fb03007b607b682c
:083a1a001800bd4602b080bd9a
:020000040000fa
:103a220080b582b000affff70cfc03007b607b68bf
:083a32001800bd4602b080bd82
:020000040000fa
:103a3a0080b584b000aff860b9607a6001235b4258
:083a4a001800bd4604b080bd68
:020000040000fa
:103a54000378002b06d0030001331a78002afbd127
:083a6400181a70470020fce76e
:020000040000fa
:103a6c0013b50400019201aafcf74afd6368db065a
:083a7c0001d50120404216bdf6
:020000040000fa
:103a840013b50400019201aafcf748ff6368db0642
:083a940001d50120404216bdde
:020000040000fa
:103a9c00d0400b1cd1409c46203ad3401843524294
:083aac00634693401843704784
:020000040000fa
:103ab4009140031c90409c46203a93401943524243
:083ac4006346d340194370472b
:020000040000fa
:103acc0010b5002903d1fff7d3fc203002e0081c0d
:083adc00fff7cefc10bdc0464f
:020000040000fa
:103ae4000eb403b503aa02ca019200f06bf802b047
:063af40008bc03b01847f6
:020000040000fa
:103afa000eb403b503aa02ca0192fff78efd02b003
:063b0a0008bc03b01847df
:020000040000fa
:103b100068076c094c836a9074a07ac0008068883a
:063b200000846c820081ac
:020000040000fa
:103b280080b500af024b5b8b9bb21800bd4680bdd1
:043b38000040004207
:020000040000fa
:103b3c0080b500af024b00229a61c046bd4680bde5
:043b4c00000800402d
:020000040000fa
:103b500080b500af024b82225a60c046bd4680bd90
:043b600000400041e0
:020000040000fa
:103b6400ea0f0000fa0f00002810000054100000b3
:043b740078100000c5
:020000040000fa
:103b7800053c00007d390000633c0000633c000008
:043b8800633c00009a
:020000040000fa
:103b8c0010b5002a05d00023cc5cc45401339342f9
:043b9c00fad110bd8d
:020000040000fa
:103ba00037b501246442e51700940195fef7b2ff92
:043bb00003b030bd71
:020000040000fa
:103bb40037b5802500242d0600940195fef7a8ff53
:043bc40003b030bd5d
:020000040000fa
:103bc80010b513000a000249fff730f910bdc046ce
:043bd800ffffff7f6d
:020000040000fa
:103bdc00c36a10b5002b01d0984710bd0068fff7e1
:043bec0026fffae7cf
:020000040000fa
:103bf000002a06d00300c9b282181970013393421b
:043c0000fbd170473d
:020000040000fa
:103c04008a18914201d10020704700230b700131c2
:023c1400f7e7d0
:020000040000fa
:103c18003c202564203e0000257320256400c04612
:020000040000fa
:103c280010b5fdf7b0fcfdf7aefcfdf7acfc10bd20
:020000040000fa
:0e3c38000300413b192b01d82023184370478d
:020000040000fa
:083c4600286e696c29002500bd
:020000040000fa
:083c4e0010b5fff778fb10bd73
:020000040000fa
:063c560080b500affee79f
:020000040000fa
:063c5c0080b500affee799
:020000040000fa
:043c62000020704787
:020000040000fa
:043c66000020704783
:020000040000fa
:043c6a00002070477f
:020000040000fa
:043c6e00002070477b
:020000040000fa
:043c72000020704777
:020000040000fa
:043c78007047c0468b
:020000040000fa
:0200000400807a
:0440000077c700d8a6
:020000040000fa
:0200000400807a
:044004005c00ffff5e
:00000001FF
